:020000040800F2
:100000003005002001010008331A00089D1800087F
:10001000311A0008BD0600087D1C00080000000021
:10002000000000000000000000000000371A000877
:100030003107000800000000351A0008391A0008CE
:100040001B0100081B0100081B0100081B01000820
:100050001B0100081B0100081B0100081B01000810
:100060001B0100081B010008E50700081B01000830
:100070001B0100081B0100081B0100081B010008F0
:100080001B0100081B0100081B0100081B010008E0
:100090001B0100081B0100081B01000825080008BF
:1000A0001B010008A51A0008991A00088D1A0008FB
:1000B0001B0100081B0100081B0100081B010008B0
:1000C0001B0100081B0100081B0100081B010008A0
:1000D0001B0100081B0100081B0100081B01000890
:1000E000350700081B0100081B010008DFF80CD0D1
:1000F00000F054FA004800470928000830050020A5
:100100000648804706480047FEE7FEE7FEE7FEE7B1
:10011000FEE7FEE7FEE7FEE7FEE7FEE78B1A0008D4
:10012000ED000008202A04DB203A21FA02F0002129
:10013000704721FA02F3D040C2F1200291400843F7
:1001400019467047D2B201E000F8012B491EFBD2DC
:1001500070470022F6E710B513460A4604461946D2
:10016000FFF7F0FF204610BD421C10F8011B0029CC
:10017000FBD1801A704700F0004230F000400AD0F6
:10018000C10D01F56071C0F3160042EA0151C208C9
:1001900040071143704700200146704730B50B46B9
:1001A000014600202022012409E021FA02F59D42A7
:1001B00005D303FA02F5491B04FA02F52844151E7B
:1001C000A2F10102F1DC30BD2DE9F05F054600200F
:1001D00092469B4688460646814640241BE02846B8
:1001E000414647462246FFF79DFF53465A46C01AEE
:1001F000914110D311461846224600F0E1F92D1A1C
:1002000067EB01084F4622460120002100F0D8F993
:1002100017EB00094E41201EA4F10104DFDC484623
:1002200031462A464346BDE8F09F2DE9FE4F804601
:1002300081EA0300C00F0C46009021F0004123F03A
:100240000045B8EB0200A94105D240462146904640
:100250001C460B46024623F00040104347D0270DB2
:10026000C7F30A00C3F30A510290401A01904028D4
:100270006BDAC3F3130040F4801B0098924620B160
:100280000023D2EB030A63EB0B0B01985946C0F134
:100290004002504600F094F906460D465046594635
:1002A000019A00F09CF910EB08006141002487EAF4
:1002B000115284EAE7731A4340D0009A62B3019A5C
:1002C000012A4FEA075215DC001B61EB02014FF0D7
:1002D000004202EA0752CDE90042001C41F58011BC
:1002E00032462B4600F09CF903B0BDE8F08F404643
:1002F0002146F9E7001B61EB0201001C41F5801368
:1003000000185B412018A2F5001747EB030140EAF3
:10031000D570B6196D4111E06D084FEA360645EA11
:10032000C0754FEA0752001B61EB0201001C41F54A
:10033000801149084FEA30000019514132462B46DE
:1003400003B0BDE8F04F00F05CB900980122400016
:100350000023D0EB020263EBE073009821464FEAE2
:10036000E074B8EB000061EB0401E9E783F00043BF
:100370005BE781F0004158E72DE9FE4F81EA030475
:1003800004F0004421F0004100944FF0000B23F0F2
:10039000004350EA01045ED052EA03045BD0C3F389
:1003A0000A54C1F30A552C44A4F2F3340194A0FB7F
:1003B0000254C1F3130141F48011C3F3130343F456
:1003C000801301FB024400FB034E840A970A44EAAF
:1003D000815447EA8357A4FB076802958D0A05FB01
:1003E00007854FEA932C04FB0C542705029D4FEA26
:1003F000065847EA1637B5EB08056EEB070C870E73
:10040000920E47EA811742EA8312A7FB0201B6EB7C
:100410000B0164EB00042B0D43EA0C335E1844EB34
:100420001C50DA465146E7FB0201C5F313044FEABC
:100430000B3343EA14534FEA0432019C43EA0603A8
:10044000A4F10C040294009CCDE900B400F0E8F89B
:1004500003B0BDE8F08F00200146F9E72DE9F04D2B
:1004600081EA030404F0004B21F0004514464FF0EC
:10047000000A23F0004150EA050220D054EA0102AC
:100480001DD0C5F30A570246C5F31303C1F3130089
:10049000C1F30A5640F4801543F48013A7EB060815
:1004A000101BD64608F2FD3873EB050002D308F1A5
:1004B000010801E092185B41B8F1000F03DA002057
:1004C0000146BDE8F08D00204FF4801106468446B9
:1004D0000EE0171B73EB050705D3121B63EB050337
:1004E00006434CEA010C49084FEA300092185B4180
:1004F00050EA0107EDD152EA030012D082EA04006B
:1005000083EA0501084305D0101BAB4106D2012246
:10051000002306E000224FF0004302E06FF00102EA
:1005200053101AEB06004CEB085110EB0A0041EB9C
:100530000B01BDE8F04D00F064B8C1F30A52C1F3FD
:10054000130140F2FF3341F480119A4202DA002095
:100550000146704740F233439A42A2F2334202DC32
:100560005242FFF7DFBD00F02BB8000030B5041E8B
:1005700071F1000404DB4FF00044404264EB0101E0
:10058000141E73F1000405DB1C464FF00043524279
:1005900063EB0403994208BF904230BD064C074DFF
:1005A00006E0E06840F0010394E807009847103443
:1005B000AC42F6D3FFF79EFD4029000860290008F1
:1005C000202A04DB203A00FA02F100207047914013
:1005D000C2F1200320FA03F3194390407047202A08
:1005E00006DBCB17203A41FA02F043EAE07306E05B
:1005F00041FA02F3D040C2F120029140084319466B
:10060000704710B5141E73F1000408DA401C41F164
:10061000000192185B411A4301D120F0010010BD86
:100620002DE9F04D92469B4611B1B1FA81F202E0FC
:10063000B0FA80F220329046FFF7C2FF04460F4620
:1006400040EA0A0041EA0B0153465A46084313D0D8
:10065000114653EA010019D0C8F140025046FFF795
:1006600061FD05460E46504659464246FFF7A8FF33
:10067000084305D0012004E020463946BDE8F08D4E
:100680000020054346EAE0762C4337430A98630589
:10069000E40AA0EB08000022FD0A44EA47540A30AD
:1006A00002D500200146E9E7010510196941DDE99D
:1006B000084500196941BDE8F04DA2E7FEE70000DA
:1006C0000E48016821F080710160016841F080717D
:1006D00001600B48016821F001010160016841F0EF
:1006E000010101600021416000BF00BF00BF406800
:1006F00008B100207047012070470000FCED00E0C9
:10070000001000E031B5084D6C6800F0EBFB0749C4
:10071000B0FBF1F000994843009068680099001B15
:100720008842FAD338BD0000001000E040420F00BC
:10073000704700002DE9F05F00F0AEF9234C4FF454
:10074000006B2188401AFA2828D95946204800F021
:1007500099F918BBDFF87CA05546BAF80000401C98
:10076000AAF8000000F098F9208028881A4D1B4E46
:100770001B4F4FF000084FF00109012813D0022849
:1007800015D003281DD0D14608D900F085F9208066
:100790004046A9F800802880308038805846BDE85F
:1007A000F05F00F073B8A5F800904046F4E700F061
:1007B00073F92080A5F80090A6F80090A7F80080B3
:1007C000ECE700F069F920804846E4E72C000020BF
:1007D000000C0140260000203400002036000020DC
:1007E0003800002010B500F057F90B4C2188401A52
:1007F00032280BD91021094800F044F930B90849D2
:100800000888401F088000F047F92080BDE81040AC
:10081000102000F03BB800002C0000200008014030
:100820002400002010B500F037F90B4C2188401A45
:1008300032280BD98021094800F024F930B9084941
:100840000888401D088000F027F92080BDE810408E
:10085000802000F01BB800002C00002000080140A0
:100860002400002070B5044600F016F90546601C0F
:1008700002D004480078044400F00EF9401BA04266
:10088000FAD370BD3C00002070470000044910B549
:100890000A68024202D00860FFF7F6FF10BD0000B0
:1008A000140401402DE9F84FDFF8B891002409F154
:1008B000040A0AF1040B23460F270BF1040EC9E0CA
:1008C0000125A5402A40AA427DD1674ED1F804C037
:1008D000ACEB0608B44532D014DCBCF1030F3AD0BF
:1008E00009DCBCF1000F2AD0BCF1010F1CD0BCF117
:1008F000020F31D11DE0BCF1110F17D0BCF1120F66
:100900002AD119E0B8F5881F19D006DCB8F5803F68
:1009100015D0B8F5801F1FD111E0B8F5001F0ED01B
:10092000B8F5041F18D10AE0CB6815E0CB681B1D91
:1009300012E0CB6808330FE0CB680C330CE08B6817
:100940002BB1012B4FF0080303D0456104E00423D1
:1009500002E0056100E00023FF2A01D8064601E01D
:1009600000F104064FEA840501D9A5F12005D6F867
:10097000008007FA05FC28EA0C0803FA05F548EAA6
:100980000508C6F800804D68ED0062D5374DAE69A8
:1009900046F00106AE61AD6924F0030605F00105DD
:1009A0000095334D06EB050CDCF80850A607360F12
:1009B00007FA06F825EA0805DFF8B880404503D1B4
:1009C0004FF0000817E044E0DFF8AC80404502D16A
:1009D0004FF001080FE0DFF8A480404502D14FF04E
:1009E000020808E0DFF89880404502D14FF0030884
:1009F00001E04FF0040808FA06F848EA0508CCF8C8
:100A000008804D68D9F80060ED034D4601D51643C6
:100A100000E096432E604D68DAF80060AD0355465D
:100A200001D5164300E096432E604D68DBF8006068
:100A3000ED025D4601D5164300E096432E604D68F9
:100A4000DEF80060AD02754601D5164300E096431E
:100A50002E60641C0D682A46E5407FF431AFBDE886
:100A6000F88F000000040140000011100010024047
:100A70000000014000080140000C0140001001404E
:100A8000001401408068084000D0012070470AB17E
:100A9000016170470904FBE7014880687047000066
:100AA0003C00002070B5040025D094F83D000025DE
:100AB00020B984F83C50204600F0B8F8242084F88F
:100AC0003D002068016821F0010101602068016893
:100AD00041F4004101602068016821F40041016097
:100AE00000F006FA4D4A6168914201D84C4900E095
:100AF0004C49884201D2012070BD4B492368B0FBAC
:100B0000F1F15E6826F03F060E435E606368934233
:100B100006D94FF4967359434FF47A73B1FBF3F14E
:100B20002368491C1E6A26F03F063143196261683A
:100B3000914210D84900401EB0FBF1F2521CC2F3A2
:100B40000B02042A01D2042022E0B0FBF1F0401C89
:100B5000C0F30B001CE0A268F2B301EBC10303EB8E
:100B60000116431EB3FBF6F35B1C43F480431B05E5
:100B700049D092B301EBC10202EB0111401EB0FB60
:100B8000F1F0401CC0F30B0040F4804040F4004002
:100B90002168CA694CF6FF739A431043C861D4E9CF
:100BA000071001432068026822F0C002114301606F
:100BB000D4E9030101432068826848F2FF339A4375
:100BC00011438160D4E9050108432168CA6822F015
:100BD000FF021043C86001E00EE016E020680168E3
:100BE00041F0010101602564202084F83D00256367
:100BF00084F83E50002070BD01EB4106431EB3FB5C
:100C0000F6F35B1CB3E70120C2E701EB4101401E94
:100C1000B0FBF1F0401CC0F30B00B7E7A086010069
:100C200080841E0000093D0040420F0010B586B0D0
:100C30000021009101910291039100680F498842BF
:100C40001AD10F4CA06940F00800A061A069694664
:100C500000F008000490C0200090122001900320B2
:100C600003900848FFF71EFEE06940F40010E061C1
:100C7000E06900F40010049006B010BD005400407C
:100C800000100240000C01400248816802781144C3
:100C9000816070473C000020074810B5016841F0B2
:100CA00010010160032000F075F8002000F006F844
:100CB00000F024F8002010BD0020024070B50D4D5A
:100CC00004464FF47A712878B1FBF0F00A490968BC
:100CD000B1FBF0F000F0E2FA48B9102C07D2002284
:100CE0002146501E00F036F800206C6070BD0120D7
:100CF00070BD00003C000020480000200C4808B5F2
:100D0000816941F001018161816901F00101009176
:100D1000C16941F08051C161C06900F0805000900C
:100D20000448416821F0E06141F00071416008BD74
:100D30000010024000000140002809DB00F01F0203
:100D4000012191404009800000F1E020C0F800112D
:100D500070470000F0B40E4B1B680C46C3F302232F
:100D6000C3F10705042D00D90425191D072901D257
:100D7000002300E0DB1E012606FA05F1491E214092
:100D800099409E40761E16403143F0BC00F08ABF69
:100D90000CED00E0064900F0070208684FF6FF037B
:100DA000184040EA0220034A1043086070470000E0
:100DB0000CED00E00000FA052DE9F0470F460500B4
:100DC00061D0434E306800F00700B84209D2306865
:100DD00020F0070038433060306800F00700B84268
:100DE00051D128683B4C810712D5400703D5606874
:100DF00040F4E06060602878000703D5606840F444
:100E0000605060606068A96820F0F000084360608E
:100E10002878C00728D06868012810D021680228E7
:100E200010D0890700292EDA616821F003010143FF
:100E30006160FFF731FE804641F288390DE021689C
:100E40008903EFE78901EDE7FFF726FEA0EB080134
:100E5000494502D90320BDE8F0876068696800F061
:100E60000C00B0EB810FEFD1306800F00700B84202
:100E70000BD9306820F0070038433060306800F04C
:100E80000700B84201D00120E5E72878400705D5E2
:100E90006068E96820F4E060084360602878000733
:100EA00006D56068296920F4605040EAC10060609E
:100EB00000F02EF86168084AC1F30311515CC84084
:100EC0000649086006480068FFF7F8FE0020C2E700
:100ED000002002400010024028290008480000209D
:100EE00040000020014800687047000048000020D2
:100EF0000448054900684968044AC1F30221515C6D
:100F0000C8407047480000200010024038290008FF
:100F100012A185B00FC98DE80F0014A0144A006813
:100F200004905168134801F00C03042B10D0082BD7
:100F30000ED1C1F38343C9031DF803000AD55168DC
:100F400004AAC1F34041515C0A4A5043B0FBF1F09E
:100F500005B0704708494843FAE70000020304055A
:100F6000060708090A0B0C0D0E0F101001020000F5
:100F70000010024000127A0000093D002DE9F84FF0
:100F8000040070D02078C04DC00749D06868C0F315
:100F90008100012807D06868C0F38100022809D1C8
:100FA0006868C00306D52868800339D560680028C2
:100FB000E7D035E06068B0F5803F0BD010B1B0F5F8
:100FC000A02F11D0286820F480302860286820F4F1
:100FD000802002E0286840F480302860606890B18A
:100FE000FFF75AFD06460AE0286840F48020286092
:100FF000F0E700BFFFF750FD801B642873D8286816
:101000008003F7D50CE0FFF747FD064605E000BF7B
:10101000FFF742FD801B6428F0D828688003F7D4CE
:1010200020789A4E80074FF001094FF0000839D51B
:10103000686810F00C0F07D06868C0F381000228C0
:1010400009D16868C00306D42868800714D52069D0
:10105000012808D110E02069B0B1C6F80090FFF770
:101060001BFD074605E00AE1FFF716FDC01B02283D
:10107000C4D828688007F7D52868616920F0F8008F
:1010800040EAC10028600DE0C6F80080FFF704FDCB
:10109000074604E0FFF700FDC01B022823D828689C
:1010A0008007F7D4207800072CD57948A169D9B1F9
:1010B000C0F80090FFF7F0FC074604E0FFF7ECFCF7
:1010C000C01B02280FD8686A8007F7D571484FF413
:1010D000FA510068B0FBF1F0009000BF0098411E8B
:1010E0000091FAD20EE080E0C0F80080FFF7D4FC57
:1010F000074604E0FFF7D0FCC01B022875D8686AD9
:101100008007F7D42078400760D5E8690027C00041
:1011100008D4E86940F08050E861E869012700F0F0
:10112000805000905C480168C90513D4016883466B
:1011300041F480710160FFF7AFFC824606E000BF1A
:10114000FFF7AAFCA0EB0A0064284ED8DBF80000E9
:10115000C005F5D5E06801280AD008B1052813D0EC
:10116000286A20F001002862286A20F0040002E0CA
:10117000286A40F001002862E06841F2883B98B19B
:10118000FFF78AFC82460BE0286A40F004002862E0
:10119000EEE700BFFFF780FCA0EB0A0159455AD8E3
:1011A000286A8007F6D50CE0FFF776FC824605E05A
:1011B000FFF772FCA0EB0A0159454CD8286A80075A
:1011C000F6D41FB1E86920F08050E861E06988B387
:1011D0006968C1F38101022944D00228C6F8608001
:1011E00004D0FFF759FC044638E034E0FFF754FC24
:1011F000074604E0FFF750FCC01B02282BD82868E4
:101200008001F7D4206AB0F5803F05D16868A168F5
:1012100020F4003008436860D4E908010843696895
:1012200021F4741108436860C6F86090FFF734FC3D
:10123000044606E025E000BFFFF72EFC001B022855
:1012400009D828688001F7D51BE000BFFFF724FC10
:10125000001B022802D90320BDE8F88F286880010E
:10126000F4D40EE00128F7D06868226A00F48031D7
:10127000914204D1616A00F47010884201D00120CB
:10128000EAE70020E8E700000010024000004242C8
:1012900080044242480000200070004010B5401E0B
:1012A000B0F1807F01D3012010BD4FF0E0246061D8
:1012B0000F21601700F0F6FC0020A06107202061DC
:1012C000002010BD7047704770B590F83C20012A8F
:1012D00026D0012480F83C40022280F83D2003689B
:1012E0005A689D6822F070060A6832435A600D4BB6
:1012F00002689A4208D0B2F1804F05D00A4B9A4258
:1013000002D00A4B9A4204D1496825F08003194360
:10131000916080F83D40002180F83C10084670BD87
:10132000022070BD002C0140000400400008004075
:101330002DE9F0410D46040003D094F83D0018B1AA
:1013400008E00120BDE8F081002084F83C00204640
:1013500000F040F8022084F83D002068816844F2E3
:10136000070291438160211D206800F0A1FB2268E3
:1013700090689169166A2B68AF69034340F20330A5
:10138000814341EA0721A868EF6908434FF6FC4111
:101390008843E96840EA0720014328692F6A000171
:1013A00040EA0730084369686D6926F0220646EA7C
:1013B0000515294393602268906154F8460B016239
:1013C000012004F81F09E0752076E0762077A075EB
:1013D0000020B7E700B585B000210091019102918E
:1013E000039100681A4988422FD11A48816941F453
:1013F00000618161816901F400610491816941F0BA
:10140000040181618069694600F0040004904FF492
:10141000407000901048FFF745FA0022114619204D
:10142000FFF798FC1920FFF787FC002211461A20CD
:10143000FFF790FC1A20FFF77FFC002211461B20CB
:10144000FFF788FC1B20FFF777FC05B000BD00000C
:10145000002C0140001002400008014070B590F8D7
:101460003E60044690F83F5090F8423090F8432098
:10147000022021B104290ED0012E1BD114E0012E2F
:1014800018D1012B16D184F83E0084F842000122C5
:101490000021206820E0012D0CD1012A0AD184F816
:1014A0003F0084F8430014E0012D03D1012B01D14A
:1014B000012A01D0012070BD84F83E0084F83F006D
:1014C00084F8420084F8430001220021206800F0E3
:1014D00025FB01220421206800F020FB2068016820
:1014E00041F001010160002070BD00000068034967
:1014F000884201D1416A006870470000002C014019
:1015000070B50446006801694FF00005C9438907BA
:1015100015D4C168C943890711D4E91E01610120AE
:101520002077206880698007204602D0FFF7DEFF21
:1015300004E000F0BDF8204600F05EF92577206851
:101540000169C943490717D4C168C943490713D47E
:101550006FF004010161022020772068806910F497
:10156000407F204602D0FFF7C1FF04E000F0A0F862
:10157000204600F041F9257720680169C943090731
:1015800016D4C168C943090712D46FF0080101617C
:10159000042020772068C0698007204602D0FFF72A
:1015A000A5FF04E000F084F8204600F025F9257737
:1015B00020680169C943C90617D4C168C943C9066F
:1015C00013D46FF010010161082020772068C069F2
:1015D00010F4407F204602D0FFF788FF04E000F0BF
:1015E00067F8204600F008F9257720680169C943AB
:1015F000C90708D1C168C943C90704D1891E01615F
:10160000204600F049F920680169C943090609D458
:10161000C168C943090605D46FF080010161204605
:10162000FFF750FE20680169C943490609D4C16823
:10163000C943490605D46FF040010161204600F01E
:101640002CF920680169C94389060BD4C168C943D4
:10165000890607D46FF0200101612046BDE8704083
:10166000FFF731BE70BD000000B585B000210091CC
:101670000191029103910068B0F1804F11D10A48A5
:10168000816941F0040181618069694600F00400CC
:101690000490012000900220019003900348FFF77E
:1016A00001F905B000BD0000001002400008014033
:1016B000704770B5044690F83C000D4601280AD0EA
:1016C000012084F83C0042B1042A18D0082A2AD00C
:1016D0000C2A4DD139E0022070BD206800F02CFAB0
:1016E0002068816941F0080181612068816921F0E9
:1016F00004018161206881692A69114311E0206831
:1017000000F042FA2068816941F40061816120683B
:10171000816921F480618161206881692A6941EAD7
:101720000221816124E0206800F05AFA2068C16932
:1017300041F00801C1612068C16921F00401C16163
:101740002068C1692A69114311E0206800F074FA29
:101750002068C16941F40061C1612068C16921F458
:101760008061C1612068C1692A6941EA0221C161C1
:10177000002084F83C0070BD10B5040003D094F83C
:101780003D0010B107E0012010BD002084F83C00AE
:10179000204600F01FF8022084F83D00211D20683B
:1017A00000F086F9012084F8460084F83E0084F8B1
:1017B0003F0084F8400084F8410084F8420084F837
:1017C000430084F8440084F8450084F83D0000207C
:1017D00010BD000008B50068B0F1804F08D1054881
:1017E000C16941F00101C161C06900F001000090D0
:1017F00008BD0000001002407047000010B504460C
:10180000022249B104290ED0082913D094F84100CE
:10181000012816D0012010BD94F83E000128F9D10E
:1018200084F83E200FE094F83F000128F2D184F8BC
:101830003F2008E094F840000128EBD184F84020D4
:1018400001E084F841200122206800F067F90F4987
:101850002068884203D1426C42F40042426420680E
:10186000884208D0B0F1804F05D00949884202D0A3
:101870000849884204D1816801F00701062903D094
:10188000016841F001010160002010BD002C014001
:10189000000400400008004070477047FEE7000069
:1018A000F0B585B000242D4800940194029403946F
:1018B000816941F020018161816901F02001049179
:1018C000816941F004018161816901F004010491A1
:1018D000816941F0080181618069214F00F00800B1
:1018E00040F20F360490002231463846FFF7CFF819
:1018F000902000901B480225CDE9010569461A4851
:10190000FEF7D0FF01200096CDE90104039069465F
:101910003846FEF7C7FFA80200901448CDE901053C
:1019200069463846FEF7BEFF002211460A20FFF73F
:1019300011FA0A20FFF700FA002211461720FFF7DC
:1019400009FA1720FFF7F8F9002211462820FFF7BF
:1019500001FA2820FFF7F0F905B0F0BD00100240B1
:10196000000C01400000311000080140000021106F
:1019700010B58CB024216846FEF7EBFB0024134819
:10198000099411490A94C0E90014202181604FF4A0
:10199000FA71C0E90314446184610120CDE90004B7
:1019A000CDE9020402210491CDE90540CDE90741CA
:1019B00069460648FFF7BCFC099409A903480A9444
:1019C000FFF782FC0CB010BD002C0140A0000020ED
:1019D00010B58AB0002407941C2168460894FEF7CD
:1019E000B8FB12484FF0804101604721C0E9011463
:1019F0004FF4FA71C0E903148461FFF7BDFE079448
:101A000007A90A480894FFF75FFC60200090FA20BD
:101A1000CDE901040022694604480494FFF749FE19
:101A20000248FFF721FE0AB010BD0000E8000020C8
:101A3000FEE7704770477047FFF726B930B58FB0A3
:101A400028216846FEF785FB14210AA8FEF781FBD2
:101A500001210804CDE9001000240294022504911C
:101A6000CDE907504FF4E01009906846FFF786FA79
:101A70000F20CDE90A056802CDE90C4002210AA831
:101A80000E94FFF799F90FB030BD70470148FFF78A
:101A900037BD0000A00000200148FFF731BD000065
:101AA000A00000200148FFF72BBD0000A00000208F
:101AB000F0B50268164B174C174D4FF0804798420F
:101AC00005D0B84203D0A04201D0A84203D122F0F1
:101AD00070064A683243984205D0B84203D0A0420B
:101AE00001D0A84203D122F44074CA6822434C6951
:101AF00022F08002224302608A68C2620A6882621F
:101B0000984201D10969016301214161F0BD0000E2
:101B1000002C0140000400400008004010B501F016
:101B20001F030121046A99408C430462016A9A40B0
:101B30001143016210BD000030B5026A22F00102BB
:101B40000262026A4368846924F073050C682C43BE
:101B500022F002058A682A430A4DA8420BD122F0DE
:101B60000805CA6823F440732A434D6922F0040231
:101B70001D438B692B434360846149684163026262
:101B800030BD0000002C014030B5026A22F0100286
:101B90000262026A436884690D6824F4E64444EAF8
:101BA00005248D6822F0200242EA05120B4DA8425E
:101BB0000ED1CD6822F0800242EA05124D6923F46D
:101BC000406343EA85038D6922F0400243EA8503BE
:101BD0004360846149688163026230BD002C01402A
:101BE00030B5026A22F480720262036A4268C469F4
:101BF00023F4007324F073050C682C438D6843EACA
:101C000005230C4DA8420ED1CD6823F4006343EAAE
:101C100005234D6922F4405242EA05128D6923F4EE
:101C2000806342EA05124260C4614968C16303628D
:101C300030BD0000002C014030B5026A22F4805211
:101C40000262046A4268C3690D6823F4E64343EA0A
:101C500005238D6824F4005444EA0534064DA84257
:101C600004D14D6922F4804242EA85124260C36188
:101C700049680164046230BD002C0140FEE70000A9
:101C800037B514460846064B6A46214600F0ECF884
:101C900004466946002000F07EFC20463EBD000060
:101CA000972500080907090E002804DB00F1E02051
:101CB00080F80014704700F00F0000F1E02080F879
:101CC000141D704702E008C8121F08C1002AFAD18B
:101CD00070477047002001E001C1121F002AFBD1AC
:101CE000704700002DE9FF5F82B00021DDE904307C
:101CF000020DDDF840B0034318D044F61050A2F2B4
:101D0000FF3242431514119801281FD0A5EB0B0098
:101D1000401C5FEA000A4FF000064E4FDFF8389192
:101D2000B046504615D5CAF1000413E011980124BD
:101D30004AA3012801D16FEA0B010298119AC0E968
:101D40000031C0E9024206B0BDE8F09FCBF10000CF
:101D5000DFE704460021404A491842EB0450CDE930
:101D6000001012E0E00707D032463B4640464946A5
:101D7000FEF702FB8046894632463B46104619462E
:101D8000FEF7FAFA06460F466410002CEAD1DDE9A8
:101D90000401DDE90023BAF1000F06DAFEF7ECFAE0
:101DA00042464B46FEF7E8FA05E0FEF757FB42468F
:101DB0004B46FEF753FB04460E460022284BFEF727
:101DC000D5FB03D84FF0FF30014607E00022254B3A
:101DD00020463146FEF729FAFEF7AFFB102409E052
:101DE000002C0ADB0A220023FEF7EEF9039B3032B7
:101DF0001A55641E50EA0102F2D1641C039AC4F120
:101E000011031444119A012A03D0012208430DD171
:101E10000AE0084304D000204FF0110B119072E744
:101E2000A3EB0B056D1E0DE05B4504DD4FF00002DA
:101E300005F1010504E003DA4FF00002A5F1010508
:101E4000002AECD002981199C0E90231C0E900459E
:101E500079E70000000014400000F03F300000006F
:101E60000000F0430000E03F2DE9FF4F95B09B4696
:101E70008946064600250FE2252877D1002427460B
:101E8000F84A0121059400E0044316F8013F203B85
:101E900001FA03F01042F7D130782A2811D06FF000
:101EA0002F033078A0F13002092A16D8059A44F0A1
:101EB000020402EB820203EB42021044761C0590FE
:101EC000EFE759F8042B0592002A03DA504244F454
:101ED0000054059044F00204761C30782E2816D168
:101EE00016F8010F44F004042A280DD06FF02F02D9
:101EF0003078A0F13003092B09D807EB870302EBF8
:101F00004303C718761CF3E759F8047B761C307836
:101F10006C280FD006DC4C2817D068280DD06A2812
:101F200014D104E0742810D07A280FD10DE044F4C5
:101F300000140AE044F4801401E044F44014727880
:101F4000824202D104F58014761C761C3078662813
:101F50000BD013DC582877D009DC002875D0452831
:101F6000F6D04628F4D047281AD19DE118E063281E
:101F700035D0642879D0652812D195E1702873D0C6
:101F800008DC6728F1D069286FD06E280DD06F2843
:101F900006D1B5E073282CD0752875D0782874D078
:101FA0005A46179990476D1C75E1C4F302500228F8
:101FB00009D003280DD0D9F8001004280DD00D60E9
:101FC00009F1040967E1D9F80010EA17C1E90052E4
:101FD000F6E7D9F800100D80F2E70D70F0E719F878
:101FE000041B8DF8001000208DF80100EA46012046
:101FF00003E059F804AB4FF0FF3061074FF00001E8
:1020000002D40DE008F101018846B9420FDA80459B
:10201000F8DB1AF808100029F4D108E008F10101F2
:1020200088468142FADB1AF808100029F6D1059893
:102030005B46A0EB080721463846179A00F094FA51
:10204000284400EB080507E04DE029E10DE01AF80F
:10205000010B5A4617999047B8F10108F7D25B4631
:1020600021463846179A13E142E00A220092C4F34F
:1020700002524FF0000A022A08D059F804CB032A72
:102080004FEAEC710AD00DE029E02AE009F10701DE
:1020900021F00702F2E802C1914609E00FFA8CFC38
:1020A0004FEAEC71042A03D14FFA8CFC4FEAEC7131
:1020B000002907DA0A460021DCF1000C61EB02017D
:1020C0002D2202E0220504D52B228DF804200122C6
:1020D00003E0E20701D02022F7E7904659E00A2109
:1020E00002E010220DE010214FF0000A00910BE0F9
:1020F00010224FF0000A44F004040827009203E085
:1021000008224FF0000A0092C4F30252022A05D0BE
:1021100059F804CB0021032A08D009E009F107018E
:1021200021F00702F2E802C1914605E01FFA8CFC9B
:10213000042A01D10CF0FF0C4FF00008220728D52B
:10214000702806D0009B83F0100353EA0A0305D0E1
:102150000EE040228DF80420012208E05CEA010232
:1021600006D030228DF804208DF80500022290461A
:10217000009B83F0080353EA0A030AD15CEA0102D8
:1021800001D1620705D530228DF804204FF00108F7
:102190007F1E582804D034A003900EA802900DE0B2
:1021A00036A0F9E753466046009AFEF70DF88446DC
:1021B0000398825C0298401E029002705CEA010063
:1021C000F0D1029806A9081A00F1200A600702D58A
:1021D00024F4803400E00127574502DDA7EB0A0014
:1021E00000E0002000EB0A01009005984144401AED
:1021F0000590E00306D45B462146179A059800F047
:10220000B3F90544002706E001A85A46C05D1799B6
:1022100090476D1C7F1C4745F6DBE0030CD55B4601
:102220002146179A059800F09FF9054404E03020F4
:102230005A46179990476D1C0099481E0090002936
:10224000F5DC08E0029802995A460078491C029190
:10225000179990476D1CBAF10001AAF1010AF1DC4F
:1022600065E100000928010030313233343536375A
:1022700038396162636465660000000030313233D2
:102280003435363738394142434445460000000072
:1022900000F058F90544761C307800287FF4ECAD46
:1022A00019B02846BDE8F08F620700D4062709F16F
:1022B000070222F0070CFCE80223E14603F0004885
:1022C0005FEA080C02D00FF2702C0DE05FEA045CAC
:1022D00002D50FF2682C07E05FEAC47C02D00FF24F
:1022E000602C01E0AFF2700C4FF0FF3823F0004398
:1022F000CDF850C065280CD006DC452809D046280A
:102300001DD047283DD13DE0662818D067287ED1F2
:1023100038E00021112F01DB112000E0781CCDE90D
:10232000000106A90EA8FFF7DDFCDDE90F010E9AFA
:1023300003910021009207F1010A04914DE04FF052
:1023400000400097CDE9011006A90EA8FFF7CAFCCE
:10235000DDE90F0203920E9B11990022DDF80CA01B
:102360000093049211B9791C00EB010AB7EB0A0043
:1023700004D4C0F1FF3007F1010A0490AAEB070072
:10238000019044E0012F00DA01270021112F01DD27
:10239000112000E03846CDE9000106A90EA8FFF79C
:1023A000A1FCDDE90F010E9A039100210491009236
:1023B000BA4621070CD40399514500DA8A46BAF18E
:1023C000010F05DD009AAAF10101515C302908D006
:1023D000B84202DA10F1040F06DA0121CDE901104A
:1023E00015E0AAF10101E9E7002805DC04990144A0
:1023F0000491AAEB000102E0411C514500DD8A4630
:102400000499401A401C01904FF0004002902007B0
:1024100004D40198504501DBCDF8048000208DF8EC
:102420004F0002980DF14F07B0F1004F25D02B203F
:102430000E9002984FF0020800280CDA40420290F9
:102440002D200E9007E00A210298FDF7A7FE3031FB
:10245000029007F8011DB8F10001A8F10108F2DCB3
:1024600002980028EFD1791E0E980870307800F09D
:10247000200040F0450007F8020D12A8C01B00F133
:1024800007081498007800B1012000EB0A010198B8
:1024900001EBE07105984144401A401E0590E003AD
:1024A00006D45B462146179A059800F05DF805446E
:1024B0001498007818B15A46179990476D1CE0039C
:1024C00024D55B462146179A059800F04DF805443F
:1024D0001CE00498002807DBDDE90301884203DDE6
:1024E0000098405C179901E0179930205A469047B0
:1024F000049805F10105401C04900198401E0190CC
:1025000004D12E205A46179990476D1CBAF100014C
:10251000AAF1010ADDDC05E017F8010B5A4617990C
:1025200090476D1CB8F10001A8F10108F4DC5B468E
:102530002146179A0598ABE62D0000002B000000FD
:10254000200000002DE9F041044600251E461746F4
:10255000880404D405E039462020B0476D1C641E71
:10256000F9D52846BDE8F0812DE9F0410446002563
:102570001E469046C80301D5302700E02027880476
:1025800004D505E041463846B0476D1C641EF9D5B8
:102590002846BDE8F0810A68531C0B601070704734
:1025A0000021084600F08AB80021012000F086B81A
:1025B00010B5094C0122E188A069FEF768FA1420E1
:1025C000FEF7A0F80022E188A069FEF760FABDE8F6
:1025D00010403C20FEF796B8000000202DE9F05F87
:1025E00007460AA81C4690E8000F15460E46FEF75F
:1025F00067F81D48002187618680C5800462A0F8C5
:102600001080A0F81290A0F814A0A0F816B00170E5
:10261000282181701420FEF725F9032000F0C6F868
:102620000520FEF71FF9032000F0C0F80120FEF797
:1026300019F9032000F0BAF80120FEF713F902207F
:1026400000F0B4F80120FEF70DF9282000F0D2F8D0
:102650000F2000F0CFF8012000F0CCF8BDE8F05FCB
:102660000320FEF7FFB80000000000200FB470B593
:1026700086B00BAA68460A99FFF702FB00246E4653
:1026800008E0355D012000F011F8284600F022F83E
:10269000641CE4B26846FDF767FDA04201D9102C26
:1026A000EFD306B070BC5DF814FB00000246024890
:1026B00081888069FEF7EBB90000002001F00F016E
:1026C00020B141F0C00000BF00F094B841F080009C
:1026D000FAE700002DE9F84F0209334C02F0080335
:1026E00002F0040B217802F0020902F0010700F069
:1026F000080A00F0040600F0020500F0010800934B
:1027000021B342462189E069FEF7C1F92A46618971
:10271000E069FEF7BCF93246A189E069FEF7B7F936
:102720005246E189E069FEF7B2F93A46218A206A09
:10273000FEF7ADF94A46618A206AFEF7A8F95A46C3
:10274000A18A206AFEF7A3F9009A25E03A46218A79
:10275000206AFEF79CF94A46618A206AFEF797F9DB
:102760005A46A18A206AFEF792F9E18A009A206A05
:10277000FEF78DF9FFF71CFF4246218A206AFEF71B
:1027800086F92A46618A206AFEF781F93246A18AD3
:10279000206AFEF77CF95246E18A206AFEF777F953
:1027A000BDE8F84FFFF704BF0000002070B50546F4
:1027B0000020FFF77BFF0E4C05F00102218A206A02
:1027C000FEF765F905F00202618A206AFEF75FF9FB
:1027D00005F00402A18A206AFEF759F905F0080203
:1027E000E18A206AFEF753F9BDE87040FFF7E0BECA
:1027F0000000002010B504460020FFF757FF2046D8
:10280000BDE81040FFF766BF1FB5FEF745FAFFF7BA
:1028100015F9FFF745F8FFF7ABF8344832490025C2
:1028200001603349C0E901154FF48041C0E903510B
:1028300045618561C5610562FEF734F9FFF7C8F8A7
:102840002A4800215430FEF709FE284800219C3018
:10285000FEF7D4FF08200421CDE902102548022705
:102860000126034642158115CDE90067FFF7B6FE44
:10287000FEF712F9204C2081608890B1012814D015
:1028800002281ED00328F7D1E0801C4800681749B1
:1028900080B25431A0800968496A4FF08041486392
:1028A000EAE7E580FFF77CFE18E0E680FFF778FEB8
:1028B000E068FDF760FC02460B4611A0FFF7D6FE6C
:1028C000DAE7E780FFF76CFEE068FDF754FC0246AC
:1028D0000B460BA0FFF7CAFEFFF766FE21880DA08E
:1028E000FFF7C4FEC8E70000005400404C00002081
:1028F000A0860100000C014024000020242C01408F
:102900004672657175656E6379203D20252E3266AD
:102910000000000070756C7365206E756D626572E5
:10292000203D2025640000000000000000000000A1
:102930000102030406070809000000000102030465
:1029400060290008000000204C000000C41C0008A2
:10295000AC2900084C000020E4040000D41C00084E
:10296000010F38000000000000000000000000001F
:102970000000000000000000000000000000000057
:102980000000000000000000000000000000000047
:102990000000000000000000000000000100000036
:0C29A00010000000000000000024F40003
:04000005080000ED02
:00000001FF
