:020000040800F2
:10000000F8050020A1010008DF1F00082B1D0008D3
:10001000DD1F0008AD020008F12500080000000007
:100020000000000000000000000000003320000875
:10003000AF02000800000000E11F000835200008A2
:10004000BB010008BB010008BB010008BB010008A0
:10005000BB010008BB010008BB010008B102000899
:10006000B7020008BB010008BB010008BB01000883
:10007000BB010008BB010008BB010008BB01000870
:10008000BB010008BB010008BB010008BB01000860
:10009000BB010008BB010008BB010008BB01000850
:1000A000D920000801210008BB010008F520000844
:1000B000BB0100080000000000000000BB010008B8
:1000C000BB010008BB010008BB01000800000000E4
:1000D000BB010008BB010008BB010008E5250008C2
:1000E000BB010008BB010008BB01000800000000C4
:1000F0000000000000000000000000000000000000
:10010000000000000000000000000000BB0100082B
:1001100000000000000000001D2100080000000099
:1001200000000000000000000000000000000000CF
:1001300000000000000000000000000000000000BF
:10014000BB010008BB010008000000000000000027
:10015000000000000000000000000000000000009F
:10016000BB010008BB010008BB010008BB0100087F
:10017000BB010008000000000000000000000000BB
:1001800000000000BB010008DFF810D000F07CF890
:100190000048004731260008AFF30080F805002032
:1001A0000648804706480047FEE7FEE7FEE7FEE711
:1001B000FEE7FEE7FEE7FEE7FEE7FEE7BD200008FC
:1001C000890100082DE9F05F0546002092469B4614
:1001D00088460646814640241BE02846414647465D
:1001E000224600F020F853465A46C01A914110D3D7
:1001F00011461846224600F038F82D1A67EB010820
:100200004F4622460120002100F02FF817EB00098D
:100210004E41201EA4F10104DFDC484631462A4647
:100220004346BDE8F09F202A04DB203A21FA02F081
:100230000021704721FA02F3D040C2F12002914020
:10024000084319467047D2B201E000F8012B491E5D
:10025000FBD270470022F6E710B513460A46044663
:100260001946FFF7F0FF204610BD202A04DB203A94
:1002700000FA02F1002070479140C2F1200320FAF9
:1002800003F3194390407047064C074D06E0E068C1
:1002900040F0010394E8070098471034AC42F6D3CD
:1002A000FFF776FF0427000824270008FEE77047C1
:1002B000022000F04FB8042000F04CB810B590F8C0
:1002C00021100024022903D004218163012418E0B5
:1002D00001680A6822F00E020A6001680A6822F0CA
:1002E00001020A6090F84020C36B012101FA02F27A
:1002F0005A6080F82110002180F82010416B01B174
:100300008847204610BD0000022803D0042805D0ED
:1003100000BF7047C823112203A102E0C8231122A5
:1003200006A10B4801F0A6BC53746F70204D6F748A
:100330006F7220706F7320310A00000053746F7069
:10034000204D6F746F7220706F7320320A000000AE
:1003500078010020044910B50A68024202D0086002
:10036000FFF7D2FF10BD0000140401402DE9FC4F3F
:10037000DFF884A1002301250AF1040B03244FF0C8
:100380000F0C0BF1040EB0E005FA03F73A406ED003
:100390004E68012E05D0022E03D0112E01D0122E50
:1003A00017D1D0F808905E0004FA06F829EA080987
:1003B0000096D1F80C8008FA06F848EA0908C0F857
:1003C00008804668BE430F79C7F300179F40374344
:1003D0004760C6684FEA430804FA08F7BE4301972E
:1003E0008F6807FA08F73743C7604E68022E01D0BE
:1003F000122E10D1DE0800EB86060096366A5F07E3
:100400004FEAD7690CFA09F7BE430F6907FA09F7F3
:100410003743009E37620668019FBE430F7907F09D
:10042000030707FA08F7374307604E68F6005BD505
:10043000324EB76947F00107B761B66923F0030789
:1004400006F0010600962E4E3E44B146B6689F0760
:100450004FEA17780CFA08F7BE43B0F1904F04D07A
:10046000284FB84204D101270DE000270BE03BE004
:10047000254FB84201D1022705E0244FB84201D1EF
:10048000032700E0052707FA08F73743C9F8087083
:10049000DAF800605746D1F8048096435FEAC8381E
:1004A00000D516433E60DBF800605F46D1F804805B
:1004B00096435FEA883800D516433E60DEF8006058
:1004C0007746D1F8048096435FEAC82800D51643E2
:1004D0003E60094F0C373E68D1F8048096435FEACE
:1004E000882800D516433E605B1C0E683246DE400D
:1004F0007FF44AAFBDE8FC8F0004014000100240C9
:10050000000001400004004800080048000C0048BA
:100510000069084000D0012070470AB1816170472E
:100520008162704701488068704700000800002021
:1005300002488168027811448160704708000020F9
:10054000074810B5016841F010010160032000F078
:100550006DF8002000F006F800F024F8002010BD2F
:100560000020024070B50D4D04464FF47A71287892
:10057000B1FBF0F00A490968B1FBF0F000F0B7FEFA
:1005800048B9102C07D200222146501E00F02EF848
:1005900000206C6070BD012070BD000008000020CC
:1005A00014000020094808B5816941F0010181610A
:1005B000816901F001010091C16941F08051C1617F
:1005C000C06900F08050009008BD0000001002409B
:1005D000002809DB00F01F02012191404009800042
:1005E00000F1E020C0F8001170470000F0B40E4B9D
:1005F0001B680C46C3F30223C3F10705042D00D981
:100600000425191D072901D2002300E0DB1E012665
:1006100006FA05F1491E214099409E40761E16407B
:100620003143F0BC01F0E5BF0CED00E0064900F0FD
:10063000070208684FF6FF03184040EA0220034A09
:1006400010430860704700000CED00E00000FA0560
:100650000248016841F480710160704700700040F9
:100660002DE9F84F05460068774CC0036FD5E06967
:100670000026C00008D4E06940F08050E061E069E5
:10068000012600F08050009070480168C90512D41E
:100690000168804641F480710160FFF743FF07461F
:1006A00005E000BFFFF73EFFC01B642835D8D8F82F
:1006B0000000C005F6D5206A10F4407053D0A98818
:1006C00001F4407181424ED0206A4FF4803191FA9A
:1006D000A1F2B2FA82F297005D4A4FF00108174486
:1006E00020F44070C7F8008491FAA1F1B1FA81F1C9
:1006F00002EB81010023C1F800342062C00732D030
:10070000FFF710FF074641F2883A4FF0020907E071
:10071000FFF708FFC11B514502D90320BDE8F88F40
:1007200099FAA9F1B1FA81F141F040014846B8EBDC
:10073000511F01D121680CE090FAA0F1B1FA81F1CA
:1007400041F04001B0EB511F02D1216A01E015E0F8
:10075000616A99FAA9F0B0FA80F000F01F0008FA77
:1007600000F21142D4D0206A696820F44070084336
:1007700020621EB1E06920F08050E0612878C00757
:1007800005D0206BA96820F0030008432063287877
:10079000800605D5206BE96820F01000084320632F
:1007A0002868800305D56068296B20F48000084321
:1007B00060602878400605D5206B296920F020006C
:1007C000084320632888000405D5206B696920F060
:1007D0004000084320632888800505D56068E969E2
:1007E00020F40000084360602878000605D5E06A20
:1007F000A96920F4F8700843E0622888C00405D590
:10080000206B296A20F48070084320632868400325
:1008100005D5206B696A20F480600843206328684E
:10082000000305D5206BA96A20F40060084320630B
:100830002868C00205D5206BE96A20F400500843FF
:10084000206300206AE700000010024000700040B2
:10085000000042422DE9F0470F46050069D04A4E9C
:10086000306800F00700B84209D2306820F0070075
:1008700038433060306800F00700B84259D128781A
:10088000424C800705D56068A96820F0F000084355
:1008900060602878C0073DD06968012001290DD02B
:1008A000022923D05FF0020393FAA3F2B2FA82F294
:1008B00042F02002520904D0226803E04FF40033D2
:1008C000F2E7626A93FAA3F3B3FA83F303F01F0328
:1008D000984002422DD0606820F003000843606019
:1008E000FFF720FE804641F288390CE04FF000739C
:1008F000DAE700BFFFF716FEA0EB0801494502D971
:100900000320BDE8F0876068696800F00C00B0EB78
:10091000810FEFD1306800F00700B8420BD9306882
:1009200020F0070038433060306800F00700B8421C
:1009300001D00120E5E72878400705D56068E9681F
:1009400020F4E060084360602878000706D56068FE
:10095000296920F4605040EAC100606000F04EF860
:100960006168F02292FAA2F201F0F001B2FA82F28A
:10097000D140074A515CC8400649086006480068F3
:10098000FFF7F0FD0020BCE700200240001002400D
:10099000EC260008140000200C000020084809493B
:1009A000006849684FF4E06292FAA2F201F4E06153
:1009B000B2FA82F2D140044A515CC840704700004C
:1009C0001400002000100240FC26000808480949D5
:1009D000006849684FF4605292FAA2F201F4605143
:1009E000B2FA82F2D140044A515CC840704700001C
:1009F0001400002000100240FC260008164A10B522
:100A00005168164801F00C03042B20D0082B1ED18E
:100A10004FF4701494FAA4F401F47013B4FA84F44B
:100A2000E3400F4CD26AE45C0F2393FAA3F302F085
:100A30000F02B3FA83F3DA40094B1033C9039A5C0F
:100A400006D500231946FFF7BDFBA0FB040110BD2E
:100A50000448A4FB000110BD0010024000127A00FF
:100A6000CC26000800093D002DE9F84F050071D0A3
:100A70002878FC4EC0074FF0010425D07068670449
:100A8000C0F38100012807D07068C0F381000228FC
:100A90001BD17068C00318D597FAA7F0B0FA80F0A0
:100AA00040F02000400901D0306800E0706A97FAF9
:100AB000A7F1B1FA81F101F01F0104FA01F1084236
:100AC00065D068680028D2D061E06868B0F5803FE2
:100AD0000BD010B1B0F5A02F17D0306820F48030C3
:100AE0003060306820F4802002E0306840F48030CC
:100AF0003060F06AA96820F00F000843F06268686F
:100B000020B3FFF70FFD80460AE0306840F48020F4
:100B10003060EAE7FFF706FDA0EB0800642871D813
:100B200097FAA7F0B0FA80F040F02000400901D019
:100B3000306800E0706A97FAA7F1B1FA81F101F02C
:100B40001F0104FA01F10842E4D020E0FFF7EAFCBB
:100B5000804607E0C2E000BFFFF7E4FCA0EB08001E
:100B60006428DCD897FAA7F0B0FA80F040F02000B3
:100B7000400901D0306800E0706A97FAA7F1B1FA35
:100B800081F101F01F0104FA01F10842E4D1287853
:100B9000DFF8D48280074FF0000A4FF0020730D50B
:100BA00070684FF0F80B10F00C0F07D07068C0F3AE
:100BB0008100022827D17068C00324D497FAA7F0D7
:100BC000B0FA80F040F02000400901D0306800E029
:100BD000706A97FAA7F1B1FA81F101F01F0104FAE6
:100BE00001F1084202D02869012877D130689BFAC8
:100BF000ABF220F0F8016869B2FA82F2904001434A
:100C000031605AE064E1286988B394FAA4F0B0FA3C
:100C100080F048F82040FFF785FC814606E000BFE1
:100C2000FFF780FCA0EB090002289AD897FAA7F0FA
:100C3000B0FA80F040F02000400901D0306800E0B8
:100C4000706A97FAA7F1B1FA81F101F01F0104FA75
:100C500001F10842E4D030689BFAABF26969B2FA5C
:100C600082F220F0F80091400843306025E0FFE771
:100C700094FAA4F0B0FA80F048F820A0FFF752FCF4
:100C8000814605E0FFF74EFCA0EB09000228CCD816
:100C900097FAA7F0B0FA80F040F02000400901D0A8
:100CA000306800E0706A97FAA7F1B1FA81F101F0BB
:100CB0001F0104FA01F10842E4D1287800076CD53D
:100CC000A869A8B394FAA4F0B0FA80F008EB800009
:100CD000C0F88044FFF726FC814607E0A4E100BF8E
:100CE000FFF720FCA0EB090002289ED897FAA7F096
:100CF000B0FA80F040F06000B4EB501F01D13068D2
:100D00000BE097FAA7F0B0FA80F040F06000B7EB84
:100D1000501F01D1306A00E0706A97FAA7F1B1FA6A
:100D200081F101F01F0104FA01F21042D8D034E041
:100D3000FFE794FAA4F1B1FA81F108EB8101C1F85F
:100D400080A4FFF7EFFB814606E000BFFFF7EAFB58
:100D5000A0EB090002289AD897FAA7F0B0FA80F021
:100D600040F06000B4EB501F01D130680BE097FAFF
:100D7000A7F0B0FA80F040F06000B7EB501F01D14F
:100D8000306A00E0706A97FAA7F1B1FA81F101F0D8
:100D90001F0104FA01F21042D8D12878400768D523
:100DA000F0694FF00009C00009D4F06940F08050AC
:100DB000F061F0694FF0010900F0805000902B487D
:100DC0000168C90512D4016841F480710160FFF720
:100DD000A9FB834606E000BFFFF7A4FBA0EB0B00D6
:100DE000642875D821480068C005F5D5E868012851
:100DF0000AD008B1052811D0306A20F00100306215
:100E0000306A20F0040002E0306A40F001003062F5
:100E1000E86868B3FFF786FB83460DE0306A40F070
:100E200004003062F0E700BFFFF77CFBA0EB0B0192
:100E300041F2883081424BD897FAA7F0B0FA80F09F
:100E400040F04000B4EB501F01D1306813E097FA36
:100E5000A7F0B0FA80F040F04000B7EB501F09D186
:100E6000306A08E00010024000004242007000407A
:100E70000CE040E0706A97FAA7F1B1FA81F101F055
:100E80001F0104FA01F21042CED02DE0FFF74AFB19
:100E9000834607E0FFF746FBA0EB0B0141F28830E9
:100EA000814215D897FAA7F0B0FA80F040F04000E0
:100EB000B4EB501F01D130680CE097FAA7F0B0FAFC
:100EC00080F040F04000B7EB501F02D1306A01E0E3
:100ED00083E0706A97FAA7F1B1FA81F101F01F017E
:100EE00004FA01F21042D5D1B9F1000F03D0F06934
:100EF00020F08050F061E86980B37168C1F381012E
:100F0000022977D04FF080714F000228504609D057
:100F100091FAA1F1B1FA81F148F82100FFF702FB43
:100F200005465DE0894691FAA1F1B1FA81F1C24628
:100F300048F82100FFF7F6FA804605E0FFF7F2FADD
:100F4000A0EB0800022848D897FAA7F0B0FA80F082
:100F500040F02000400902D0306801E066E0706A8D
:100F600097FAA7F1B1FA81F101F01F0104FA01F13A
:100F70000842E3D1D5E908100843716821F47411DF
:100F80000843706099FAA9F0B0FA80F04AF820405E
:100F9000FFF7C8FA054604E0FFF7C4FA401B022831
:100FA0001BD897FAA7F0B0FA80F040F02000400973
:100FB00001D0306800E0706A97FAA7F1B1FA81F1C8
:100FC00001F01F0104FA01F10842E5D02EE000BF54
:100FD000FFF7A8FA401B022802D90320BDE8F88FCA
:100FE00097FAA7F0B0FA80F040F02000400902D054
:100FF000306801E00BE0706A97FAA7F1B1FA81F16D
:1010000001F01F0104FA01F10842E1D10EE00128CC
:10101000E4D070682A6A00F48031914204D1696A90
:1010200000F47010884201D00120D7E70020D5E7F6
:1010300070B5040002D0607F10B106E0012070BDE1
:1010400000202077204600F049F8022060772168D0
:10105000CA204862216853204862204600F0CCFF35
:10106000FF25042618BB206881681B4A1140816057
:101070002168886862681043D4E904231A43104346
:1010800088602168E068086120680169228941EA76
:10109000024101612068C16821F08001C1602068BF
:1010A0008068800607D4204600F006F918B1206851
:1010B00045626677C2E72068016C21F480210164F3
:1010C0002068016CA2691143016420684562012017
:1010D0006077002070BD0000BFFF8FFF00680749E8
:1010E00088420AD10120C10391FAA1F1044AB1FA60
:1010F00081F102EB8101C1F8000470470028004033
:10110000000042422DE9F0470446007F0B460128CB
:101110001FD04FF0010984F81C9002206077DAB1EB
:101120009878D97840EA014558781978000240EA61
:10113000413005432168CA20486221685320486233
:10114000204600F059FF0026FF274FF0040860BB3F
:101150001AE00220BDE8F0875878C10603D500F0F8
:10116000EF000A305870D87800F03BFF020458783E
:1011700000F037FF42EA0022987800F032FF024385
:10118000187842EA4035D5E70F48054020684560A9
:101190002068C16821F08001C160206880688006F5
:1011A0000AD4204600F088F830B12068476284F8FD
:1011B0001D8026770120CDE72068476284F81D90C6
:1011C00026770020C6E700003FFFFF002DE9F0472B
:1011D0000446007F0D46012827D04FF0010A84F80D
:1011E0001CA0022060772068002680684FEA4060DB
:1011F000F2B1002800DBEE70A878297840EA0147B8
:101200006878E978000240EA014007432168CA2073
:101210004862216853204862204600F0EDFE4FF0FE
:10122000FF084FF00409A0BB16E00220BDE8F087DC
:10123000002800DBEE70287800F0D3FE0204687806
:1012400000F0CFFE42EA0022A87800F0CAFE024376
:10125000E87842EA0047D9E7164807402068076067
:101260002068816821F480218160D5E90301084369
:1012700021688A68104388602068C16821F0800175
:10128000C1602068806880060BD4204600F014F806
:1012900038B12168C1F8248084F81D902677012098
:1012A000C4E72168C1F8248084F81DA026770020B7
:1012B000BCE700007F7F7F0070B504460068C1680E
:1012C00021F0A001C160FFF72DF905464FF47A76B1
:1012D00007E000BFFFF726F9401BB04201D9032009
:1012E00070BD2068C0688006F4D5002070BD10B5C0
:1012F000401EB0F1807F01D3012010BD4FF0E024EB
:1013000060610F21601701F074F90020A0610720CF
:101310002061002010BD704770477047F0B590F80D
:101320003C20012A29D0012480F83C40022280F888
:101330003D2003685A689D68114EB34203D122F4E0
:1013400070074A683A4322F070070A683A435A60C5
:101350000268B24205D0B2F1804F02D0094B9A42E6
:1013600004D1896825F080031943916080F83D40DD
:10137000002180F83C100846F0BD0220F0BD0000BE
:10138000002C01400040014010B5040003D094F847
:101390003D0010B107E0012010BD002084F83C00A2
:1013A000204600F00DF8022084F83D00211D206841
:1013B00000F0BAFE012084F83D00002010BD0000BE
:1013C00010B586B0044614216846FEF743FF3F4A35
:1013D00021683F4891421ED1816941F400618161D9
:1013E0008069002200F40060059011461820FFF784
:1013F000FDF81820FFF7ECF8002211461920FFF73E
:10140000F5F81920FFF7E4F8002211461B20FFF73A
:10141000EDF81B2013E0B1F1804F14D02D4A91421A
:1014200030D1C16941F01001C161C069002200F0F2
:101430001000059011463620FFF7D8F83620FFF748
:10144000C7F806B010BDC16941F00101C161C169B1
:1014500001F001010591416941F4003141614069A8
:10146000694600F400300590202000900220019091
:10147000002002900390012004904FF09040FEF76E
:1014800075FFDEE7144A91420ED1816941F4803143
:1014900081618069002200F4803005901146182097
:1014A000FFF7A4F81820CAE70C4A9142C9D1816914
:1014B00041F4003181618069002200F40030059020
:1014C00011461920FFF792F81920B8E7002C0140C7
:1014D0000010024000100040004001400044014064
:1014E0000168CA6842F00102CA6001688868064A59
:1014F0001040062806D0B0F5803F03D0086840F0C1
:1015000001000860002070470700010070B5044624
:1015100090F83C00012817D0012584F83C500220A7
:1015200084F83D00226890682E4B184020F47F40DC
:1015300090600868502830D00DDC20284DD005DCA4
:1015400098B310283BD148E0022070BD302844D029
:10155000402834D139E0602828D0702806D0B0F572
:10156000805F2CD0B0F5005F29D10AE0CB68D1E9CB
:101570000121206800F014FE2068816841F07701A5
:1015800009E0CB68D1E90121206800F009FE20685C
:10159000816841F48041816011E0CA68496820682F
:1015A00000F010FE5021206807E016E0CA68496884
:1015B000206800F041FE6021206800F0FBFD84F807
:1015C0003D50002084F83C0070BDCA68496820681E
:1015D00000F0F8FD40212068EFE722680146104640
:1015E000EBE7000088FFFEFF704700002DE9F041A7
:1015F000044690F83C000D4601283DD0012684F8B1
:101600003C60022084F83D00AAB3042A46D020683A
:10161000082A55D0D5E90027E968036A23F48053E6
:101620000362D0F81CC0036A2CF4407C4CEA072704
:101630004FF6FF7C27F470470CEA013139434FF431
:10164000204723F4204307EA02321A43C1610262B1
:101650002068C16921F44061C1612068C169AA683C
:1016600041EA0221C0F81C1084F83D60002084F893
:101670003C00BDE8F08101E00220FAE7D5E9001264
:10168000EB68206800F0B0FD2068816921F00C0152
:10169000816120688169AA6811430FE0D5E90012D1
:1016A000EB68206800F0DAFD2068816921F4406170
:1016B000816120688169AA6841EA02218161D3E7DA
:1016C000D5E9002C2F7B016A21F480710162C16988
:1016D000036A21F0030141EA0C0121F0F00C390703
:1016E0004FF420674CEA116123F4206307EA0222D9
:1016F0001A43C16102622068C16921F00C01C16115
:101700002068C169AA681143ACE710B5040003D092
:1017100094F83D0010B107E0012010BD002084F8CE
:101720003C00204600F00CF8022084F83D00211D0A
:10173000206800F0F9FC012084F83D00002010BD75
:10174000704770B50446006801694FF00005C94351
:10175000890715D4C168C943890711D4E91E0161FD
:1017600001202077206880698007204602D0FFF79B
:101770003BFF04E000F0A7F8204600F0A5F825772D
:1017800020680169C943490717D4C168C94349079B
:1017900013D46FF004010161022020772068806972
:1017A00010F4407F204602D0FFF71EFF04E000F057
:1017B0008AF8204600F088F8257720680169C94337
:1017C000090716D4C168C943090712D46FF008018C
:1017D0000161042020772068C0698007204602D07C
:1017E000FFF702FF04E000F06EF8204600F06CF80E
:1017F000257720680169C943C90617D4C168C94360
:10180000C90613D46FF01001016108202077206809
:10181000C06910F4407F204602D0FFF7E5FE04E0E7
:1018200000F051F8204600F04FF825772068016954
:10183000C943C90708D1C168C943C90704D1891E72
:101840000161204600F042F820680169C943090699
:1018500009D4C168C943090605D46FF0800101614C
:101860002046FFF759FD20680169C943C90509D41D
:10187000C168C943090605D46FF48071016120462F
:10188000FFF749FD20680169C943490609D4C168C9
:10189000C943490605D46FF040010161204600F0BC
:1018A000C5F820680169C94389060BD4C168C943DA
:1018B000890607D46FF0200101612046BDE8704021
:1018C000FFF72BBD70BD7047704700002DE9F04158
:1018D000064600683F4900253F4C884223D1E088F6
:1018E000032801D8012000E00020E188022901D36B
:1018F000012100E00021084203D0C823172237A1AC
:101900000DE0E088032801D9012000E00020E188F3
:1019100001B10121084205D0C823182235A13C4855
:1019200000F0A8F9E5803B493068884244D13A4F3D
:1019300004213846FEF7ECFD012800D00020218864
:10194000C1B1002108424FF001060BD104213846F5
:10195000FEF7DEFD80B100202188012900D00021A2
:1019600008421FD004213846FEF7D2FD012805D0D9
:10197000A58020E00121E5E70120EDE76088B0F5D2
:101980007A7F0DD2E08840B9124834300560C82310
:101990000F2222A11E4800F06DF9E088401CE08073
:1019A000658015E004213846FEF7B2FD012805D018
:1019B0006088401C60802580BDE8F081A088401CC4
:1019C000A080A08842F21071884201D3481EA080F6
:1019D0002680F1E700440140000000205370696E4A
:1019E0006E696E67206D6F746F7220666F727761BB
:1019F00072640A005370696E6E696E67206D6F7451
:101A00006F72206261636B776172640A000000008C
:101A10007801002000400140000800484D6F746FBD
:101A2000722069732072656164790A00704770479B
:101A3000704700002DE9F04102680446D069116842
:101A4000936840F60F0528424FF0000505D1860641
:101A50007BD58E0679D5216E88E003F0010601F46E
:101A60009077374371D0C70707D0CF0505D5012739
:101A70001762E26F42F00102E267820708D5DA07D7
:101A800006D0276802223A62E26F42F00402E2675F
:101A9000420708D5DA0706D0236804221A62E26FEB
:101AA00042F00202E26702070AD501F02002324347
:101AB00006D0236808221A62E26F42F00802E26749
:101AC000020509D54A0107D523684FF400621A625E
:101AD000E26F42F02002E267E26F002A2ED0800619
:101AE00005D5880603D5216E09B120468847E06FE9
:101AF00021688968490602D410F0280F20D02046BA
:101B000000F061FC20688168490614D5816821F0E5
:101B100040018160E06E70B11D494163E06EFEF7E7
:101B2000CDFB00280AD0E06E416B00E02046BDE806
:101B3000F041084709E02046FFF77AFFBDE8F08151
:101B40002046FFF775FFE567F8E7C60209D55B0297
:101B500007D54FF4801010622046BDE8F041FFF732
:101B600066BF030605D50B0603D5616E0029DDD1DE
:101B7000E4E74006E2D54806E0D51168204621F0AA
:101B80004001116020216167656600F0CDF8D5E75E
:101B9000B323000810B5040002D0606F10B107E055
:101BA000012010BD002084F87000204600F026F8C7
:101BB000242060672068016821F00101016020464F
:101BC00000F010FC0128ECD0606A10B1204600F053
:101BD00060FB2068416821F4904141602068816881
:101BE00021F02A0181602068016841F00101016053
:101BF0002046BDE8104000F0B0BB000010B586B034
:101C0000044614216846FEF725FB174920688842E0
:101C100027D11648C16941F48021C161C16901F42D
:101C200080210591416941F4802141614069694603
:101C300000F4802005904FF4407000900220019045
:101C40000020029003200390072004900848FEF72C
:101C50008DFB002211462720FEF7C8FC2720FEF747
:101C6000B7FC06B010BD0000004800400010024064
:101C7000000400482DE9F8430446406F1F4616460D
:101C80000D4620284ED1CDB1C6B194F87000012880
:101C900048D0012084F870004FF00008C4F87C8020
:101CA00021206067FEF73EFCA4F850608146A4F84E
:101CB0005260A068B0F5805F03D004E00120BDE869
:101CC000F883206910B12E46002510E000260EE0B2
:101CD0008021204600F034FCB8B9C6B116F8010BDB
:101CE00021680885B4F85200401EA4F85200B4F8E8
:101CF00052004B464FF0000200970028E8D14FF009
:101D00004001204600F01CFC30B10320D7E735F835
:101D1000020BC0F30800E3E72020606784F87080BE
:101D20000020CCE70220CAE77047FEE72DE9F04328
:101D300087B014216846FEF78DFA3748416941F4AF
:101D400000214161416901F400210591416941F49B
:101D500080014161416901F480010591416941F4CB
:101D600000314161416901F400310591416941F45B
:101D7000802141614069DFF8A48000F480204FF4A5
:101D800080570590002239464046FEF7C6FBDFF833
:101D90009090012240214846FEF7BFFB00223911F6
:101DA0004846FEF7BAFB0420002402258DE83100E6
:101DB00069464846FEF7DAFA0620009019480126DF
:101DC000CDE9010669464046FEF7D0FACDE9025456
:101DD000CDE9007669464046FEF7C8FA4FF4A07098
:101DE000CDE90006CDE9025469464846FEF7BEFA41
:101DF000002211460720FEF7F9FB0720FEF7E8FB5B
:101E0000002211460820FEF7F1FB0820FEF7E0FB58
:101E100007B0BDE8F0830000001002400004004855
:101E2000000800480000211010B586B01421684653
:101E3000FEF710FA1648002414490594C0E900146E
:101E40007F218160FF21C0E9031444618461FFF7B1
:101E5000EFF88DF800408DF801408DF802400394B2
:101E6000012269460A480494FFF7B0F901208DF871
:101E700014008DF815008DF8160002468DF81740F5
:101E800005A90348FFF73EF906B010BD0028004041
:101E90001800002010B588B0002412480094019466
:101EA00002940394049405940D490694C0E9001427
:101EB0004FF6FF71C0E90241046144618461FFF79C
:101EC00063FA4FF48050009069460648FFF71EFB06
:101ED000049404A903480694FFF720FA08B010BD43
:101EE00000400140F800002010B588B000241348DD
:101EF0000594069403940494009401940E4902946A
:101F0000C0E900144FF6FF71C0E902410461446169
:101F10008461FFF739FA4FF48050039003A9074812
:101F2000FFF7F4FA00940194694604480294FFF71D
:101F3000F5F908B010BD0000002C01403800002069
:101F400010B58CB0002405941848049406940794A6
:101F500008940A9409940094019402944FF08041EB
:101F60000394C0E90014611EC0E902410461846168
:101F7000FFF70AFA4FF48050049004A90B48FFF7CA
:101F8000C5FA0A48FFF7C1FB089408A907480A9454
:101F9000FFF7C4F90120CDE9004002940022694610
:101FA00002480394FFF722FB0CB010BD780000201C
:101FB0000948084901604FF4E13141600021816026
:101FC0000C22C160C0E904128161C16101624162F9
:101FD000FFF7E0BD0048004078010020FEE77047B1
:101FE0007047002102E00A38C0B2491C0A28FAD220
:101FF000090740EA1160704770B504460068C1687F
:10200000490614D44FF0FF31C160FEF78BFA054644
:102010004FF47A7607E000BFFEF784FA401BB04227
:1020200001D9032070BD2068C0684006F4D50020A7
:1020300070BD7047FEF77CBA30B59DB02821684668
:10204000FEF708F9142117A8FEF704F934210AA8AD
:10205000FEF700F9FEF7FCFA1748016A21F01801B3
:1020600001620121052000240090CDE902414FF4D6
:102070008030019002250491CDE907504FF4E01023
:1020800009906846FEF7F0FC0F20CDE917056802BD
:10209000CDE91940022117A81B94FEF7DBFB4FF492
:1020A00051200A90E8010B901294139414940AA8FA
:1020B000FEF7D6FA1DB030BD001002400548016899
:1020C00041F47001016003494FF0006080390860FD
:1020D0007047000088ED00E010B50448FFF731FBC1
:1020E000BDE810400248FFF72CBB0000380000207C
:1020F000F80000200148FFF724BB00003800002052
:1021000010B50448FFF71DFBBDE810400248FFF77B
:1021100018BB000038000020380100200148FFF7FC
:1021200010BB0000B8000020F0B50268184B4FF05B
:102130008047984201D0B84203D122F070044A6827
:102140002243144C144D154E984207D0B84205D086
:10215000A04203D0A84201D0B04203D122F440777C
:10216000CA683A434F6922F080023A4302608A68A3
:10217000C2620A688262984205D0A04203D0A84297
:1021800001D0B04201D10969016301214161F0BD73
:10219000002C014000400140004401400048014043
:1021A00010B5846842EA032224F47F440A432243A0
:1021B000826010BD826822F070020A4342F007017B
:1021C0008160704710B5036A046A24F00104046258
:1021D000846924F0F00444EA021423F00A020A435A
:1021E0008461026210BD000070B5046A24F001042D
:1021F00004628469056A0E4EB04205D0B0F1804F8A
:1022000002D00C4EB04203D124F00304144301E089
:1022100044F001041A0724F0F00444EA126225F0A5
:102220000A0301F00A0119438261016270BD0000D6
:10223000002C01400040014010B5036A23F0100358
:1022400003628369046A23F4704343EA023224F090
:10225000A00343EA01118261016210BD30B5046A36
:1022600024F0100404628469056A24F4407444EA8A
:10227000022222F470444FF6FF7202EA0332224334
:10228000A02425F0A00304EA011119438261016230
:1022900030BD90F82410C90706D001684A68836AE7
:1022A00022F400321A434A6090F82410890706D5B8
:1022B00001684A68C36A22F480321A434A6090F87F
:1022C0002410490706D501684A68036B22F480226E
:1022D0001A434A6090F82410090706D501684A6835
:1022E000436B22F400421A434A6090F82410C90656
:1022F00006D501688A68836B22F480521A438A608B
:1023000090F82410890606D501688A68C36B22F408
:1023100000521A438A6090F82410490611D50168CA
:102320004A68036C22F480121A434A60016CB1F5CA
:10233000801F06D101684A68436C22F4C0021A4328
:102340004A6090F82410090606D501684A68806C36
:1023500022F4002202434A607047F8B50026044682
:10236000C667FEF7DFF80546206800686FF07E4715
:10237000000708D52B4600224FF400112046009795
:1023800000F0DEF860B92068006840070AD52B46E7
:1023900000224FF480012046009700F0D1F808B1E8
:1023A0000320F8BD20206067A06784F870600020DB
:1023B000F8BD10B5406A0021A0F85A10A0F85210DC
:1023C000FFF736FB10BD01680A6822F490720A60BC
:1023D00001688A6822F001028A6020218167002159
:1023E0000166704770B5044680682169E269084358
:1023F000616900251143226808431168494B19405F
:102400000143116020684168E26821F440511143A2
:102410004160A169206A084321688A6822F4306219
:1024200002438A6040492068884210D13F48006BCF
:1024300010F0030014D0012805D0022805D003288D
:102440000DD102200CE004200AE0082008E0384901
:10245000884202D03749884201D1002000E0102094
:10246000E2694FF400414FF6EF768A422CD10928F9
:1024700051D2DFE800F005081F50225050502500CF
:10248000FEF78CFA01E0FEF7A1FA4100D4F804004F
:1024900001EB5001B1FBF0F080B2A0F11001B142AC
:1024A00039D84FF6F0710140C0F342000143206873
:1024B000C16031E020496068EAE7FEF79FFAE4E78F
:1024C0004FF480316068E3E7092824D2DFE800F0A8
:1024D000050817231A2323231D00FEF75FFA01E0E6
:1024E000FEF774FA616800EB5100B0FBF1F080B2C6
:1024F000A0F11001B1420ED82168C8600CE00F496C
:10250000606803E0FEF77AFAECE7606801EB5001DF
:10251000B1FBF0F0EBE7012500202066606628465D
:1025200070BD0000F369FFEF003801400010024069
:1025300000440040004800400024F40000127A00EB
:102540002DE9F0479A4617460E4604464FF000091B
:102550004FF02008089D39E0681C37D0FDF7E2FFF6
:10256000A0EB0A00A84222D80DB3206801684907F1
:102570002CD5C069C043000528D421684FF4006001
:1025800008622068016821F4D071016020688168C8
:1025900021F001018160C4F87480C4F87880C4F827
:1025A0007C8000BF84F870900320BDE8F08720682D
:1025B000016821F4D07101602068816821F0010177
:1025C0008160C4F87480C4F87880EBE72068C06943
:1025D00036EA000004D00020B842BDD00020E4E775
:1025E0000120F9E70148FFF725BA00007801002033
:1025F000FEE70907090E002804DB00F1E02080F85F
:102600000014704700F00F0000F1E02080F8141D66
:10261000704702E008C8121F08C1002AFAD17047AB
:102620007047002001E001C1121F002AFBD1704752
:102630000EB5FDF785FFFFF7FFFCFFF777FBFFF710
:1026400053FCFFF7B5FCFFF7EFFBFFF779FC002425
:102650001C48009401941A49029401604FF4E1511E
:10266000C0E901144FF6FF718461C160FEF78CFE72
:102670000094694613480294FEF750FEFFF70AFCE7
:10268000104811498030016041F61F41C0E9011432
:1026900042F21071C0E9031444618461FEF774FED4
:1026A0000720FDF795FF0820FDF792FF0548403011
:1026B000FEF716FF03488030FEF712FFFEE700002A
:1026C00000100040B800002000440140020304054F
:1026D000060708090A0B0C0D0E0F10100102030467
:1026E00005060708090A0B0C0D0E0F10000000006C
:1026F00000000000010203040607080900000000B2
:102700000102030424270008000000201800000034
:10271000122600083C27000818000020E0050000F1
:102720002226000801000000000000000100000057
:0C273000100000000000000000127A0001
:040000050800018965
:00000001FF
