:020000040800F2
:1000000038090020290200083102000833020008E4
:10001000350200083702000839020008000000001D
:100020000000000000000000000000003B0200088B
:100030003D020008000000003F020008D53800081B
:10004000430200084302000843020008430200087C
:10005000430200084302000843020008430200086C
:10006000430200084302000843020008430200085C
:10007000430200084302000843020008430200084C
:100080004302000843020008F90300084302000885
:10009000430200084302000843020008430200082C
:1000A000D539000843020008430200084302000853
:1000B00043020008000000000000000043020008A6
:1000C0004302000843020008430200080000000049
:1000D0004302000843020008D5410008430200081B
:1000E0005D0700084302000843020008000000000A
:1000F0000000000000000000000000000000000000
:1001000000000000000000000000000043020008A2
:100110000000000000000000013A0008000000009C
:1001200000000000000000000000000000000000CF
:1001300000000000000000000000000000000000BF
:100140004302000843020008000000000000000015
:10015000000000000000000000000000000000009F
:10016000430200084302000843020008430200085B
:100170004302000800000000000000000000000032
:10018000000000004302000800F002F800F03CF814
:100190000AA090E8000C82448344AAF10107DA45E2
:1001A00001D100F031F8AFF2090EBAE80F0013F0F8
:1001B000010F18BFFB1A43F0010318478C400000E1
:1001C000AC400000103A24BF78C878C1FAD8520772
:1001D00024BF30C830C144BF04680C6070470000C1
:1001E0000023002400250026103A28BF78C1FBD840
:1001F000520728BF30C148BF0B6070471FB504F0DD
:1002000002F81FBD10B510BD00F0BBF81146FFF796
:10021000F5FF03F0E5FF00F0D9F803B4FFF7F2FFB4
:1002200003BC00F0E1F80000094880470948004796
:10023000FEE7FEE7FEE7FEE7FEE7FEE7FEE7FEE796
:10024000FEE7FEE704480549054A064B70470000F3
:100250006D390008890100083803002038090020A2
:10026000380500203805002053EA020C00F06980B0
:100270002DE9F04B4FF00006002B1FBFB3FA83F5BA
:1002800003FA05F424FA05F65E4012BF1643B2FAEB
:1002900082F502FA05F4C5F120051EBF22FA05FC1D
:1002A00044EA0C04203556EA044C4FEA144418BFC3
:1002B000641C4FF000084FF00009904271EB030CF2
:1002C00039D3002919BFB1FA81F701FA07F6B0FA5C
:1002D00080F700FA07F6C7F120071EBF20FA07FCD7
:1002E00046EA0C062037B6FBF4FCA7EB0507103FE7
:1002F00007F01F0BCBF120060CFA0BFB2CFA06F6CD
:1003000044BFB3460026202FA4BF5E464FF0000B2B
:100310005BEA060C08BF4FF0010B19EB0B09ABFBB6
:10032000027C48EB0608C01B06FB02CC0BFB03CC8F
:1003300071EB0C01C1E70B46024641464846BDE859
:10034000F08B13B54FF000004FF00001AFF30080C9
:10035000BDE81C407047B2F120030AD5C2F120036A
:1003600001FA02F120FA03F300FA02F041EA030174
:10037000704700FA03F14FF0000070477047704774
:100380007047754600F02CF8AE46050069465346A6
:1003900020F00700854618B020B5FFF753FFBDE8F1
:1003A00020404FF000064FF000074FF000084FF0DC
:1003B000000B21F00701AC46ACE8C009ACE8C0096D
:1003C000ACE8C009ACE8C0098D46704710B50446DA
:1003D000AFF300802046BDE81040FFF71EBF0000CD
:1003E00000487047D802002001491820ABBEFEE744
:1003F0002600020070470000014800F053BB0000D7
:100400007000002070B5044600680022836813F075
:100410000C0F50D0C3689B0105D5E369012B02D1B5
:10042000A369012B22D060290CD020688268520772
:1004300006D58268920703D4826842F01002826077
:100440000C290ED020688268120706D582689207B0
:1004500003D4826842F020028260602915D06C29A2
:1004600011D0042500F0A4FE064620E00C21134B19
:1004700002E09A4211D2521C0568ED436D06F8D491
:1004800040220260D1E70C25ECE70825EAE700BF2F
:1004900000F08EFE801B0B2809D9606C40F0100024
:1004A0006064A06C40F00100A064012070BD206871
:1004B00080682842ECD1002070BD00000094090043
:1004C00070B504460068816801F00301012926D156
:1004D0000168C90723D0816801F00D01012910D1FD
:1004E000816841F00201816021680320086000F00A
:1004F0005FFE05460FE000BF00F05AFE401B0228D9
:1005000009D9606C40F010006064A06C40F00100FC
:10051000A064012070BD20688068C007ECD1002075
:1005200070BD000070B504460068816801F00301E9
:10053000012902D10168C90720D18168104A1142FE
:100540000DD1816841F00101816000F031FE054666
:100550000FE000BF00F02CFE401B022809D9606CA0
:1005600040F010006064A06C40F00100A064012025
:1005700070BD20680068C043C007EBD1002070BD8B
:100580003F0000802DE9F04F724802270326B0F9A2
:100590000010714804250524062307220029B0F91C
:1005A00076006D494FF0010C4FF008094FF0090A31
:1005B0004FF00A0B4FF00B0E77DBA0F51C58A8F19B
:1005C0001108B8F5FA6F03D2A1F872C0BDE8F08F38
:1005D000A0F5F05CACF1790C40F69708C44502D860
:1005E000A1F87270F2E76FF4C8570744B7F5AF6F20
:1005F00003D200BFA1F87260E8E7A0F5A856193E43
:10060000B6F57A7F03D200BFA1F87250DEE7A0F5FD
:1006100090552B3D40F2ED26B54202D8A1F872402C
:10062000D4E7A0F58054053C40F22525AC4202D821
:10063000A1F87230CAE7A0F64363B3F5E17F02D2B6
:10064000A1F87220C2E7A0F6E542B2F5AF7F02D270
:10065000A1F87290BAE7A0F62922B2F52F7F02D254
:10066000A1F872A0B2E7A0F20972B2F5487F02D2F7
:10067000A1F872B0AAE7A0F2DD524FF496739A4245
:1006800003D200BFA1F872E0A0E7A0F21552C72A7A
:1006900051D9A0F2E9329A4253D3A0F2F51054E0B6
:1006A00003E000BFA1F8720090E742F6E0688044E2
:1006B000B8F5FA6F88D342F2107C844440F698086B
:1006C000C4458DD341F678670744B7F5AF6F91D332
:1006D00000F5C856B6F57A7F96D341F21855054411
:1006E00040F2EE26B54299D341F22A24044440F266
:1006F0002625AC429CD341F204030344B3F5E17FC9
:100700009ED300F64262B2F5AF7FA1D300F6E44279
:1007100040F28A239A42A3D300F62822B2F5487FFA
:10072000A6D300F5E1624FF496739A42AAD300F281
:10073000DC52C82A01D20C20B4E700F214529A42CB
:1007400001D20D20AEE700F57A70B0F5FA7F89D2BC
:100750000E20A7E7B8020020F40100204FF400505B
:1007600000F050BC7047704770477047F0B595B0C7
:100770000025009590F840202E46012A19D0012727
:1007800080F8407003689A6852077DD44A681F2435
:10079000052A11D2D3F830C002EB42025200944035
:1007A0002CEA040C0C6894404CEA040CC3F830C0EA
:1007B00035E0022015B0F0BD0A2A0FD2D3F834C0BC
:1007C000521F02EB4202520094402CEA040C0C68C7
:1007D00094404CEA040CC3F834C020E00F2A0FD236
:1007E000D3F838C00A3A02EB4202520094402CEA95
:1007F000040C0C6894404CEA040CC3F838C00EE0BA
:10080000D3F83CC00F3A02EB4202520094402CEA6B
:10081000040C0C6894404CEA040CC3F83CC0026819
:10082000936813F00C0F4FF0070373D10C680A2C78
:1008300011D3D2F818C00A3C04EB440403FA04FEB6
:100840002CEA0E0CD1F808E00EFA04FE4CEA0E0C6D
:10085000C2F818C00FE0D2F814C004EB440403FA45
:1008600004FE2CEA0E0CD1F808E00EFA04FE4CEA65
:100870000E0CC2F814C002684C69D2F80CC0CCF35C
:10088000C10C4FEA4C0C00E0CDE004FA0CF4D1F8B6
:1008900010E0DFF8F4C1BEF1010F42D0BEF1020F4B
:1008A0004DD0BEF1030F58D0BEF1040F63D0146ECB
:1008B00091F800C004F0F844B4EB8C6F03D1146ECF
:1008C00024F0004414660268546E91F800C004F0ED
:1008D000F844B4EB8C6F03D1546E24F0004454669A
:1008E0000268946E91F800C004F0F844B4EB8C6F89
:1008F00003D1946E24F0004494660268D46E91F89B
:1009000000C004F0F844B4EB8C6F03D1D46E24F033
:100910000044D4660268946804F00304012C3AD1C0
:1009200036E0D2F860E00EEA0C0E91F800C044EA1E
:100930008C644EEA040E4EF000441466EAE7D2F8E6
:1009400064E00EEA0C0E91F800C044EA8C644EEAB2
:10095000040E4EF000445466DCE7D2F868E00EEA7C
:100960000C0E91F800C044EA8C644EEA040E4EF07E
:1009700000449466CEE7D2F86CE00EEA0C0E91F8D3
:1009800000C044EA8C644EEA040E4EF00044C0E716
:100990001468E4074CD1CC68012C06D052F8B03F63
:1009A0000C78A740BB43136020E052F8B04F91F899
:1009B00000C007FA0CF73C4314600A6804680A2A6E
:1009C0000AD3A769093A02EB420293409F438B681E
:1009D00093401F43A76109E06769521C02EB420282
:1009E00093409F438B6893401F4367610968274A80
:1009F000102904D0112905D0122906D018E09368D7
:100A00001B0204E09368DB0101E093685B02002BAA
:100A10000EDB009603689C6804F00304012C0BD1E4
:100A20001C68E40708D0416C41F0200141640125B5
:100A300080F840602846BDE64FF0A044102908D059
:100A400011291AD01229F3D1916841F480019160E3
:100A5000EEE7A342ECD1916841F4000191600C49AA
:100A60000C4A0968B1FBF2F101EB8101490000E099
:100A7000491E00910029FBD1DAE7A342D8D1916841
:100A800041F08071E3E7000000F0FF8300030050B5
:100A90006800002040420F0001F0C4BE70470068AB
:100AA000006C704710B5044600680168490702D51C
:100AB0004168490705D40168090734D54168090729
:100AC00031D5616CC90603D4616C41F40071616475
:100AD000C168C26812F4406F1FD189041DD4016837
:100AE00009071AD5816849070FD4416821F00C0124
:100AF0004160606C20F480706064606CC0040CD451
:100B0000606C40F00100606407E0606C40F0100031
:100B10006064A06C40F00100A0642046FFF7BCFFB9
:100B200021680C20086020680168890602D54168A8
:100B3000890605D4016849063AD54168490637D582
:100B4000616C41F400516164C168C26C12F0C00F65
:100B500007D08A0126D4C26812F4406F22D18904DA
:100B600020D4016849061DD5C16889021AD481685C
:100B700009070FD4416821F060014160606C20F4E6
:100B800080506064606CC0050CD4606C40F0010063
:100B9000606407E0606C40F010006064A06C40F09E
:100BA0000100A0642046FFF7DDFD21686020086099
:100BB0002068016809060CD54068000609D5606CFC
:100BC00040F480306064204600F040F921688020C5
:100BD000086020680168C9050DD54068C0050AD5C0
:100BE000606C40F4003060642046FFF7BDFD216872
:100BF0004FF4807008602068016889050DD5406851
:100C000080050AD5606C40F4802060642046FFF7C0
:100C1000ACFD21684FF40070086021680868C006C8
:100C20001BD54868C00618D5A06B012807D0174807
:100C30008268D20627D0806800F4404050B1606CD2
:100C400040F480606064A06C40F00200A064204624
:100C5000FFF724FF2168102008602068016849051B
:100C600010D5416849050DD5616C41F4804161643E
:100C7000A16C41F00801A1644FF48061016020463D
:100C8000FFF771FD10BDC868C007D7E7000300502B
:100C9000F0B54FF0000695B0040037463546009693
:100CA00005D0606CC00648D4606C18B133E00120F8
:100CB00015B0F0BDA5642565E56484F84050204674
:100CC00000F0C6F820688068C00024D42046FFF7F2
:100CD000F7FB0646606CC0061DD4E6B9606C20F4D4
:100CE000885040F0020060642068816821F0405123
:100CF00081602068816841F0805181604E484F4991
:100D00000068B0FBF1F000EB8000400000E0401E06
:100D100000900028FBD120688168C90002D5806856
:100D200080000AD5606C20F0020040F01000606482
:100D3000A06C40F00100A0640126606CC00671D474
:100D4000002E6FD12168886840076BD4606C20F456
:100D5000807040F002006064009539488A6802F0B3
:100D60000302012A02D10968C90705D181686268B6
:100D700021F4403111438160D4E902100843A16B92
:100D8000012902D04FF4805200E00022E16942EADA
:100D900041321043626A3843012A0AD1A9B1616C19
:100DA00021F0020141F020016164A16C41F00101D8
:100DB000A164E16A012902D0226B11430843216832
:100DC0008A6812F00C0F08D012E0218D1D4A02EB48
:100DD0004141014341F48030EBE7CA6844F2020329
:100DE0009A43CA60A169626B890341EA42010843E0
:100DF0002168CA68144B1A400243CA60206901285E
:100E00002068016B21F00F0102D1226A521E1143AA
:100E10000163A564606C20F0020040F00100606492
:100E200007E0FFE7606C20F0020040F01000606413
:100E3000012630463CE700006800002040420F00D9
:100E4000000300500000FEFF07C0F0FF70470000E5
:100E500030B5006887B0B0F1A04F28D1154841697E
:100E600041F0805141614069032400F080500590B9
:100E70000E2000258DE8310069460F4800F0CEF8BD
:100E800082208DE8310069464FF0904000F0C6F8AE
:100E900001208DE831006946084800F0BFF80022C3
:100EA0001146122000F0FCF9122000F0EDF907B015
:100EB00030BD000000100240000800480004004857
:100EC00010B504460068806840074ED494F840008E
:100ED00001284AD0012084F840002046FFF722FB79
:100EE000002110B184F8401010BD626C40F601631F
:100EF0009A4342F480726264626C22F480126264EB
:100F00002268D3689B0105D5636C23F4005343F436
:100F100080536364636CDB0404D5A36C23F0060385
:100F2000A36400E0A16484F840101C211160616991
:100F3000082921684A6802D042F00C0206E022F03B
:100F400004024A6021684A6842F008024A60A16BC4
:100F5000012904D121684A6822F010024A60216800
:100F60008A6842F004028A6010BD022010BD10B5EC
:100F7000044690F84000012808D0012084F8400081
:100F80006C212046FFF73EFA10B110E0022010BDA0
:100F90002068416821F01C0141602046FFF790FA6B
:100FA00028B9616C21F4885141F00101616400218C
:100FB00084F8401010BD10B590F8211000240229CB
:100FC00003D004218163012418E001680A6822F03B
:100FD0000E020A6001680A6822F001020A6090F8B5
:100FE0004020C36B012101FA02F25A6080F82110FF
:100FF000002180F82010416B01B18847204610BDC8
:1010000001F098BC044910B50A68024202D0086099
:10101000FFF7F6FF10BD0000140401402DE9F84F62
:10102000DFF860B100234FF0010C4FF0030A4FF0DE
:101030000F090BF1040E9DE00CFA03F63440220078
:101040007ED04C68022C01D0122C0ED1DC0800EBB3
:101050008408D8F820405D07EF0E09FA07F5AC4385
:101060000D69BD402543C8F8205007685D0091F820
:1010700004800AFA05F408F00308A74308FA05F803
:1010800048EA0708C0F800804F68012F05D0022FFA
:1010900003D0112F01D0122F11D18768D1F80C8005
:1010A000A74308FA05F848EA0708C0F80880476827
:1010B000B7430E79C6F300169E403E434660C668AD
:1010C000A6438C68AC403443C4604C68E40050D5FF
:1010D0002D4CA56945F00105A561A46923F0030520
:1010E00004F001040094294C2E19B4689D072F0FB9
:1010F00009FA07F5AC43B0F1904F04D0244DA84253
:1011000003D101250CE000250AE0224DA84201D1BF
:10111000022505E0204DA84201D1032500E0052568
:10112000BD402543B560DBF800405D464E68944302
:10113000F60300D514432C607546DEF8004000E04D
:1011400017E04E689443B60300D514432C600D4D50
:1011500008352C684E689443F60200D514432C6081
:10116000084D0C352C684E689443B60200D51443E4
:101170002C605B1C0A681446DA407FF45DAFBDE862
:10118000F88F000000040140001002400000014000
:101190000004004800080048000C004842694A402A
:1011A000426170470AB181617047816270470000F7
:1011B00001480068704700006C0000200248016888
:1011C000491C0160704700006C000020074810B502
:1011D000016841F010010160032000F081F8022055
:1011E00000F006F800F018F8002010BD00200240C2
:1011F00010B5044607484FF47A710068B0FBF1F06F
:1012000000F08AFD00222146501E00F049F800201F
:1012100010BD0000680000201A4808B5816941F03F
:1012200001018161806900F001000090032000F05D
:1012300057F8002211466FF00B0000F031F8002241
:1012400011466FF00A0000F02BF8002211466FF0F3
:10125000090000F025F800221146501F00F020F888
:1012600000221146101F00F01BF800221146901EAC
:1012700000F016F800220221BDE80840C81E00F068
:101280000FB800000010024000F01F020121914041
:101290004009800000F1E020C0F800117047000014
:1012A000F0B40E4B1B680C46C3F30223C3F10705D1
:1012B000042D00D90425191D072901D2002300E0BF
:1012C000DB1E012606FA05F1491E214099409E4089
:1012D000761E16403143F0BC02F0ECBA0CED00E093
:1012E000064900F0070208684FF6FF03184040EA7D
:1012F0000220034A10430860704700000CED00E034
:101300000000FA052DE9F84F05460068774CC00348
:101310006FD5E0690026C00008D4E06940F0805035
:10132000E061E069012600F080500090704801689B
:10133000C90512D40168804641F480710160FFF74D
:1013400037FF074605E000BFFFF732FFC01B6428E8
:1013500035D8D8F80000C005F6D5206A10F44070E2
:1013600053D0A98801F4407181424ED0206A4FF4D5
:10137000803191FAA1F2B2FA82F297005D4A4FF001
:101380000108174420F44070C7F8008491FAA1F1D5
:10139000B1FA81F102EB81010023C1F8003420622F
:1013A000C00732D0FFF704FF074641F2883A4FF0FA
:1013B000020907E0FFF7FCFEC11B514502D90320DB
:1013C000BDE8F88F99FAA9F1B1FA81F141F0400135
:1013D0004846B8EB511F01D121680CE090FAA0F10A
:1013E000B1FA81F141F04001B0EB511F02D1216A05
:1013F00001E015E0616A99FAA9F0B0FA80F000F016
:101400001F0008FA00F21142D4D0206A696820F463
:101410004070084320621EB1E06920F08050E06116
:101420002878C00705D0206BA96820F00300084386
:1014300020632878800605D5206BE96820F010002D
:10144000084320632868800305D56068296B20F471
:101450008000084360602878400605D5206B296924
:1014600020F02000084320632888000405D5206B65
:10147000696920F04000084320632888800505D56D
:101480006068E96920F4000008436060287800067D
:1014900005D5E06AA96920F4F8700843E06228885D
:1014A000C00405D5206B296A20F4807008432063AE
:1014B0002868400305D5206B696A20F480600843E2
:1014C00020632868000305D5206BA96A20F400601A
:1014D000084320632868C00205D5206BE96A20F420
:1014E00000500843206300206AE70000001002401B
:1014F00000700040000042422DE9F047DFF87081A3
:1015000005460E46D8F8000000F00700B0420CD2A5
:10151000D8F8001021F007013143C8F80010D8F8BE
:10152000000000F00700B04277D12878514C8007C6
:1015300005D56068A96820F0F0000843606028784D
:10154000C00759D06968012001290DD0022929D08E
:101550005FF0020393FAA3F2B2FA82F242F02002A1
:10156000520904D0226803E04FF40033F2E7626AC4
:1015700093FAA3F3B3FA83F303F01F0398400242F4
:101580004BD0606820F0030008436060FFF710FE56
:101590006968074641F2883001290DD00229814649
:1015A00017D025E04FF00073D4E700BFFFF700FE2F
:1015B000C11B494501D918E081466068C0F381002C
:1015C0000128F3D118E000BFFFF7F2FDC11B494528
:1015D0000BD86068C0F381000228F5D10CE000BF91
:1015E000FFF7E6FDC11B494502D90320BDE8F0879E
:1015F000606810F00C0FF3D1D8F80010404601F0ED
:101600000701B1420BD9016821F0070131430160A4
:10161000006800F00700B04201D00120E6E728781A
:10162000400705D56068E96820F4E0600843606021
:101630002878000706D56068296920F4605040EAE0
:10164000C100606000F052F86168F02292FAA2F2E4
:1016500001F0F001B2FA82F2D140074A515CC84071
:10166000064908600220FFF7C3FD0020BEE7000026
:1016700000200240001002401042000868000020D4
:1016800001480068704700006800002008480949C8
:10169000006849684FF4E06292FAA2F201F4E06156
:1016A000B2FA82F2D140044A515CC840704700004F
:1016B0006800002000100240204200080848094944
:1016C000006849684FF4605292FAA2F201F4605146
:1016D000B2FA82F2D140044A515CC840704700001F
:1016E000680000200010024020420008144B10B592
:1016F0005A68144802F00C0104291DD008291BD196
:101700004FF4701494FAA4F402F47011B4FA84F44F
:10171000E1400D4CDB6A615C0F2494FAA4F403F001
:101720000F03B4FA84F4E340074C1034D203E35CB3
:1017300003D5B0FBF3F0484310BD0448484310BD47
:101740000010024000127A002842000800093D0003
:101750002DE9F84F05460078F74EC0074FF0010419
:1017600025D070686704C0F38100012807D0706835
:10177000C0F3810002281BD17068C00318D597FA06
:10178000A7F0B0FA80F040F02000400901D03068A6
:1017900000E0706A97FAA7F1B1FA81F101F01F0138
:1017A00004FA01F1084264D0686800287DD060E046
:1017B0006868B0F5803F0BD010B1B0F5A02F17D0FE
:1017C000306820F480303060306820F4802002E0FF
:1017D000306840F480303060F06AA96820F00F0073
:1017E0000843F062686828B3FFF7E2FC80460BE02C
:1017F000306840F480203060EAE700BFFFF7D8FC93
:10180000A0EB0800642871D897FAA7F0B0FA80F02E
:1018100040F02000400901D0306800E0706A97FA7B
:10182000A7F1B1FA81F101F01F0104FA01F10842B8
:10183000E4D01EE0FFF7BCFC804605E0FFF7B8FCF3
:10184000A0EB08006428DED897FAA7F0B0FA80F081
:1018500040F02000400901D0306800E0706A97FA3B
:10186000A7F1B1FA81F101F01F0104FA01F1084278
:10187000E4D12878DFF8C48280074FF0000A4FF0E7
:10188000020732D570684FF0F80B10F00C0F07D03C
:101890007068C0F38100022829D17068C00326D483
:1018A00097FAA7F0B0FA80F000E08BE040F020005B
:1018B000400901D0306800E0706A97FAA7F1B1FAE8
:1018C00081F101F01F0104FA01F1084202D02869F8
:1018D000012877D130689BFAABF26969B2FA82F2DB
:1018E00020F0F8009140084330605AE064E1286934
:1018F00088B394FAA4F0B0FA80F048F82040FFF7DB
:1019000057FC814606E000BFFFF752FCA0EB090040
:10191000022898D897FAA7F0B0FA80F040F020009B
:10192000400901D0306800E0706A97FAA7F1B1FA77
:1019300081F101F01F0104FA01F10842E4D030689E
:101940009BFAABF220F0F8016869B2FA82F290409B
:101950000143316025E0FFE794FAA4F1B1FA81F187
:1019600048F821A0FFF724FC814605E0FFF720FCA2
:10197000A0EB09000228CCD897FAA7F0B0FA80F0C3
:1019800040F02000400901D0306800E0706A97FA0A
:10199000A7F1B1FA81F101F01F0104FA01F1084247
:1019A000E4D1287800076CD5A869A8B394FAA4F00C
:1019B000B0FA80F008EB8000C0F88044FFF7F8FB35
:1019C000814607E08AE100BFFFF7F2FBA0EB0900C8
:1019D00002289ED897FAA7F0B0FA80F040F0600095
:1019E000B4EB501F01D130680BE097FAA7F0B0FAC2
:1019F00080F040F06000B7EB501F01D1306A00E08A
:101A0000706A97FAA7F1B1FA81F101F01F0104FAA7
:101A100001F21042D8D034E0FFE794FAA4F1B1FA11
:101A200081F108EB8101C1F880A4FFF7C1FB814679
:101A300006E000BFFFF7BCFBA0EB090002289AD824
:101A400097FAA7F0B0FA80F040F06000B4EB501FB6
:101A500001D130680BE097FAA7F0B0FA80F040F0BF
:101A60006000B7EB501F01D1306A00E0706A97FA4E
:101A7000A7F1B1FA81F101F01F0104FA01F210425D
:101A8000D8D12878400774D5F0694FF00009C0001C
:101A900009D4F06940F08050F061F0694FF001091D
:101AA00000F08050009026480168C90512D40168F2
:101AB00041F480710160FFF77BFB834606E000BFC5
:101AC000FFF776FBA0EB0B00642875D81C48006874
:101AD000C005F5D5E86801280AD008B1052811D05D
:101AE000306A20F001003062306A20F0040002E029
:101AF000306A40F001003062E868E0B1FFF758FB5F
:101B000083460DE0306A40F004003062F0E700BF29
:101B1000FFF74EFBA0EB0B0141F2883081424BD81E
:101B200097FAA7F0B0FA80F040F04000B4EB501FF5
:101B300008D1306812E01DE000100240000042426F
:101B40000070004097FAA7F0B0FA80F040F0400033
:101B5000B7EB501F01D1306A00E0706A97FAA7F125
:101B6000B1FA81F101F01F0104FA01F21042CFD065
:101B70002EE034E0FFF71CFB834607E0FFF718FB7D
:101B8000A0EB0B0141F28830814215D897FAA7F0FB
:101B9000B0FA80F040F04000B4EB501F01D1306843
:101BA0000CE097FAA7F0B0FA80F040F04000B7EBF5
:101BB000501F02D1306A01E083E0706A97FAA7F102
:101BC000B1FA81F101F01F0104FA01F21042D5D1FE
:101BD000B9F1000F03D0F06920F08050F061E8699E
:101BE00080B37168C1F38101022977D04FF0807111
:101BF0004F00022809D091FAA1F0B0FA80F048F81D
:101C000020A0FFF7D5FA05465EE0894691FAA1F1DA
:101C10005046B1FA81F1C24648F82100FFF7C8FAF0
:101C2000804605E0FFF7C4FAA0EB0800022848D878
:101C300097FAA7F0B0FA80F040F02000400902D0F7
:101C4000306801E056E0706A97FAA7F1B1FA81F1C5
:101C500001F01F0104FA01F10842E3D1D5E90810AF
:101C60000843716821F474110843706099FAA9F06F
:101C7000B0FA80F04AF82040FFF79AFA054604E0EF
:101C8000FFF796FA401B02281BD897FAA7F0B0FA84
:101C900080F040F02000400901D0306800E0706A18
:101CA00097FAA7F1B1FA81F101F01F0104FA01F1ED
:101CB0000842E5D01EE000BFFFF77AFA401B022879
:101CC00002D90320BDE8F88F97FAA7F0B0FA80F0A8
:101CD00040F02000400902D0306801E00CE0706A5A
:101CE00097FAA7F1B1FA81F101F01F0104FA01F1AD
:101CF0000842E1D10020E5E70120E3E74FF0E021D1
:101D00000428086903D020F004000861704740F0FF
:101D10000400FAE701F09ABB10B5401EB0F1807FD5
:101D200001D3012010BD4FF0E02460610F21601746
:101D300001F0C0FD0020A06107202061002010BD3F
:101D400010B5FFF7E7FF10BD7047704730B590F84A
:101D50003C20012A3AD0012280F83C20CA688C68D5
:101D600022F4407222434C6822F4806222430C68C1
:101D700022F4006222430C6922F4805222434C690F
:101D800022F4005222438C6A22F48042224322F43D
:101D9000004222430C8B22F4702242EA04420C4D92
:101DA00004680023AC420CD18D8C22F4700242EA0C
:101DB0000552CD6922F080722A43096A22F000722E
:101DC0000A43626480F83C30002030BD022030BD00
:101DD000002C014030B590F83C20012A1CD0012293
:101DE00080F83C2003685A689C680C4DAB4203D1D4
:101DF00022F470054A682A4322F070050A6889684F
:101E00002A4324F0800421435A6002689160002133
:101E100080F83C10084630BD022030BD002C014047
:101E200010B504460068042201F037FE2068416CBA
:101E300041F4004141642068016841F00101016002
:101E4000002010BD10B504460068002201F025FEF8
:101E50002068036A41F211110B4240F2444206D15C
:101E6000036A134203D1436C23F4004343642068A4
:101E7000036A0B4206D1016A114203D1016821F0C5
:101E800001010160002010BD10B5040003D094F8DA
:101E90003D0010B107E0012010BD002084F83C0097
:101EA000204600F00DF8022084F83D00211D206836
:101EB00001F0ACFD012084F83D00002010BD0000C1
:101EC00010B5244C026800212348022386B0A242A8
:101ED00012D1826942F400628261806900F400607C
:101EE000059040200090CDE901310620CDE9031096
:101EF00069464FF0904029E0B2F1804F14D0174965
:101F00008A420FD1C16941F01001C161C06900224C
:101F100000F01000059001213620FFF7C1F93620AE
:101F2000FFF7B2F906B010BDC26942F00102C2610A
:101F3000C06900F0010005904FF481600090CDE988
:101F400001310120CDE9031069460548FFF766F825
:101F5000E8E70000002C01400010024000100040A3
:101F6000000400480168CA6842F00102CA600068C3
:101F7000016841F001010160002070470168CA68F2
:101F800022F00102CA600068016A41F21112114296
:101F900007D1016A9210114203D1016821F00101B9
:101FA000016000207047000070B5044690F83C00C6
:101FB000012817D0012584F83C50022084F83D0008
:101FC00022689068364E304020F47F409060086868
:101FD000502839D00DDC20285BD005DC98B31028C0
:101FE00043D153E0022070BD302855D040283CD169
:101FF00041E0602830D070280CD0B0F5805F03D06D
:10200000B0F5005F31D112E020688168244A703257
:10201000114016E0CB68D1E90121206801F048FDAC
:1020200021688868304040F0770088601DE0CB6808
:10203000D1E90121206801F03BFD2068816841F46D
:102040008041816011E01EE0CA684968206801F0A3
:10205000A1FE5021206806E0CA684968206801F0A6
:10206000AAFE6021206801F02DFD84F83D5000207B
:1020700084F83C0070BDCA684968206801F08AFE97
:1020800040212068EFE700212068ECE7102120685C
:10209000E9E720212068E6E730212068E3E7000037
:1020A00088FFFEFF2DE9F041044690F83C001746FA
:1020B0000D4601280CD0012684F83C60022084F8EB
:1020C0003D00686838B101281AD002280FD109E014
:1020D0000220BDE8F0812068816821F0080121F428
:1020E0007F4103E02068816821F0080181600C2FA6
:1020F00038D010DCA7B1042F1DD0082F54D126E012
:10210000D5E902212B69206801F0D2FC20688168A2
:1021100041F00801EAE7102F30D0142F44D138E005
:10212000286800282068816902D041F080010CE015
:1021300021F0800109E0286800282068816902D028
:1021400041F4004101E021F4004181612CE0286864
:1021500000282068C16902D041F080010CE021F024
:10216000800109E0286800282068C16902D041F494
:10217000004101E021F40041C16115E02868002818
:102180002068416D02D041F080010CE021F0800117
:1021900009E0286800282068416D02D041F4004120
:1021A00001E021F40041416584F83D60002084F89D
:1021B0003C008EE7704770B50446006801694FF037
:1021C0000005C943890715D4C168C943890711D4DB
:1021D000E91E016101202077206880698007204680
:1021E00002D0FFF7E7FF04E000F0C8F8204600F057
:1021F00076F9257720680169C943490717D4C16872
:10220000C943490713D46FF004010161022020770C
:102210002068806910F4407F204602D0FFF7CAFF93
:1022200004E000F0ABF8204600F059F9257720686B
:102230000169C943090716D4C168C943090712D403
:102240006FF008010161042020772068C0698007D1
:10225000204602D0FFF7AEFF04E000F08FF82046E2
:1022600000F03DF9257720680169C943C90617D4F4
:10227000C168C943C90613D46FF010010161082079
:1022800020772068C06910F4407F204602D0FFF715
:1022900091FF04E000F072F8204600F020F9257765
:1022A00020680169C943C90708D1C168C943C90782
:1022B00004D1891E0161204600F070F9206801698F
:1022C000C943090609D4C168C943090605D46FF09A
:1022D000800101612046FFF737FD20680169C9438D
:1022E000490609D4C168C943490605D46FF04001C5
:1022F0000161204600F054F920680169C94389064C
:102300000BD4C168C943890607D46FF0200101616D
:102310002046BDE87040FFF718BD70BD70B500687D
:10232000144986B0884223D14FF4E060022400258E
:102330008DE831000626CDE9035669464FF09040FE
:10234000FEF76CFE3003CDE9000402A8694680E880
:102350007000094E3046FEF761FEA003CDE900048F
:1023600004200294CDE9035069463046FEF756FE3C
:1023700006B070BD002C014000040048704770B5E5
:10238000044690F83C000D4601280ED0012684F842
:102390003C60022084F83D000C2A45D007DC5AB18D
:1023A000042A1BD0082A78D12CE0022070BD102A04
:1023B0004ED0142A71D15DE0206801F08BFB2068BB
:1023C000816941F0080181612068816921F004017F
:1023D0008161206881692A69114311E0206801F058
:1023E000BDFB2068816941F40061816120688169D9
:1023F00021F480618161206881692A6941EA0221B2
:1024000081614AE0206801F0E9FB2068C16941F080
:102410000801C1612068C16921F00401C16120681F
:10242000C1692A69114311E0206801F017FC206896
:10243000C16941F40061C1612068C16921F4806112
:10244000C1612068C1692A6941EA0221C16124E0B1
:10245000206801F039FC2068416D41F008014165B8
:102460002068416D21F0040141652068416D2A69B1
:10247000114311E0206801F059FC2068416D41F4DE
:10248000006141652068416D21F4806141652068EB
:10249000416D2A6941EA0221416584F83D600020CE
:1024A00084F83C0070BD10B5040003D094F83D00E2
:1024B00010B107E0012010BD002084F83C00204648
:1024C00000F00CF8022084F83D00211D206801F086
:1024D0009DFA012084F83D00002010BD7047704730
:1024E00010B504460068012201F0CCFA0B482168BF
:1024F000814208D00A48814205D00A48814202D070
:102500000948814203D1486C40F400404864206887
:10251000016841F001010160002010BD002C014064
:1025200000400140004401400048014010B504460D
:102530000068002201F0A6FA144841F21112216845
:102540009310814208D01248814205D0114881423F
:1025500002D01148814209D1086A104206D1086AA6
:10256000184203D1486C20F4004048642068016A96
:10257000114206D1016A194203D1016821F001011B
:102580000160012084F83D00002010BD002C0140B6
:1025900000400140004401400048014000F0A8BF55
:1025A000704770477047000070B503680446D869EB
:1025B000196810F00F0508D1820606D58A0604D5E1
:1025C0002046BDE8704001F0BFBC9A68002D66D07F
:1025D00002F0010501F490762E4360D0C60707D0C3
:1025E000CE0505D501261E62E36E43F00103E366C6
:1025F000830708D5D30706D0266802233362E36E2B
:1026000043F00403E366430708D5D20706D02368E6
:1026100004221A62E26E42F00202E26602070AD562
:1026200001F020022A4306D0236808221A62E26ED3
:1026300042F00802E266E26E002A29D0800604D544
:10264000880602D5204601F07FFCE06E000703D427
:102650002068806840061CD5204601F05AFC20689E
:102660008168490611D5816821F040018160606E62
:1026700058B11C494163606EFEF79DFC002807D0ED
:10268000606E416BBDE8704008472046FFF78AFF47
:1026900070BD2046FFF786FF0020E06670BDC502D2
:1026A0000ED552020CD54FF480101862202084F809
:1026B000690084F86A002046BDE87040FFF771BFEA
:1026C000020606D50A0604D52046BDE8704001F092
:1026D0001DBD4006E2D54806E0D52046BDE8704065
:1026E00001F025BCFF3E000810B5040003D094F8AB
:1026F000690010B107E0012010BD002084F86800D7
:10270000204600F027F8242084F86900206801683A
:1027100021F001010160204601F052FC0128EBD0BC
:10272000606A10B1204601F058FB2068416821F42E
:10273000904141602068816821F02A018160206811
:10274000016841F0010101602046BDE8104001F040
:10275000A8BB000000B50068124987B088421FD1AD
:102760001148C16941F40031C161C069694600F492
:10277000003005900C200090022001900120029072
:1027800003200390072004904FF09040FEF746FC92
:10279000002211462620FEF783FD2620FEF774FD59
:1027A00007B000BD00440040001002407047704771
:1027B0002DE9F04780461A4889460027828A4FF45F
:1027C000001016463946FDF7C6FDB0EB080071EB68
:1027D0000901324601D3802001E04FF4005000216E
:1027E000FDF7B9FD04460D46761E22462B464046AF
:1027F0004946FDF739FD0019694149084FEA3000A3
:1028000080EA040281EA05031A4307D07F1CFFB265
:1028100004460D46B742E8DBBDE8F087F7B2F9E7BA
:10282000000000202DE9F0413E48006800683E4C61
:102830003E4FC0064FF0000562D5607D04282FD0C2
:1028400006282DD02046237DB0F87220B0F8700005
:1028500004F1C406411C89B2072B21D2DFE803F042
:10286000204533253A2C0400904217D33048FEF718
:1028700016F9E06334E000BFB4F86C1088420FD959
:10288000012000F03DF984F8B35009E0B4F86E106F
:10289000884205D2002000F033F901E0A4F870105E
:1028A000388904EB8000806C38E09042F6D32048F1
:1028B000FEF7F5F8E0631EE09042EFD31C48FEF708
:1028C000EEF8206417E09042E8D31948FEF7E7F8E5
:1028D000206405E09042E1D31548FEF7E0F860641B
:1028E000B6F900100029D1DBC6E79042D6D31048D4
:1028F000FEF7D5F86064B6F900100029C6DABBE728
:102900000B48FEF7CCF8398904EB8102491C90652D
:1029100088B23881012800D93D81E06ABDE8F041E4
:1029200000F0D2B8C4000020F40100200000002014
:102930007000002070B50E4CA078012814D10D480D
:102940000025B0F8921019B990F8B010012902D002
:1029500000F04CFD07E0617939B10021617180F828
:10296000C01000F021FDA57070BD0121F6E7000048
:1029700000000020F401002010480168CA6A1048D5
:10298000A2F57F43FF3B0DD08A6A0E4B92B2C96A13
:10299000D3F8A430B3FBF2F201EB41014900B2FBE2
:1029A000F1F100E0002141640649406CC431B1F905
:1029B0000010002900DA4042704700004401002066
:1029C00000000020F401002000B5FFF7D5FF044906
:1029D000C0EB00108000CA8B90FBF2F0086400BDD1
:1029E0000000002030B5B0F90020B0F90440531ABF
:1029F000B0F9022022495A4394B35C43D1F88030A5
:102A000023441C46C1F88030B0F90830B4EB033FD2
:102A100002DD1B03C1F88030B0F90830D1F88040E6
:102A20005D42B4EB053F03DA1B035B42C1F8803023
:102A3000D317D1F8801002EB1352CB17121301EB0E
:102A4000135102EB2131B0F90020002AB0F908201F
:102A500009DD8A420ADBB0F9060088420DDC0DE090
:102A6000FFE70023CDE752428A4201DD114605E02F
:102A7000B0F906004042884200DA014608B230BD93
:102A8000F40100200A4A0B4992F8C030498A03B188
:102A90004942018032F8BC1F4180518881807821F1
:102AA000C1804FF4FA61018100218172C1727047C7
:102AB000F401002000000020002801D00149088016
:102AC00070470000B80200200C490A68936843F080
:102AD000100393600A689368DB06FCD4136B23F43D
:102AE000F86313630A68136B43EA80101063086885
:102AF000816841F00401816070470000700000208F
:102B000070B5204C0646A07D217D88422FD094F8D8
:102B100096001D4D01281BD180211C48FEF73EFB6D
:102B2000E88A0121642800D9E9700022012E1FD013
:102B300094F8B130012B01D0401CE882A86C042825
:102B400006D394F8B100012802D084F8B110AA6429
:102B5000207DA07594F89500012808D10C490868DB
:102B6000426AAA65EB6B02EB5302C262CA6070BD97
:102B700094F8B1000128E1D0A86C401CA864EA8256
:102B8000DCE70000F40100200000002000080048FD
:102B9000440100202DE9F047214C012694F88600DD
:102BA00008B984F8866094F8850001281BD11C4878
:102BB0001C4FC4301C4DB0F90010C4384FF0090947
:102BC00090F895004FF44878012820D0667500F001
:102BD0004BFAA18EE889814207D9618BF9603A6886
:102BE000D162401CE881BDE8F08794F89400002889
:102BF000F9D1EE81D4F8B8004008C4F8B8004045D7
:102C00000AD300BF00F0F2FB84F81590EBE784F8DC
:102C100094602E82EE81E6E7C4F8B880F2E7000007
:102C2000F4010020440100200000002070B50F4D89
:102C300006200F4C2875698BE1602268D1620D4E29
:102C40006875308B401C80B23083B0F57A7F0CD928
:102C5000012085F885006875308200F005FA286B40
:102C60006060216888620020308370BDF40100201C
:102C7000440100200000002010B5104C00224FF449
:102C800080612046FEF78EFA00224FF40061204654
:102C9000FEF788FA00224FF480512046FEF782FAB0
:102CA00000210748FFF7CEF804210548FFF7CAF8CE
:102CB000BDE8104008210248FFF7C4B800080048EA
:102CC000C40000200149096848637047C40000201F
:102CD0000149096888637047C400002001490968F8
:102CE000C8637047C400002010B500F0B1F80C486C
:102CF0000068416B0B4B1961C16AD960806A9860AA
:102D000009480068C16A5960806A186000F00EF8CE
:102D1000012083F8B000BDE8104000F0F5B80000D5
:102D2000C4000020F40100204401002009484FF4B1
:102D30007A610422A0F87C10A0F8B6204A00C0F8FE
:102D4000B820A0F8BC107821A0F8BE10002180F8AF
:102D5000C0107047F40100202DE9F041384C4FF0CD
:102D6000000894F88400012803D184F8848000F0DE
:102D7000F5F9344E3068C06A334F0125F86394F892
:102D8000850001282AD1FFF71FFEA4F87400A4F8DB
:102D90007050A17D207D814201D0C7F8488028492C
:102DA000C431B1F9001000290CDB401CC0B2207501
:102DB00094F8B210012901D184F8955006280DD954
:102DC00025750BE0401EC0B2207594F8B2100129A1
:102DD00001D184F8955008B90620207594F8950023
:102DE00001280ED194F8B300401CC0B284F8B3009F
:102DF0000A2801D93D7104E031684FF6FF70C862BE
:102E0000F060207D00F0E6F9104800680068C00618
:102E100014D5207D072806D2DFE800F0050A0C0E45
:102E20000A0C0E00E062E06ABDE8F041FFF74CBE1C
:102E3000A06AF7E7606AF5E7206AF3E7BDE8F0818A
:102E4000F40100204401002000000020C400002004
:102E500030B58BB0012500240695CDE907540994BF
:102E6000224606A925480A94FFF71CF9042206A960
:102E70002248FFF717F9082206A92048FFF712F9A0
:102E80001F48C16841F00101C1601C480068C16869
:102E900041F08001C160072000900394CDE9015406
:102EA0000494694617480594FDF760FC0220062447
:102EB0000090694602941348FDF758FC08200090E2
:102EC000694602940F48FDF751FC09200524009043
:102ED000694602940B48FDF749FC0B2000906946B7
:102EE00002940848FDF742FC0F20009069460294C6
:102EF0000448FDF73BFC0BB030BD0000C4000020CF
:102F0000002004E0700000202DE9F041514D012720
:102F100040F6B83085F88470A886C820A5F86C0003
:102F2000A5F86E004FF47A60A5F87C000220A5F8A1
:102F30008E00288A28834FF4AF680024A5F8988073
:102F400085F88640A5F890400A20A5F87200EC624A
:102F5000AC7541482C7529684160026891626968C6
:102F6000C1600068C1623D48A96841600268916221
:102F7000E968C1600268D162006829694163384E1E
:102F8000B5F8B600F083FEF7B1FBC5F8A400002049
:102F9000FFF798FE0020FFF79BFE0020FFF79EFE44
:102FA000092028620B2068620F20A8620720A8640D
:102FB0002C75A5F8704085F8854085F8954085F812
:102FC0009440A5F87640C5F88040A5F87A40A5F869
:102FD0009C40A5F89240A5F8744085F8B14085F86A
:102FE000B240204885F8964085F8B340046074816B
:102FF000B78134637463B463B462F4623464746438
:10300000348134627462F463F780B770F781B4641A
:10301000F482F47034713783F46434657783B48355
:1030200074650020B465C6E91800347005F1C40069
:103030007470B0F90000002800DA2F750548A6F872
:103040001280C430FFF71EFD3782BDE8F04100F06A
:103050000BB80000F401002044010020C40000204F
:10306000000000206C0000202DE9F047364C374D61
:103070004FF00009268A4FF6FF78012E2CD040F63B
:10308000B830864242D2606AA6FB0001FFF790FB8F
:103090002F4B0022A0FB036701FB037100FB021111
:1030A0002C4A00233046FDF7DFF8A062E16A401A9F
:1030B000A063228A4FF47A71012A41F68A0200FB4A
:1030C00002F090FBF1F01DD02063616BC0EB00407B
:1030D000B0FBF1F0688326E0E18BD5F8B8001E4A1A
:1030E00048433C21B0FBF1F05D212062C4E9182186
:1030F00000EB40024F4600231748FDF7B5F8E762A2
:103100006062C0E76063A5F81A8001E001202082B8
:103110000F49D5F8A400B0FBF1F0616B4843B0FB58
:10312000F8F0401E2863687D062806D0042804D0E5
:10313000208A401C2082A06A02E04846C4F82890F9
:10314000E062BDE8F087000000000020F4010020EC
:1031500040420F0087A6090000A0DB2110B5002126
:103160000C48FEF75DFE04210A48FEF759FE0821CF
:103170000848FEF755FE00210648FFF7B1F9042183
:103180000448FFF7ADF9BDE8104008210148FFF7FA
:10319000A7B90000C400002010B500210C48FEF7BC
:1031A00051FE04210A48FEF74DFE08210848FEF7AB
:1031B00049FE00210648FFF7B9F904210448FFF74A
:1031C000B5F9BDE8104008210148FFF7AFB900008C
:1031D000C40000202DE9F0414C4C01464FF48066BC
:1031E0004B4D7700208B4FF4805807297ED2DFE8C3
:1031F00001F08A040A13193E6300FFF763FD002003
:10320000FFF766FD13E0FFF75DFD0020FFF760FDAF
:103210000020FFF763FD32E0FFF75AFD0020FFF7C3
:103220005DFD4EE0FFF754FD0020FFF74BFD002051
:10323000FFF754FD012231462846FDF7B3FF012276
:1032400039462846FDF7AEFF002241462846FDF7E5
:10325000A9FF00212F48FEF7E3FD04212D48FEF7CA
:10326000DFFD08212B48FEF7EDFDA06A4AE0FFF7DD
:1032700035FD0020FFF726FD0020FFF729FD012284
:1032800031462846FDF78EFF002239462846FDF7D5
:1032900089FF012241462846FDF784FF00211D4891
:1032A000FEF7BEFD04211B48FEF7CCFD082119489E
:1032B000FEF7B6FD606A25E0FFF710FD0020FFF77E
:1032C00007FD0020FFF7FEFC002231462846FDF7EF
:1032D00069FF012239462846FDF764FF0122414675
:1032E0002846FDF75FFF00210A4800E00BE0FEF7EB
:1032F000A9FD04210748FEF793FD08210548FEF7C4
:103300008FFD206AE062BDE8F0810000F40100203A
:1033100000080048C4000020F0B52148214D0146B6
:1033200090F800C0CA880126511C8CB20021B5F962
:10333000747005F1D003BCF1000F17D0C4800A2CC3
:1033400000D3C680C164C28823F812705FF0010206
:1033500033F91240521C92B221440A2AF8D3C164B4
:10336000092091FBF0F0A5F87600F0BD23F812706B
:103370000127C16405E000BF33F917C07F1C614419
:10338000BFB294469742F7D9C16491FBFCF1A5F80E
:103390007610C4800A2CE8D3C6800670F0BD000009
:1033A00000000020F40100200B4910B50020086047
:1033B0000A4C042060750A48FEF7D4FD0948FDF761
:1033C0007FFD0120A4F892000246BDE810400421D0
:1033D0000548FDF7E7BE00006C000020F401002066
:1033E00044010020700000200004004810B511487E
:1033F00000240460104803214175A0F89240FFF7B3
:10340000CBFE0E4801680A6822F001020A600068DB
:103410004462FFF731FC0A48FEF7B0FD0948FDF7AA
:10342000A6FD002204210848FDF7BCFEBDE81040BF
:10343000FFF76ABD6C000020F4010020C4000020EA
:103440004401002070000020000400482DE9F041F4
:10345000244D95F88600012804D195F8850008B917
:10346000FFF7E4FB204800680127204CB0F57A7F85
:1034700003D1A078012800D0A770B5F88E10606D38
:10348000002681420FD8687D072801D000F040F85F
:10349000A5F8A07095F89500012802D10020FFF74B
:1034A0000BFB666501E0401C6065E07801280FD1E8
:1034B000D5F8B8004FF448714008C5F8B800884204
:1034C00001D2C5F8B810FFF791FFE6820A206875AF
:1034D0002079012803D1FFF789FF07206875BDE82F
:1034E000F0810000F40100206C00002000000020AA
:1034F00010B5FFF731FC054890F8940008B9FFF7C4
:1035000049FBBDE81040FFF707BF0000F4010020B1
:1035100010B51F481D4C0122438A2046B4F976108D
:1035200090F89500994202DC5B42994206DA012844
:1035300004D00223637584F8962003E094F8963053
:10354000012B09D194F8B130012B05D194F8B23098
:10355000012B01D084F8B220012812D1052060751A
:103560000A48C430B0F900000028084800F1C4003F
:1035700002DBFFF737FA02E0FFF734FA4042A4F823
:103580007A00BDE81040FCF7FDBF0000F401002008
:103590000000002030B5174887B04FF0A04100244C
:1035A000C0E9001484600461C4614FF48061446226
:1035B00001630125C46005624FF410714463C16268
:1035C0000421C0E905148463FDF762FB00B1FEE746
:1035D0000C20CDE900050320CDE9020404946946DE
:1035E00004480594FDF7C2F8002800D0FEE707B0B4
:1035F00030BD000070000020F0B52C4887B0416954
:1036000041F400214161416901F4002105914169C2
:1036100041F480014161416901F4800105914169F2
:1036200041F400314161416901F400310591416982
:1036300041F48021416140691D4E00F4802041F633
:1036400090450590002229463046FDF7ABFD194F05
:10365000002204213846FDF7A5FD4FF400500090EC
:1036600015480024CDE9010469463046FDF7D6FC33
:1036700000950125CDE90154694630460394FDF7D4
:10368000CDFC0420CDE900050220CDE90204694605
:103690003846FDF7C3FC002211462820FDF700FE46
:1036A0002820FDF7F1FD07B0F0BD0000001002403A
:1036B00000080048000400480000111030B53E48E2
:1036C0003C499FB00024202580E8320040F2CF2101
:1036D000C0E9031444618461FEF7D6FB00B1FEE744
:1036E0004FF480501A901AA93348FEF75DFC00B1E0
:1036F000FEE73148FEF7D7FE00B1FEE70120129049
:10370000CDE913041594002212A92B481694FEF754
:10371000C9FC00B1FEE7042212A92748FEF7C2FC4B
:1037200000B1FEE7082212A92348FEF7BBFC00B156
:10373000FEE78020CDE9184017A917951E48FEF72F
:1037400049FB00B1FEE76020009040F23F20CDE948
:1037500001040820CDE903048001CDE905400022E1
:1037600069461548FEF70BFE00B1FEE704226946E4
:103770001148FEF704FE00B1FEE7082269460E4834
:10378000FEF7FDFD00B1FEE70794089409940A9442
:103790000B940C940D940E940F94109407A9064862
:1037A0001194FEF7D3FA00B1FEE70348FEF7B6FD29
:1037B0001FB030BD002C0140C400002010B51D48D2
:1037C0008EB04FF08041016040F2CF210024C0E96B
:1037D00001144CF25031C0E903148461FEF754FB2C
:1037E00000B1FEE74FF480500A900AA91148FEF795
:1037F000DBFB00B1FEE70F48FEF755FE00B1FEE728
:10380000079407A90B480994FEF7E4FA00B1FEE714
:103810006020CDE900040294002269460548049422
:10382000FEF7ADFD00B1FEE70248FEF777FD0EB0F2
:1038300010BD0000040100203EB50D480B490024D6
:1038400001600B21C0E9011445F6C0518461C160DB
:10385000FEF71AFB00B1FEE70094694604480294A3
:10386000FEF7B8FA002800D0FEE73EBD0010004089
:10387000440100200E4810B50C4901604FF49641F8
:1038800041604FF48051816000214FF4C062C0E973
:1038900003120C22C0E90521C16101624162FEF7F9
:1038A00023FF002800D0FEE710BD000000440040C8
:1038B000840100200907090E002806DA00F00F0035
:1038C00000F1E02080F8141D704700F1E02080F83E
:1038D0000014704710B5FDF771FCBDE81040FEF70D
:1038E0002FBA000030B59DB001204FF4A021002474
:1038F0008DE81300049002250004CDE907504FF431
:10390000E01009906846FDF723FF00B1FEE70F20A5
:10391000CDE917054FF48060CDE91940022117A8C1
:103920001B94FDF7E9FD00B1FEE70F4814940A90DF
:103930004FF48070109012940AA8FDF7E3FC00B1D8
:10394000FEE7FDF79DFE4FF47A71B0FBF1F0FEF754
:10395000E3F90420FEF7D2F902210022C81EFDF788
:103960009FFC1DB030BD00008010080014480168A5
:1039700041F4700101601348016841F001010160E8
:103980004168114A114041600168104A11400160CC
:10399000016821F480210160416821F4FE01416049
:1039A000C16A21F00F01C162016B094A1140016334
:1039B000002181600249C00380390860704700001F
:1039C00088ED00E0001002400CC07FF8FFFFF6FE1B
:1039D000CCFC00FF084810B500680069C043000631
:1039E00004D4FFF703FD054908204875BDE81040E1
:1039F0000148FEF7E0BB0000C4000020F4010020F5
:103A00000148FEF7D8BB000044010020F0B5026871
:103A1000184B4FF08047984201D0B84203D122F0B2
:103A200070044A682243144C144D154E984207D036
:103A3000B84205D0A04203D0A84201D0B04203D181
:103A400022F44077CA683A434F6922F080023A4331
:103A500002608A68C2620A688262984205D0A04207
:103A600003D0A84201D0B04201D10969016301210C
:103A70004161F0BD002C0140004001400044014084
:103A80000048014010B50123046A8B409C43046246
:103A9000036A8A401343036210BD10B50423046A0D
:103AA0008B409C430462036A8A401343036210BD47
:103AB00010B5846842EA032224F47F440A43224377
:103AC000826010BD826822F070020A4342F0070152
:103AD00081607047F0B5026A22F001020262056A55
:103AE00043688269184C25F0020522400C6822F0D8
:103AF000030214438A68164E2A43144D154FDFF80B
:103B000058C0A84205D0B04203D0B84201D06045A9
:103B100006D122F0080ECA6842EA0E0222F0040220
:103B2000A84205D0B04203D0B84201D0604505D1CB
:103B30004D6923F440731D438B692B4343608461BB
:103B4000496841630262F0BD8FFFFEFF002C014017
:103B500000400140004401400048014030B5026A85
:103B600022F010020262046A42688369164D2B40FB
:103B70000D6823F4407343EA052524F020038C6884
:103B800043EA0413114CA04207D1CC6823F0800310
:103B900043EA041323F0400308E00D4CA04205D093
:103BA0000C4CA04202D00C4CA04207D14C6922F42C
:103BB000406242EA84028C6942EA84024260856182
:103BC00049688163036230BDFF8FFFFE002C014016
:103BD00000400140004401400048014030B5026A05
:103BE00022F480720262046A4268C369164D2B4057
:103BF0000D6823F003031D4324F400738C6843EA2B
:103C00000423124CA04207D1CC6823F4006343EA9A
:103C1000042323F4806308E00D4CA04205D00D4C32
:103C2000A04202D00C4CA04207D14C6922F4405271
:103C300042EA04128C6942EA04124260C561496892
:103C4000C163036230BD00008FFFFEFF002C014006
:103C500000400140004401400048014030B5026A84
:103C600022F480520262046A4268C369114D24F44E
:103C700000542B400D6823F4407343EA05238D68FC
:103C800044EA05340C4DA84208D00C4DA84205D09A
:103C90000B4DA84202D00B4DA84204D14D6922F42D
:103CA000804242EA85124260C3614968016404624D
:103CB00030BD0000FF8FFFFE002C0140004001409E
:103CC000004401400048014030B5026A22F48032CD
:103CD0000262046A4268436D0F4D2B400D681D431C
:103CE00024F400330C8943EA04430C4CA04208D06E
:103CF0000B4CA04205D00B4CA04202D00A4CA04273
:103D000004D14C6922F4803242EA042242604565C3
:103D100049688165036230BD8FFFFEFF002C0140C2
:103D200000400140004401400048014030B5026AB3
:103D300022F480120262046A4268436D104D24F43A
:103D400000142B400D6843EA05230D8944EA05540D
:103D50000C4DA84208D00C4DA84205D00B4DA842EE
:103D600002D00B4DA84204D14D6922F4802242EAD0
:103D70008522426043654968C165046230BD000028
:103D8000FF8FFFFE002C0140004001400044014035
:103D90000048014010B5036A046A24F0010404627B
:103DA000846924F0F00444EA021423F00A020A436E
:103DB0008461026210BD10B5036A23F01003036230
:103DC0008369046A23F4704343EA023224F0A003B7
:103DD00043EA01118261016210BD90F82410C90705
:103DE00006D001684A68836A22F400321A434A60A6
:103DF00090F82410890706D501684A68C36A22F43E
:103E000080321A434A6090F82410490706D50168A9
:103E10004A68036B22F480221A434A6090F8241007
:103E2000090706D501684A68436B22F400421A4329
:103E30004A6090F82410C90606D501688A68836B29
:103E400022F480521A438A6090F82410890606D51D
:103E500001688A68C36B22F400521A438A6090F8A2
:103E60002410490611D501684A68036C22F48012B7
:103E70001A434A60016CB1F5801F06D101684A6897
:103E8000436C22F4C0021A434A6090F824100906D9
:103E900006D501684A68806C22F4002202434A6019
:103EA0007047F8B500260446C666FDF781F9054659
:103EB000206800686FF07E47000708D52B46002277
:103EC0004FF400112046009700F052F960B92068C5
:103ED000006840070AD52B4600224FF48001204697
:103EE000009700F045F908B10320F8BD202084F8C0
:103EF000690084F86A0084F868600020F8BD10B595
:103F0000406A0021A0F85A10A0F85210FEF74AFBB0
:103F100010BD01680A6822F490720A6001688A681C
:103F200022F001028A60202180F86A10704710B5E3
:103F300001680A6822F040020A60202180F86910B6
:103F4000FEF735FC002010BD10B5B0F85C2090F8ED
:103F50006A300168222B05D0886940F0080088612A
:103F6000022010BD898C8368B3F5805F01D103699D
:103F70006BB11140426D531C43651170B0F85A107B
:103F8000491E0904090CA0F85A1007D015E0436D2A
:103F900011401980416D891C4165EFE701680A688D
:103FA00022F490720A6001688A6822F001028A6035
:103FB000202180F86A10FEF7F9FB002010BD0000F8
:103FC0002DE9F041044610202369A268E6691A43EE
:103FD0006369002133431A4323680D461E68444F2A
:103FE0003E4016431E6022685368E66823F440533F
:103FF00033435360236AA2691A4323689E6826F4F8
:10400000306616439E603B4B22689A4210D13A4B71
:104010001B6B13F0030311D0012B05D0022B05D02D
:10402000032B0CD102200AE0042008E0082006E05F
:10403000324B9A4202D0324B9A4200D10020E669BC
:104040004FF400439E4226D109281DD2DFE800F03C
:104050000508121C151C1C1C1800FDF717FB01E0BD
:10406000FDF72CFB4100606801EB5001B1FBF0F063
:1040700081B20AE023496068F6E7FDF737FBF1E714
:104080004FF480316068EFE7012521F00F00C1F3A4
:10409000420108431CE0092825D2DFE800F00508AA
:1040A0000B24102424241C00FDF7F0FA09E0FDF78E
:1040B00005FB06E01449606801EB50010EE0FDF7D6
:1040C00015FB0146606801EB5001B1FBF0F080B2D6
:1040D0002168C86008E0606803EB5001B1FBF0F0B4
:1040E00080B2D06000E001252846BDE8F0810000E4
:1040F000F369FFEF00380140001002400044004027
:10410000004800400024F40000127A0090F8691082
:10411000212901D002207047B0F8521021B18168E6
:10412000B1F5805F0BD00CE001680A6822F08002D4
:104130000A600068016841F0400101600CE001691B
:1041400061B1C16C4A1CC26402680978A2F82810E7
:1041500030F8521F491E018000207047C16C026870
:104160000988C1F308011185C16C891CC164EFE79E
:104170002DE9F041984617460E460446069D1DE07F
:10418000681C1BD02DB1FDF713F8A0EB0800A84266
:1041900014D92068016821F4D07101602068816819
:1041A00021F001018160202084F8690084F86A0010
:1041B000002084F868000320BDE8F0812068C06911
:1041C00036EA000004D00020B842D9D00020F3E73E
:1041D0000120F9E70148FEF7E7B90000840100205B
:1041E000FCF7F4FFFFF77EFBFFF706FAFFF7D2F9C3
:1041F000FFF764FAFFF7E2FAFFF71EFBFFF73AFB5F
:10420000FEF772FDFEE74FF04070E1EE100A7047D6
:104210000000000000000000010203040607080976
:104220000000000001020304020304050607080958
:104230000A0B0C0D0E0F10100102030405060708EF
:10424000090A0B0C0D0E0F10684200080000002038
:1042500070000000C4010008D8420008700000206F
:10426000C8080000E0010008000001000000010093
:104270000000000001000100010078050E000000B0
:10428000010001000000000000000000000000002C
:10429000000000000000000000000000000000001E
:1042A000000000000000000000000000000000000E
:1042B00000000000000000000000000000000000FE
:1042C00000000000000000000000000000000000EE
:0842D00000127A00000000005A
:040000050800018965
:00000001FF
