:020000040800F2
:10000000080900209D010008F7190008E3180008FE
:10001000F519000855070008C92000080000000075
:10002000000000000000000000000000051B0008A8
:100030005D08000800000000F9190008651C0008B0
:10004000B7010008B7010008B7010008B7010008B0
:10005000B7010008B7010008B7010008B7010008A0
:10006000B7010008B7010008B7010008B701000890
:10007000B7010008B7010008B7010008B701000880
:10008000B7010008B7010008B7010008B701000870
:10009000B7010008B7010008B7010008B701000860
:1000A000B7010008B7010008B7010008B701000850
:1000B000B70100080000000000000000B7010008C0
:1000C000B7010008B7010008B701000800000000F0
:1000D000B7010008B7010008B7010008B701000820
:1000E000B7010008B7010008B701000800000000D0
:1000F0000000000000000000000000000000000000
:10010000000000000000000000000000B70100082F
:100110000000000000000000B7010008000000001F
:1001200000000000000000000000000000000000CF
:1001300000000000000000000000000000000000BF
:10014000B7010008B701000800000000000000002F
:10015000000000000000000000000000000000009F
:10016000B7010008B7010008B7010008B70100088F
:10017000B7010008000000000000000000000000BF
:1001800000000000B7010008DFF80CD000F0D0FA42
:1001900000480047FD2B000808090020064880475A
:1001A00006480047FEE7FEE7FEE7FEE7FEE7FEE75C
:1001B000FEE7FEE7FEE7FEE7C91C0008890100082C
:1001C0002DE9F05F0546002092469B46884606468C
:1001D000814640241BE0284641464746224600F01F
:1001E00020F853465A46C01A914110D3114618467A
:1001F000224600F0A5F92D1A67EB01084F4622466A
:100200000120002100F09CF917EB00094E41201E4F
:10021000A4F10104DFDC484631462A464346BDE8E6
:10022000F09F202A04DB203A21FA02F000217047D7
:1002300021FA02F3D040C2F120029140084319464E
:10024000704740EA01039B0703D009E008C9121F69
:1002500008C0042AFAD203E011F8013B00F8013B80
:10026000521EF9D27047D2B201E000F8012B491EAC
:10027000FBD270470022F6E710B513460A46044643
:100280001946FFF7F0FF204610BD2DE9FE4F8046CE
:1002900081EA0300C00F0C46009021F0004123F0DA
:1002A0000045B8EB0200A94105D2404621469046E0
:1002B0001C460B46024623F00040104347D0270D52
:1002C000C7F30A00C3F30A510290401A0190402874
:1002D0006BDAC3F3130040F4801B0098924620B100
:1002E0000023D2EB030A63EB0B0B01985946C0F1D4
:1002F0004002504600F024F906460D465046594645
:10030000019A00F02CF910EB08006141002487EA03
:10031000115284EAE7731A4340D0009A62B3019AFB
:10032000012A4FEA075215DC001B61EB02014FF076
:10033000004202EA0752CDE90042001C41F580115B
:1003400032462B4600F063F903B0BDE8F08F40461B
:100350002146F9E7001B61EB0201001C41F5801307
:1003600000185B412018A2F5001747EB030140EA93
:10037000D570B6196D4111E06D084FEA360645EAB1
:10038000C0754FEA0752001B61EB0201001C41F5EA
:10039000801149084FEA30000019514132462B467E
:1003A00003B0BDE8F04F00F023B9009801224000EF
:1003B0000023D0EB020263EBE073009821464FEA82
:1003C000E074B8EB000061EB0401E9E783F000435F
:1003D0005BE781F0004158E72DE9F04D81EA030425
:1003E00004F0004B21F0004514464FF0000A23F0C2
:1003F000004150EA050220D054EA01021DD0C5F3A5
:100400000A570246C5F31303C1F31300C1F30A569A
:1004100040F4801543F48013A7EB0608101BD64662
:1004200008F2FD3873EB050002D308F1010801E082
:1004300092185B41B8F1000F03DA00200146BDE8D5
:10044000F08D00204FF48011064684460EE0171B05
:1004500073EB050705D3121B63EB050306434CEA58
:10046000010C49084FEA300092185B4150EA01073D
:10047000EDD152EA030012D082EA040083EA0501BA
:10048000084305D0101BAB4106D20122002306E031
:1004900000224FF0004302E06FF0010253101AEB0C
:1004A00006004CEB085110EB0A0041EB0B01BDE8D4
:1004B000F04D00F09DB800F0004230F000400AD04E
:1004C000C10D01F56071C0F3160042EA0151C20886
:1004D00040071143704700200146704701F0004378
:1004E00030B421F0004150EA010206D00A0DA2F515
:1004F0006072C1F31301002A02DC30BC0020704797
:10050000440F44EAC104C100E01830BC00EBC25003
:1005100000F037B830B50B460146002020220124F8
:1005200009E021FA02F59D4205D303FA02F5491BC1
:1005300004FA02F52844151EA2F10102F1DC30BDD7
:10054000202A04DB203A00FA02F100207047914093
:10055000C2F1200320FA03F3194390407047202A88
:1005600006DBCB17203A41FA02F043EAE07306E0DB
:1005700041FA02F3D040C2F12002914008431946EB
:1005800070470029A8BF7047401C490008BF20F0F1
:100590000100704710B4B0FA80FC00FA0CF050EA89
:1005A000010404BF10BC704749B1CCF1200421FA0A
:1005B00004F411FA0CF118BF012121430843A3EB05
:1005C0000C01CB1D4FEA00614FEA102042BF002012
:1005D00010BC704700EBC35010440029A4BF10BCEE
:1005E0007047401C490008BF20F0010010BC704754
:1005F00010B5141E73F1000408DA401C41F100012B
:1006000092185B411A4301D120F0010010BD2DE981
:10061000F04D92469B4611B1B1FA81F202E0B0FA78
:1006200080F220329046FFF78BFF04460F4640EAE7
:100630000A0041EA0B0153465A46084313D01146BB
:1006400053EA010019D0C8F140025046FFF7E9FD16
:1006500005460E46504659464246FFF771FF08438D
:1006600005D0012004E020463946BDE8F08D002089
:10067000054346EAE0762C4337430A986305E40ACB
:10068000A0EB08000022FD0A44EA47540A3002D5D4
:1006900000200146E9E7010510196941DDE9084537
:1006A00000196941BDE8F04DA2E72DE9FE4FC3F303
:1006B0000A5701F000450024C1F30A56C3F313039F
:1006C000C1F3130143F4801312EB020AA64641F46E
:1006D0008011009543EB030CA7F1010B16E0B0EB82
:1006E0000A0061EB0C01071E71F1000707DA4FF0F9
:1006F0000008D0EB080085F0004568EB0101171AEF
:1007000073EB0107EBD3761E001849415E45F6DA1C
:1007100050EA010209D0CDE900E500221346029615
:10072000FFF775FF03B0BDE8F08F20460099F9E7A9
:10073000064C074D06E0E06840F0010394E807002E
:1007400098471034AC42F6D3FFF722FDB82E0008CC
:10075000D82E0008FEE7000070B52E4C012818D0F6
:1007600002281ED0032824D004282AD0052830D0FF
:10077000062836D007283CD0082842D0002807D1C8
:100780005FF0530501F03AF960556D1C572DF9DD06
:1007900070BD082501F032F960556D1C0C2DF9DD96
:1007A00070BD0D2501F02AF960556D1C112DF9DD84
:1007B00070BD122501F022F960556D1C162DF9DD72
:1007C00070BD172501F01AF960556D1C1B2DF9DD60
:1007D00070BD1C2501F012F960556D1C2B2DF9DD43
:1007E00070BD2E2501F00AF960556D1C322DF9DD22
:1007F00070BD332501F002F960556D1C442DF9DD03
:1008000070BD492501F0FAF860556D1C522DF9DDD7
:1008100070BD00001800002010B501F099F9CC203F
:1008200001F054FC662001F051FC012001F04EFC67
:100830007A2001F04BFC01F0E1F8074C04F8550F69
:1008400001F0DCF86070AA2001F040FCBDE8104027
:100850004FF47A7002F0DEBA1800002070470000F2
:100860002DE9FC4FDFF884A1002301250AF1040BD8
:1008700003244FF00F0C0BF1040EB0E005FA03F760
:100880003A406ED04E68012E05D0022E03D0112EB4
:1008900001D0122E17D1D0F808905E0004FA06F8A5
:1008A00029EA08090096D1F80C8008FA06F848EA07
:1008B0000908C0F808804668BE430F79C7F30017DF
:1008C0009F4037434760C6684FEA430804FA08F779
:1008D000BE4301978F6807FA08F73743C7604E6831
:1008E000022E01D0122E10D1DE0800EB86060096F3
:1008F000366A5F074FEAD7690CFA09F7BE430F69FA
:1009000007FA09F73743009E37620668019FBE4326
:100910000F7907F0030707FA08F7374307604E68B7
:10092000F6005BD5324EB76947F00107B761B6698B
:1009300023F0030706F0010600962E4E3E44B14612
:10094000B6689F074FEA17780CFA08F7BE43B0F174
:10095000904F04D0284FB84204D101270DE0002762
:100960000BE03BE0254FB84201D1022705E0244FC0
:10097000B84201D1032700E0052707FA08F73743FB
:10098000C9F80870DAF800605746D1F80480964339
:100990005FEAC83800D516433E60DBF800605F466A
:1009A000D1F8048096435FEA883800D516433E604C
:1009B000DEF800607746D1F8048096435FEAC828E5
:1009C00000D516433E60094F0C373E68D1F80480CD
:1009D00096435FEA882800D516433E605B1C0E688C
:1009E0003246DE407FF44AAFBDE8FC8F0004014090
:1009F00000100240000001400004004800080048C8
:100A0000000C00480069084000D0012070470AB17E
:100A100081617047816270470148806870470000BB
:100A20000400002002488168027811448160704708
:100A300004000020074810B5016841F01001016072
:100A4000032000F05FF8002000F006F800F024F822
:100A5000002010BD0020024070B50D4D04464FF43B
:100A60007A712878B1FBF0F00A490968B1FBF0F01F
:100A700000F042FD48B9102C07D200222146501E3A
:100A800000F020F800206C6070BD012070BD0000F7
:100A90000400002010000020094808B5816941F0D9
:100AA00001018161816901F001010091C16941F099
:100AB0008051C161C06900F08050009008BD000005
:100AC00000100240F0B40E4B1B680C46C3F3022327
:100AD000C3F10705042D00D90425191D072901D2EA
:100AE000002300E0DB1E012606FA05F1491E214025
:100AF00099409E40761E16403143F0BC01F089BB00
:100B00000CED00E0064900F0070208684FF6FF030D
:100B1000184040EA0220034A104308607047000072
:100B20000CED00E00000FA052DE9F84F05460068DD
:100B30000026774CC0036ED5E069C00008D4E06998
:100B400040F08050E061E069012600F080500090A4
:100B500070480168C90512D40168804641F480716B
:100B60000160FFF759FF074605E000BFFFF754FF9C
:100B7000C01B642835D8D8F80000C005F6D5206A17
:100B800010F4407053D0A98801F4407181424ED0D6
:100B9000206A4FF4803191FAA1F2B2FA82F2970002
:100BA0005D4A4FF00108174420F44070C7F80084F4
:100BB00091FAA1F1B1FA81F102EB81010023C1F8B0
:100BC00000342062C00732D0FFF726FF074641F20B
:100BD000883A4FF0020907E0FFF71EFFC11B51459D
:100BE00002D90320BDE8F88F99FAA9F1B1FA81F191
:100BF00041F040014846B8EB511F01D121680CE09B
:100C000090FAA0F1B1FA81F141F04001B0EB511F2F
:100C100002D1216A01E015E0616A99FAA9F0B0FAFF
:100C200080F000F01F0008FA00F21142D4D0206AD0
:100C3000696820F44070084320621EB1E06920F02A
:100C40008050E0612878C00705D0206BA96820F0AB
:100C50000300084320632878800605D5206BE968E7
:100C600020F01000084320632868800305D56068E1
:100C7000296B20F48000084360602878400605D581
:100C8000206B296920F02000084320632888000495
:100C900005D5206B696920F040000843206328884F
:100CA000800505D56068E96920F4000008436060AC
:100CB0002878000605D5E06AA96920F4F870084391
:100CC000E0622888C00405D5206B296A20F4807072
:100CD000084320632868400305D5206B696A20F427
:100CE0008060084320632868000305D5206BA96A4B
:100CF00020F40060084320632868C00205D5206BFB
:100D0000E96A20F400500843206300206AE70000ED
:100D10000010024000700040000042422DE9F04700
:100D20000F46050069D04A4E306800F00700B8420F
:100D300009D2306820F0070038433060306800F096
:100D40000700B84259D12878424C800705D5606821
:100D5000A96820F0F000084360602878C0073DD003
:100D60006968012001290DD0022923D05FF0020318
:100D700093FAA3F2B2FA82F242F02002520904D0AE
:100D8000226803E04FF40033F2E7626A93FAA3F3B8
:100D9000B3FA83F303F01F03984002422DD060683A
:100DA00020F0030008436060FFF736FE804641F202
:100DB00088390CE04FF00073DAE700BFFFF72CFE34
:100DC000A0EB0801494502D90320BDE8F08760681F
:100DD000696800F00C00B0EB810FEFD1306800F0D3
:100DE0000700B8420BD9306820F007003843306064
:100DF000306800F00700B84201D00120E5E728780C
:100E0000400705D56068E96820F4E0600843606049
:100E10002878000706D56068296920F4605040EA08
:100E2000C100606000F04EF86168F02292FAA2F210
:100E300001F0F001B2FA82F2D140074A515CC84099
:100E40000649086006480068FFF706FE0020BCE778
:100E500000200240001002407F2E000810000020F9
:100E60000800002008480949006849684FF4E0621A
:100E700092FAA2F201F4E061B2FA82F2D140044A9D
:100E8000515CC84070470000100000200010024074
:100E90008F2E000808480949006849684FF46052DD
:100EA00092FAA2F201F46051B2FA82F2D140044AFD
:100EB000515CC84070470000100000200010024044
:100EC0008F2E0008164A10B55168164801F00C0321
:100ED000042B20D0082B1ED14FF4701494FAA4F4E4
:100EE00001F47013B4FA84F4E3400F4CD26AE45C6A
:100EF0000F2393FAA3F302F00F02B3FA83F3DA405D
:100F0000094B1033C9039A5C06D500231946FFF735
:100F100057F9A0FB040110BD0448A4FB000110BD5B
:100F20000010024000127A005F2E000800093D0008
:100F30002DE9F84F050071D02878FC4EC0074FF01E
:100F4000010425D070686704C0F38100012807D030
:100F50007068C0F3810002281BD17068C00318D5E7
:100F600097FAA7F0B0FA80F040F02000400901D0D5
:100F7000306800E0706A97FAA7F1B1FA81F101F0E8
:100F80001F0104FA01F1084265D068680028D2D038
:100F900061E06868B0F5803F0BD010B1B0F5A02FCC
:100FA00017D0306820F480303060306820F4802022
:100FB00002E0306840F480303060F06AA96820F0C8
:100FC0000F000843F062686820B3FFF725FD8046F4
:100FD0000AE0306840F480203060EAE7FFF71CFD4B
:100FE000A0EB0800642871D897FAA7F0B0FA80F057
:100FF00040F02000400901D0306800E0706A97FAA4
:10100000A7F1B1FA81F101F01F0104FA01F10842E0
:10101000E4D020E0FFF700FD804607E0C2E000BF1B
:10102000FFF7FAFCA0EB08006428DCD897FAA7F0D9
:10103000B0FA80F040F02000400901D0306800E0B4
:10104000706A97FAA7F1B1FA81F101F01F0104FA71
:1010500001F10842E4D12878DFF8D48280074FF00C
:10106000000A4FF0020730D570684FF0F80B10F00F
:101070000C0F07D07068C0F38100022827D1706878
:10108000C00324D497FAA7F0B0FA80F040F0200013
:10109000400901D0306800E0706A97FAA7F1B1FA10
:1010A00081F101F01F0104FA01F1084202D0286920
:1010B000012877D130689BFAABF220F0F80168691B
:1010C000B2FA82F29040014331605AE064E128694B
:1010D00088B394FAA4F0B0FA80F048F82040FFF703
:1010E0009BFC814606E000BFFFF796FCA0EB0900E1
:1010F00002289AD897FAA7F0B0FA80F040F02000C2
:10110000400901D0306800E0706A97FAA7F1B1FA9F
:1011100081F101F01F0104FA01F10842E4D03068C6
:101120009BFAABF26969B2FA82F220F0F8009140C2
:101130000843306025E0FFE794FAA4F0B0FA80F0AD
:1011400048F820A0FFF768FC814605E0FFF764FC43
:10115000A0EB09000228CCD897FAA7F0B0FA80F0EB
:1011600040F02000400901D0306800E0706A97FA32
:10117000A7F1B1FA81F101F01F0104FA01F108426F
:10118000E4D1287800076CD5A869A8B394FAA4F034
:10119000B0FA80F008EB8000C0F88044FFF73CFC18
:1011A000814607E0A4E100BFFFF736FCA0EB090091
:1011B00002289ED897FAA7F0B0FA80F040F06000BD
:1011C000B4EB501F01D130680BE097FAA7F0B0FAEA
:1011D00080F040F06000B7EB501F01D1306A00E0B2
:1011E000706A97FAA7F1B1FA81F101F01F0104FAD0
:1011F00001F21042D8D034E0FFE794FAA4F1B1FA3A
:1012000081F108EB8101C1F880A4FFF705FC81465C
:1012100006E000BFFFF700FCA0EB090002289AD807
:1012200097FAA7F0B0FA80F040F06000B4EB501FDE
:1012300001D130680BE097FAA7F0B0FA80F040F0E7
:101240006000B7EB501F01D1306A00E0706A97FA76
:10125000A7F1B1FA81F101F01F0104FA01F2104285
:10126000D8D12878400768D5F0694FF00009C00050
:1012700009D4F06940F08050F061F0694FF0010945
:1012800000F0805000902B480168C90512D4016815
:1012900041F480710160FFF7BFFB834606E000BFA9
:1012A000FFF7BAFBA0EB0B00642875D82148006853
:1012B000C005F5D5E86801280AD008B1052811D085
:1012C000306A20F001003062306A20F0040002E051
:1012D000306A40F001003062E86868B3FFF79CFBB9
:1012E00083460DE0306A40F004003062F0E700BF52
:1012F000FFF792FBA0EB0B0141F2883081424BD803
:1013000097FAA7F0B0FA80F040F04000B4EB501F1D
:1013100001D1306813E097FAA7F0B0FA80F040F0FE
:101320004000B7EB501F09D1306A08E000100240BE
:1013300000004242007000400CE040E0706A97FA02
:10134000A7F1B1FA81F101F01F0104FA01F2104294
:10135000CED02DE0FFF760FB834607E0FFF75CFB94
:10136000A0EB0B0141F28830814215D897FAA7F023
:10137000B0FA80F040F04000B4EB501F01D130686B
:101380000CE097FAA7F0B0FA80F040F04000B7EB1D
:10139000501F02D1306A01E083E0706A97FAA7F12A
:1013A000B1FA81F101F01F0104FA01F21042D5D126
:1013B000B9F1000F03D0F06920F08050F061E869C6
:1013C00080B37168C1F38101022977D04FF0807139
:1013D0004F000228504609D091FAA1F1B1FA81F1EB
:1013E00048F82100FFF718FB05465DE0894691FAB1
:1013F000A1F1B1FA81F1C24648F82100FFF70CFBD8
:10140000804605E0FFF708FBA0EB0800022848D85B
:1014100097FAA7F0B0FA80F040F02000400902D01F
:10142000306801E066E0706A97FAA7F1B1FA81F1DD
:1014300001F01F0104FA01F10842E3D1D5E90810D7
:101440000843716821F474110843706099FAA9F097
:10145000B0FA80F04AF82040FFF7DEFA054604E0D3
:10146000FFF7DAFA401B02281BD897FAA7F0B0FA68
:1014700080F040F02000400901D0306800E0706A40
:1014800097FAA7F1B1FA81F101F01F0104FA01F115
:101490000842E5D02EE000BFFFF7BEFA401B02284D
:1014A00002D90320BDE8F88F97FAA7F0B0FA80F0D0
:1014B00040F02000400902D0306801E00BE0706A83
:1014C00097FAA7F1B1FA81F101F01F0104FA01F1D5
:1014D0000842E1D10EE00128E4D070682A6A00F4E5
:1014E0008031914204D1696A00F47010884201D0C1
:1014F0000120D7E70020D5E710B5401EB0F1807F6E
:1015000001D3012010BD4FF0E02460610F2160176E
:1015100000F07FFE0020A06107202061002010BDA8
:10152000F0B590F83C20012A29D0012480F83C40F5
:10153000022280F83D2003685A689D68114EB3422C
:1015400003D122F470074A683A4322F070070A6810
:101550003A435A600268B24205D0B2F1804F02D0DD
:10156000094B9A4204D1896825F0800319439160A0
:1015700080F83D40002180F83C100846F0BD022074
:10158000F0BD0000002C01400040014010B50400F7
:1015900003D094F83D0010B107E0012010BD0020F9
:1015A00084F83C00204600F023F8022084F83D0037
:1015B000211D206800F090FB012084F8480084F889
:1015C0003E0084F83F0084F8400084F8410084F82D
:1015D000420084F8430084F8440084F8450084F80D
:1015E000460084F8470084F83D00002010BD00004C
:1015F00008B50C4A01680C48914207D1C16941F015
:101600001001C161C06900F0100009E0074A914271
:1016100007D1816941F480318161806900F48030B3
:10162000009008BD00100040001002400040014042
:1016300090F83D10012901D001207047022180F867
:101640003D1000680B49884205D0B0F1804F02D0B0
:101650000949884207D18168084A1140062906D005
:10166000B1F5803F03D0016841F001010160002025
:1016700070470000002C01400040014007000100BD
:1016800070B5044690F83C00012817D0012584F875
:101690003C50022084F83D00226890682E4B184090
:1016A00020F47F4090600868502830D00DDC20285E
:1016B0004DD005DC98B310283BD148E0022070BD26
:1016C000302844D0402834D139E0602828D0702810
:1016D00006D0B0F5805F2CD0B0F5005F29D10AE0CC
:1016E000CB68D1E90121206800F032FB20688168D5
:1016F00041F0770109E0CB68D1E90121206800F0D1
:1017000027FB2068816841F48041816011E0CA684C
:101710004968206800F02EFB5021206807E016E0A1
:10172000CA684968206800F036FB6021206800F034
:1017300019FB84F83D50002084F83C0070BDCA6855
:101740004968206800F016FB40212068EFE7226816
:1017500001461046EBE7000088FFFEFF10B50400CD
:1017600002D0A06F10B107E0012010BD002084F866
:101770007400204600F026F82420A0672068016845
:1017800021F001010160204600F0AAFB0128ECD005
:10179000606A10B1204600F010FB2068416821F417
:1017A000904141602068816821F02A0181602068B1
:1017B000016841F0010101602046BDE8104000F0E1
:1017C00060BB000010B586B0044614216846FEF7E1
:1017D00051FD1349206888421FD11248C16941F464
:1017E0008021C161C16901F480210591416941F401
:1017F000802141614069694600F4802005904FF4E2
:10180000407000900220019000200290032003907D
:10181000072004900448FFF723F806B010BD00002D
:101820000048004000100240000400482DE9F84341
:101830000446806F1F4616460D4620284FD1CDB175
:10184000C6B194F87400012849D0012084F87400CE
:101850004FF00008C4F880802120A067FFF7DCF873
:10186000A4F850608146A4F85260A068B0F5805F8B
:1018700003D004E00120BDE8F883206928B12E469A
:101880005FF0000584F8748010E00026FAE78021FC
:10189000204600F0C7FBB8B9C6B116F8010B2168A5
:1018A0000885B4F85200401EA4F85200B4F8520063
:1018B0004B464FF0000200970028E8D14FF040015E
:1018C000204600F0AFFB30B10320D4E735F8020B1F
:1018D000C0F30800E3E72020A0670020CBE7022048
:1018E000C9E7FEE770B586B014216846FEF7C2FC72
:1018F0001D48416941F480014161416901F4800161
:101900000591416941F400214161416901F40021DF
:101910000591416941F4802141614069134E00F411
:1019200080200590002202213046FFF770F8012246
:1019300004213046FFF76BF80220009000241120AC
:1019400001250394CDE9010569463046FEF788FF7D
:1019500004200090CDE90154694630460394FEF717
:101960007FFF06B070BD0000001002400008004874
:1019700010B588B000241348009401940294039495
:10198000049405940E49069401601F21C0E90114D6
:101990004FF6FE71C0E9031444618461FFF7F6FD60
:1019A0004FF48050009069460648FFF769FE0494A2
:1019B00004A904480694FFF7B3FD08B010BD000069
:1019C00000400140F80300200948084901604FF435
:1019D000E1314160002181600C22C160C0E9041244
:1019E0008161C16101624162FFF7B8BE00480040F9
:1019F00044040020FEE77047704700002DE9F041E5
:101A0000144E00250421304600F07DF80024012703
:101A10000421304600F089F8002204213046FEF708
:101A2000F6FF022001F0F6F90421304600F06BF8D1
:101A300004213046FEF7E6FF18B107FA04F0284308
:101A4000C5B2502001F0E6F9641C082CE0DB284602
:101A5000BDE8F0810008004810B500F079F8CC200E
:101A600000F034FB662000F031FB032000F02EFB79
:101A7000222000F02BFB002000F028FB342000F097
:101A800025FBFFF7BBFF074C04F8530FFFF7B6FF2A
:101A90006070AA2000F01AFBBDE810404FF47A7085
:101AA00001F0B8B91800002010B500F051F8CC20B2
:101AB00000F00CFB662000F009FB042000F006FBA0
:101AC000332000F003FB002000F000FB342000F086
:101AD000FDFA002000F0FAFA642001F09BF9FFF70C
:101AE0008DFF074C04F8450FFFF788FF6070AA20B0
:101AF00000F0ECFABDE81040642001F08BB9000062
:101B000018000020704730B585B00C4605461421FA
:101B10006846FEF7AFFB0021CDE90041029169461E
:101B20002846FEF79DFE05B030BD30B585B00C46A9
:101B3000054614216846FEF79DFB1120CDE90040C3
:101B40000020039069462846FEF78AFE05B030BDA6
:101B500010B5124C04212046FFF7E7FF00220421B4
:101B60002046FEF754FF4FF4F07001F053F90421C2
:101B70002046FFF7C8FF412001F04CF90421204620
:101B8000FEF740FF064B38B1022018704FF4C870C2
:101B900001F040F9187810BD0120F6E70008004870
:101BA0000000002070B5FFF7D3FF134C6070CC200D
:101BB00000F08CFA662000F089FA052000F086FA21
:101BC000832000F083FA0B2000F080FA032000F05D
:101BD0007DFAA52000F07AFA0F2000F077FAFFF7DF
:101BE0000DFF064D2870FFF709FF6870AA2000F06E
:101BF0006DFA607870BD0000000000201800002021
:101C000010B5FFF7A5FF15494870CC2000F05EFA2B
:101C1000662000F05BFA052000F058FA832000F0FF
:101C200055FA0B2000F052FA032000F04FFAA520DD
:101C300000F04CFA0F2000F049FAFFF7DFFE084CE5
:101C4000A070FFF7DBFEE070AA2000F03FFABDE8CD
:101C500010404FF47A7001F0DDB800000000002061
:101C600018000020FEF7DEBE30B59DB02821684682
:101C7000FEF700FB142117A8FEF7FCFA34210AA88E
:101C8000FEF7F8FA02250120049000951020059037
:101C900000244FF4C010CDE9084007956846FFF7CF
:101CA00047F90F20CDE917056802CDE91940012158
:101CB00017A81B94FFF732F868040A9013940AA837
:101CC000FEF732FF1DB030BD0248016841F47001DB
:101CD0000160704788ED00E0F0B50268184B4FF0E6
:101CE0008047984201D0B84203D122F070044A687C
:101CF0002243144C144D154E984207D0B84205D0DB
:101D0000A04203D0A84201D0B04203D122F44077D0
:101D1000CA683A434F6922F080023A4302608A68F7
:101D2000C2620A688262984205D0A04203D0A842EB
:101D300001D0B04201D10969016301214161F0BDC7
:101D4000002C014000400140004401400048014097
:101D500010B5846842EA032224F47F440A432243F4
:101D6000826010BD826822F070020A4342F00701CF
:101D70008160704710B5036A046A24F001040462AC
:101D8000846924F0F00444EA021423F00A020A43AE
:101D90008461026210BD10B5036A23F01003036270
:101DA0008369046A23F4704343EA023224F0A003F7
:101DB00043EA01118261016210BD90F82410C90745
:101DC00006D001684A68836A22F400321A434A60E6
:101DD00090F82410890706D501684A68C36A22F47E
:101DE00080321A434A6090F82410490706D50168EA
:101DF0004A68036B22F480221A434A6090F8241048
:101E0000090706D501684A68436B22F400421A4369
:101E10004A6090F82410C90606D501688A68836B69
:101E200022F480521A438A6090F82410890606D55D
:101E300001688A68C36B22F400521A438A6090F8E2
:101E40002410490611D501684A68036C22F48012F7
:101E50001A434A60016CB1F5801F06D101684A68D7
:101E6000436C22F4C0021A434A6090F82410090619
:101E700006D501684A68806C22F4002202434A6059
:101E80007047F8B500260446C0F88060FEF7C4FD30
:101E90000546206800686FF07E47000708D52B468E
:101EA00000224FF400112046009700F0BBF860B903
:101EB0002068006840070AD52B4600224FF48001B5
:101EC0002046009700F0AEF808B10320F8BD2020AE
:101ED000A067E067266684F874600020F8BD000003
:101EE00070B5044680682169E2690843616900258C
:101EF0001143226808431168444B194001431160A3
:101F000020684168E26821F4405111434160A169B1
:101F1000206A084321688A6822F4306202438A609A
:101F20003B492068884210D13A48006B10F003000A
:101F300011D0012805D0022805D003280DD1022197
:101F40000CE004210AE0082108E03349884202D06D
:101F50003249884201D1002100E01021E3694FF4A9
:101F600000422F484FF6EF76934227D1092941D2FC
:101F7000DFE801F005080E400B4040402200FEF76C
:101F800071FF04E0FEF786FF01E0FEF79BFF90B3D0
:101F90004100606801EB5001B1FBF0F080B2A0F1AC
:101FA0001001B14226D84FF6F0710140C0F3420053
:101FB00001432068C16023E01046E9E7092919D2EE
:101FC000DFE801F005080E180B1818181A00FEF7C4
:101FD00049FF04E0FEF75EFF01E0FEF773FF50B13A
:101FE000616800EB5100B0FBF1F080B2A0F110018C
:101FF000B14203D9012503E01046F1E72168C8602A
:1020000000206066A066284670BD0000F369FFEFFF
:1020100000380140001002400044004000480040E9
:1020200000127A002DE9F0479A4617460E460446FC
:102030004FF000094FF02008089D39E0681C37D0A8
:10204000FEF7EAFCA0EB0A00A84222D80DB32068F4
:10205000016849072CD5C069C043000528D4216810
:102060004FF4006008622068016821F4D0710160BB
:102070002068816821F001018160C4F87880C4F88B
:102080007C80C4F8808000BF84F874900320BDE891
:10209000F0872068016821F4D071016020688168B0
:1020A00021F001018160C4F87880C4F87C80EBE7FE
:1020B0002068C06936EA000004D00020B842BDD0D4
:1020C0000020E4E70120F9E7FEE700002DE9F041F8
:1020D000194D074604212846FFF727FD0024012655
:1020E00006FA04F038424FF00401284611D0FFF7F9
:1020F0001CFD002204212846FEF789FC012000F087
:1021000089FE04212846FFF7FEFC3C2000F082FEF9
:102110000DE0FFF70AFD002204212846FEF777FCB8
:102120003C2000F077FE04212846FFF7ECFC641CFD
:10213000082CD5DBBDE8F0810008004810B5FFF79A
:1021400007FDCC20FFF7C2FF6620FFF7BFFF0C2082
:10215000FFF7BCFF1120FFF7B9FF0020FFF7B6FF24
:102160000020FFF7B3FFCC20FFF7B0FFBB20FFF745
:10217000ADFFCC20FFF7AAFF8020FFF7A7FFC0200C
:10218000FFF7A4FF0020FFF7A1FF0220FFF79EFF4B
:10219000FF20FFF79BFFFF20FFF798FFFFF72EFCC4
:1021A000074C04F82C0FFFF729FC6070AA20FFF7FA
:1021B0008DFFBDE810404FF47A7000F02BBE000098
:1021C000180000200FB4084B10B504A902AA039808
:1021D00000F006FB044602A9002000F0A2FC204605
:1021E00010BC5DF814FB0000232B0008410008021E
:1021F00018BF04200A0E18BF40F001004FF07F42C4
:1022000032EA010108BF40F00200012808BF0520A2
:1022100070470907090E002804DB00F1E02080F870
:102220000014704700F00F0000F1E02080F8141D4A
:102230007047000010EE101A08B5444A6846B2EB29
:10224000410F28D94FF0E640B0EB410F94BF00207A
:102250004FF0FF3000900098002861DB60EE000A2C
:1022600010F0010F45D010F0020FDFED391A9FED8D
:10227000391A00EEE11ADFED381A40EE811A21EE2C
:10228000A01AF0EE400A40EE010A08BFF1EE600A23
:10229000B0EE600A08BD314B21F0004293423CD9B8
:1022A00011F0004FDFED2E0A20EE201ADFED2D0A8F
:1022B00019BF31EE601A71EE200A31EE201A71EE6C
:1022C000600ABDEEE01A11EE100A9FED271A00F029
:1022D000030000EEC10A9FED251A009000EEC10A2E
:1022E0009FED231A00EEC10A9FED221A00EEC10AEB
:1022F000B1E79FED211A9FED210A10F0020F00EEC9
:10230000810A9FED1F1A00EE801AB7EE000A00EE58
:10231000810A18BFB1EE400A08BD00F0A1F99AE7A2
:1023200010EE100A4000B0F17F4F3CBFB7EE000A3C
:1023300008BD07D14FF0010000F04CFABDE808409D
:1023400000F07EB9BDE8084000F076B9B61F927E75
:10235000336D4C39DA82083CA0AA2ABE490E4946A0
:1023600083F9223F0000004B0000C93F00A0FD3967
:102370000020A2331A61342CB93AB2BACA9F2A3D5E
:10238000DDFFFFBE10B52DED040B86B09DED060BF5
:1023900010EE100A10EE901A8DED000B002818BFF9
:1023A0000120084320F00040C0F17F6000F1E040D0
:1023B000C00F21D19DED080B10EE101A10EE900AFF
:1023C0008DED000B002918BF0121084320F00040CB
:1023D000C0F17F6000F1E040C00F0DD1294907989E
:1023E000B1EB400F04BF0698002842D00998400086
:1023F00004BF089800283CD09DED080B53EC102B2F
:102400009DED060B51EC100BFEF74FF9CDE90201E3
:102410009DED020B40F2FF7110EE900A8DED000B66
:1024200031EA105021D00798039900F0004001F0E4
:102430000041884219D09DED080B8DED040B9DEDF8
:10244000020B8DED000B10EE900A059961F31E0052
:1024500005909DED041B9DED020B51EC110B53EC0F
:10246000102BFDF7B6FFCDE902019DED020B0AB07E
:1024700010BD012000F0AEF90AB0BDE8104000F038
:10248000CBB800000000E0FF00B510EE101A2DEDF3
:10249000028B81B0524A6846B2EB410F2ED94FF001
:1024A000E640B0EB410F94BF00204FF0FF300090AA
:1024B0000098B0EE408A00286ADB10F0010F4BD084
:1024C00068EE080A9FED471A9FED470A00EE810A61
:1024D0009FED461A10F0020F00EE801AB7EE000AC8
:1024E00000EE810A02BF01B0BDEC028B00BD00BF4F
:1024F00001B0B1EE400ABDEC028B00BD3C4B21F0B7
:102500000042934241D911F0004FDFED3A0A20EE2C
:10251000201ADFED390A19BF31EE601A71EE200A78
:1025200031EE201A71EE600ABDEEE01A11EE100ACB
:102530009FED321A00F0030000EEC10A9FED301A41
:10254000009000EEC10A9FED2F1A00EEC10A9FED28
:102550002E1A00EEC10AABE728EE080A9FED2B1AEF
:10256000DFED2B0A10F0020F40EE410A9FED291A11
:1025700000EE201A61EE000AB0EE480A08EE200ACA
:10258000B6D101B0BDEC028B00BD00F069F88FE759
:1025900018EE100A4000B0F17F4F0DD218EE100A6D
:1025A000FFF724FE042808BF00F052F8B0EE480AF6
:1025B00001B0BDEC028B00BD09D1012000F00AF989
:1025C00001B0BDEC028B5DF804EB00F039B801B04E
:1025D000B0EE480ABDEC028B5DF804EB00F02CB8BD
:1025E000B61F927EB93AB2BACA9F2A3DDDFFFFBE3E
:1025F000490E494683F9223F0000004B0000C93FC5
:1026000000A0FD390020A2331A61342C336D4C39FF
:10261000DA82083CA0AA2ABE9FED050B10B553EC48
:10262000102B51EC100BFDF7D7FE41EC100B10BD39
:10263000000000000000000030EE000A70470000BB
:10264000DFED020A80EEA00A7047000000000000E3
:102650009FED020A20EE000A704700000000001003
:102660002DE9F0014FF07F42B2EB410F9FBF4FF0D9
:10267000FF310160BDE8F00170474FF0004242EACF
:102680000123C1F3C752783A551112F01F0C434C85
:10269000CCF120067C44C1F3C752A2F178024FEA84
:1026A000621204EB820254F8254008BFD2E90156B9
:1026B00012D0556804FA0CF425FA06F73C439768E3
:1026C00005FA0CF527FA06F8D26807FA0CFCF24076
:1026D00045EA08054CEA0206A4FB034CA5FB03529D
:1026E000A6FB03631D449D4234BF01260026131937
:1026F000334416B1934202D903E0934201D201223E
:1027000000E00022624402F1200C9206DC0C42EA56
:10271000443200EE102A5B03DFED210AF8EEC01A06
:1027200000EE103A4FEA9C1C11F0004FB8EE400A40
:10273000C0F800C020EE201A00EE105ADFED190A92
:10274000B8EE400A20EE200A71EE810A70EE800A8F
:1027500010EE902A02F500626FF30B0200EE902A51
:1027600070EEE11A31EEC11ADFED101A30EE411AA7
:102770009FED0D0A20EE800A01EE210A9FED0C1A52
:1027800000EE810A04BFBDE8F0017047CCF1805132
:102790000160BDE8F001B1EE400A7047000800009A
:1027A000000000360000802C22AAFD29DB0FC92F73
:1027B0000000C92F02E008C8121F08C1002AFAD180
:1027C00070477047002001E001C1121F002AFBD1B1
:1027D00070470000014908607047000014000020A5
:1027E0002DE9FF4F8BB088460546002606E02528D8
:1027F0000BD0DDE90D1290476D1C761C287800285F
:10280000F5D10FB03046BDE8F08F0024A146A246B6
:102810000122AE4900E0044315F8013F203B02FAD3
:1028200003F00842F7D128782A2810D06FF02F0241
:102830002878A0F13001092915D809EB890102EBAC
:10284000410144F0020400EB01096D1CF0E758F867
:10285000041B5FEA010903D544F40054C9F10009DF
:1028600044F002046D1C28782E2817D115F8010FAA
:1028700044F004042A280ED06FF02F022878A0F12B
:10288000300109290AD80AEB8A0102EB410100EB69
:10289000010A6D1CF2E758F804AB6D1C28786C280F
:1028A0000FD006DC4C2817D068280DD06A2814D128
:1028B00004E0742810D07A280FD10DE044F40014FD
:1028C0000AE044F4801401E044F440146978814241
:1028D00002D104F580146D1C6D1C2878692865D020
:1028E00006DC00288DD0632827D0642806D15DE05F
:1028F0006E2808D073282AD0752877D0DDE90D120C
:102900009047761CE0E0C4F30250022809D0032867
:102910000DD0D8F8001004280DD00E6008F104087E
:10292000D2E0D8F80010F217C1E90062F6E7D8F853
:1029300000100E80F2E70E70F0E718F8041B8DF817
:10294000001000208DF80100EB46012003E058F84C
:1029500004BB4FF0FF3061074FF0000701D40AE0DD
:102960007F1C57450DDA8742FADB1BF80710002958
:10297000F6D106E07F1C8742FCDB1BF8071000291C
:10298000F8D1DDE90D23A9EB07008146214600F0CF
:10299000B1F83044C61904E0DDE90D121BF8010B53
:1029A00090477F1EF8D22146484688E058F8040B2D
:1029B000C4F302514FF00A0B032900D100B20429DD
:1029C00000D140B2002802DA40422D2102E0210568
:1029D00005D52B218DF82410012104E006E0E10744
:1029E00010D02021F6E708AF089113E058F8040B47
:1029F000C4F302514FF00A0B032900D180B204291D
:102A000000D1C0B20021EEE75946FDF783FD303119
:102A100007F8011D0028F7D1ADEB070000F1200BEE
:102A2000600702D524F4803401E04FF0010ADA4552
:102A300002DDAAEB0B0000E00020824600EB0B0158
:102A400008980144A9EB01000A90E00306D4DDE9EF
:102A50000D2321460A9800F04DF806444FF0000976
:102A600008E009A911F80900DDE90D12904709F104
:102A70000109761C08998945F3DBE0030CD5DDE9F3
:102A80000D2321460A9800F035F8064404E0DDE9FC
:102A90000D1230209047761CBAF10001AAF1010A0C
:102AA000F5DC05E0DDE90D1217F8010B9047761C07
:102AB000BBF10001ABF1010BF4DC0A982146DDE922
:102AC0000D2300F005F806446D1C97E60928010067
:102AD0002DE9F041044600251E461746880404D41B
:102AE00005E039462020B0476D1C641EF9D5284604
:102AF000BDE8F0812DE9F041044600251E469046D0
:102B0000C80301D5302700E02027880404D505E05C
:102B100041463846B0476D1C641EF9D52846BDE8CD
:102B2000F0810A68531C0B6010707047B7EE001AF2
:102B300000B5C1EE001A87B0DFED0B0A9FED0B1A4E
:102B4000CDED030A8DED000A20EE010A1822694638
:102B5000CDED011A8DED020ACDED040ACDED050A89
:102B6000FDF76FFB07B000BD00000000DB0FC940A0
:102B700010B5FFF717F80120FDF7EEFDFFF740F85D
:102B80000220FDF7E9FDFDF747FE0820FDF7E4FD13
:102B900000F01CF90020FDF7DFFDFFF7CFFABDE8DC
:102BA00010400620FDF7D8BDF0B5124B00200246BC
:102BB0004FF4C87403F5C8710A541A54401CA0425B
:102BC000FADB01220A704A7000200B4D8A7013460E
:102BD00063262C5C4FF47A7714FB07F4B4FBF6F40D
:102BE0002344CC18401C04F8012CCA5462700728F6
:102BF000EFDBF0BD8C000020582E000886B0FDF7FA
:102C000019FFFFF731F8FEF76DFE002433480094FA
:102C100001943149029401601F21C0E901144FF66B
:102C2000FE718461C160FEF7B1FC009469462B48D7
:102C30000294FEF775FCFEF7C7FEFEF799FE2748E3
:102C4000FEF7F6FC25484C30FEF7F2FCFFF7ACFF30
:102C5000012202212248FDF7DAFEFFF789FFB7EED5
:102C6000000A6846FFF762FF182269461D48FDF713
:102C7000E8FAB7EE040A6846FFF758FF1948182229
:102C800069461830FDF7DDFAFDF7C6FE04464FF43D
:102C9000FA6700BF00F084F806B2BE42FADAFDF728
:102CA000BBFE041B00EE104A05460E48B8EE400A73
:102CB00000F022F80B48224633460BA11038FFF7EC
:102CC00081FA084982B210391423A1F18400FEF779
:102CD000ADFD2C46DEE7000000100040AC030020F4
:102CE00000080048D804002064743D25640A766119
:102CF0006C3D25640000000070B504462DED028B8C
:102D000010EE100AFDF7D7FB9FED231B53EC112BA0
:102D1000FDF762FB41EC180BE068FDF7CCFB53ECD0
:102D2000182BFDF7B2FAFDF7D9FB0546E0606068A5
:102D3000FDF7C1FB41EC180B2846FDF7BCFB41EC4D
:102D4000100BB0EE481AF0EE681AFFF71BFB51ECBF
:102D5000100BFDF7C3FB00EE100A84ED030AD4ED5F
:102D6000020A20EE200AFFF765FAD4ED040A30EEDD
:102D7000200A84ED040A94ED030AD4ED020A20EE41
:102D8000200AFFF781FBD4ED050A30EE200A84ED1E
:102D9000050ABDEC028B70BD0000000000408F40B2
:102DA00010B5FEF759FE0520FDF7D6FCFEF77CFEB8
:102DB0004FF47A7000F02EF8034810F8261F407880
:102DC00040EA012000B210BD1800002010B5FEF747
:102DD000BFFECC20FFF77AF96620FFF777F90220D3
:102DE000FFF774F95520FFF771F93820FFF76EF9F6
:102DF000FEF704FE064CA071FEF700FEE071AA206B
:102E0000FFF764F9BDE810404FF47A7000F002B8A3
:102E1000180000200C490D4A0968B1FBF2F141434A
:102E20000B48026842F0807202600A480022426049
:102E3000026842F00102026042688A42FCD30168E3
:102E400021F00101016070471000002040420F0096
:102E5000FCED00E0001000E005050202020A0A0293
:102E6000030405060708090A0B0C0D0E0F101001CC
:102E700002030405060708090A0B0C0D0E0F1000CB
:102E8000000000000000000102030406070809001A
:102E90000000000102030400000000006E83F9A29C
:102EA0002915444ED15727FCC0DD34F5999562DBD6
:102EB0004190433CAB6351FED82E00080000002037
:102EC00018000000B4270008F02E000818000020A9
:102ED000F0080000C4270008000000000100000006
:102EE000100000000000000000127A000000000046
:040000050800018965
:00000001FF
