:020000040800F2
:10000000C00800209D0100081F18000863170008A1
:100010001D1800089D080008711E0008000000005F
:100020000000000000000000000000002D19000882
:10003000C509000800000000211800088D1A0008FA
:10004000B7010008B7010008B7010008B7010008B0
:10005000B7010008B7010008B7010008B7010008A0
:10006000B7010008B7010008B7010008B701000890
:10007000B7010008B7010008B7010008B701000880
:10008000B7010008B7010008B7010008B701000870
:10009000B7010008B7010008B7010008B701000860
:1000A000B7010008B7010008B7010008B701000850
:1000B000B70100080000000000000000B7010008C0
:1000C000B7010008B7010008B701000800000000F0
:1000D000B7010008B7010008B7010008B701000820
:1000E000B7010008B7010008B701000800000000D0
:1000F0000000000000000000000000000000000000
:10010000000000000000000000000000B70100082F
:100110000000000000000000B7010008000000001F
:1001200000000000000000000000000000000000CF
:1001300000000000000000000000000000000000BF
:10014000B7010008B701000800000000000000002F
:10015000000000000000000000000000000000009F
:10016000B7010008B7010008B7010008B70100088F
:10017000B7010008000000000000000000000000BF
:1001800000000000B7010008DFF80CD000F074FB9D
:1001900000480047D5350008C008002006488047C1
:1001A00006480047FEE7FEE7FEE7FEE7FEE7FEE75C
:1001B000FEE7FEE7FEE7FEE7DD1A0008890100081A
:1001C0002DE9F05F0546002092469B46884606468C
:1001D000814640241BE0284641464746224600F01F
:1001E00020F853465A46C01A914110D3114618467A
:1001F000224600F0A5F92D1A67EB01084F4622466A
:100200000120002100F09CF917EB00094E41201E4F
:10021000A4F10104DFDC484631462A464346BDE8E6
:10022000F09F202A04DB203A21FA02F000217047D7
:1002300021FA02F3D040C2F120029140084319464E
:10024000704740EA01039B0703D009E008C9121F69
:1002500008C0042AFAD203E011F8013B00F8013B80
:10026000521EF9D27047D2B201E000F8012B491EAC
:10027000FBD270470022F6E710B513460A46044643
:100280001946FFF7F0FF204610BD2DE9FE4F8046CE
:1002900081EA0300C00F0C46009021F0004123F0DA
:1002A0000045B8EB0200A94105D2404621469046E0
:1002B0001C460B46024623F00040104347D0270D52
:1002C000C7F30A00C3F30A510290401A0190402874
:1002D0006BDAC3F3130040F4801B0098924620B100
:1002E0000023D2EB030A63EB0B0B01985946C0F1D4
:1002F0004002504600F024F906460D465046594645
:10030000019A00F02CF910EB08006141002487EA03
:10031000115284EAE7731A4340D0009A62B3019AFB
:10032000012A4FEA075215DC001B61EB02014FF076
:10033000004202EA0752CDE90042001C41F580115B
:1003400032462B4600F063F903B0BDE8F08F40461B
:100350002146F9E7001B61EB0201001C41F5801307
:1003600000185B412018A2F5001747EB030140EA93
:10037000D570B6196D4111E06D084FEA360645EAB1
:10038000C0754FEA0752001B61EB0201001C41F5EA
:10039000801149084FEA30000019514132462B467E
:1003A00003B0BDE8F04F00F023B9009801224000EF
:1003B0000023D0EB020263EBE073009821464FEA82
:1003C000E074B8EB000061EB0401E9E783F000435F
:1003D0005BE781F0004158E72DE9F04D81EA030425
:1003E00004F0004B21F0004514464FF0000A23F0C2
:1003F000004150EA050220D054EA01021DD0C5F3A5
:100400000A570246C5F31303C1F31300C1F30A569A
:1004100040F4801543F48013A7EB0608101BD64662
:1004200008F2FD3873EB050002D308F1010801E082
:1004300092185B41B8F1000F03DA00200146BDE8D5
:10044000F08D00204FF48011064684460EE0171B05
:1004500073EB050705D3121B63EB050306434CEA58
:10046000010C49084FEA300092185B4150EA01073D
:10047000EDD152EA030012D082EA040083EA0501BA
:10048000084305D0101BAB4106D20122002306E031
:1004900000224FF0004302E06FF0010253101AEB0C
:1004A00006004CEB085110EB0A0041EB0B01BDE8D4
:1004B000F04D00F09DB800F0004230F000400AD04E
:1004C000C10D01F56071C0F3160042EA0151C20886
:1004D00040071143704700200146704701F0004378
:1004E00030B421F0004150EA010206D00A0DA2F515
:1004F0006072C1F31301002A02DC30BC0020704797
:10050000440F44EAC104C100E01830BC00EBC25003
:1005100000F037B830B50B460146002020220124F8
:1005200009E021FA02F59D4205D303FA02F5491BC1
:1005300004FA02F52844151EA2F10102F1DC30BDD7
:10054000202A04DB203A00FA02F100207047914093
:10055000C2F1200320FA03F3194390407047202A88
:1005600006DBCB17203A41FA02F043EAE07306E0DB
:1005700041FA02F3D040C2F12002914008431946EB
:1005800070470029A8BF7047401C490008BF20F0F1
:100590000100704710B4B0FA80FC00FA0CF050EA89
:1005A000010404BF10BC704749B1CCF1200421FA0A
:1005B00004F411FA0CF118BF012121430843A3EB05
:1005C0000C01CB1D4FEA00614FEA102042BF002012
:1005D00010BC704700EBC35010440029A4BF10BCEE
:1005E0007047401C490008BF20F0010010BC704754
:1005F00010B5141E73F1000408DA401C41F100012B
:1006000092185B411A4301D120F0010010BD2DE981
:10061000F04D92469B4611B1B1FA81F202E0B0FA78
:1006200080F220329046FFF78BFF04460F4640EAE7
:100630000A0041EA0B0153465A46084313D01146BB
:1006400053EA010019D0C8F140025046FFF7E9FD16
:1006500005460E46504659464246FFF771FF08438D
:1006600005D0012004E020463946BDE8F08D002089
:10067000054346EAE0762C4337430A986305E40ACB
:10068000A0EB08000022FD0A44EA47540A3002D5D4
:1006900000200146E9E7010510196941DDE9084537
:1006A00000196941BDE8F04DA2E72DE9FE4F81EA4E
:1006B000030404F0004421F0004100944FF0000BCB
:1006C00023F0004350EA01045ED052EA03045BD0F9
:1006D000C3F30A54C1F30A552C44A4F2F334019431
:1006E000A0FB0254C1F3130141F48011C3F31303BF
:1006F00043F4801301FB024400FB034E840A970A73
:1007000044EA815447EA8357A4FB076802958D0A9F
:1007100005FB07854FEA932C04FB0C542705029D2B
:100720004FEA065847EA1637B5EB08056EEB070C9B
:10073000870E920E47EA811742EA8312A7FB020155
:10074000B6EB0B0164EB00042B0D43EA0C335E188F
:1007500044EB1C50DA465146E7FB0201C5F3130493
:100760004FEA0B3343EA14534FEA0432019C43EA45
:100770000603A4F10C040294009CCDE900B4FFF739
:1007800046FF03B0BDE8F08F00200146F9E72DE9F0
:10079000FE4FC3F30A5701F000450024C1F30A5687
:1007A000C3F31303C1F3130143F4801312EB020AE2
:1007B000A64641F48011009543EB030CA7F1010B11
:1007C00016E0B0EB0A0061EB0C01071E71F10007A7
:1007D00007DA4FF00008D0EB080085F0004568EB21
:1007E0000101171A73EB0107EBD3761E001849417C
:1007F0005E45F6DA50EA010209D0CDE900E50022B3
:1008000013460296FFF703FF03B0BDE8F08F2046C2
:100810000099F9E7C1F30A52C1F3130140F2FF3323
:1008200041F480119A4202DA00200146704740F2FA
:1008300033439A42A2F2334202DC5242FFF7F1BC48
:10084000FFF77EBE30B5041E71F1000404DB4FF0EB
:100850000044404264EB0101141E73F1000405DB07
:100860001C464FF00043524263EB0403994208BF19
:10087000904230BD00207047064C074D06E0E0680E
:1008800040F0010394E8070098471034AC42F6D3D7
:10089000FFF77EFCBC390008DC390008FEE70000E9
:1008A00070B52E4C012818D002281ED0032824D061
:1008B00004282AD0052830D0062836D007283CD076
:1008C000082842D0002807D15FF0530500F0AAFFA6
:1008D00060556D1C572DF9DD70BD082500F0A2FF95
:1008E00060556D1C0C2DF9DD70BD0D2500F09AFFD3
:1008F00060556D1C112DF9DD70BD122500F092FFC1
:1009000060556D1C162DF9DD70BD172500F08AFFAE
:1009100060556D1C1B2DF9DD70BD1C2500F082FF9C
:1009200060556D1C2B2DF9DD70BD2E2500F07AFF72
:1009300060556D1C322DF9DD70BD332500F072FF5E
:1009400060556D1C442DF9DD70BD492500F06AFF2E
:1009500060556D1C522DF9DD70BD0000180000209F
:1009600010B501F009F8CC2001F084FA662001F0FE
:1009700081FA012001F07EFA7A2001F07BFA00F082
:1009800051FF074C04F8550F00F04CFF6070AA208F
:1009900001F070FABDE810404FF47A7002F02ABFFF
:1009A000180000200548016841F08071016004488A
:1009B000016841F00101016070470000FCED00E0BA
:1009C000001000E0704700002DE9FC4FDFF884A123
:1009D000002301250AF1040B03244FF00F0C0BF147
:1009E000040EB0E005FA03F73A406ED04E68012ECF
:1009F00005D0022E03D0112E01D0122E17D1D0F81F
:100A000008905E0004FA06F829EA08090096D1F871
:100A10000C8008FA06F848EA0908C0F80880466819
:100A2000BE430F79C7F300179F4037434760C6683E
:100A30004FEA430804FA08F7BE4301978F6807FAA4
:100A400008F73743C7604E68022E01D0122E10D12E
:100A5000DE0800EB86060096366A5F074FEAD76924
:100A60000CFA09F7BE430F6907FA09F73743009EEE
:100A700037620668019FBE430F7907F0030707FA44
:100A800008F7374307604E68F6005BD5324EB7690A
:100A900047F00107B761B66923F0030706F00106C6
:100AA00000962E4E3E44B146B6689F074FEA17782F
:100AB0000CFA08F7BE43B0F1904F04D0284FB8426B
:100AC00004D101270DE000270BE03BE0254FB842A1
:100AD00001D1022705E0244FB84201D1032700E0ED
:100AE000052707FA08F73743C9F80870DAF80060F5
:100AF0005746D1F8048096435FEAC83800D51643BC
:100B00003E60DBF800605F46D1F8048096435FEA00
:100B1000883800D516433E60DEF800607746D1F88D
:100B2000048096435FEAC82800D516433E60094F0B
:100B30000C373E68D1F8048096435FEA882800D5D8
:100B400016433E605B1C0E683246DE407FF44AAFBF
:100B5000BDE8FC8F0004014000100240000001408D
:100B60000004004800080048000C004800690840E4
:100B700000D0012070470AB18161704781627047DF
:100B80000148806870470000040000200248816826
:100B9000027811448160704704000020074810B5B6
:100BA000016841F010010160032000F05FF80020AF
:100BB00000F006F800F024F8002010BD00200240EC
:100BC00070B50D4D04464FF47A712878B1FBF0F002
:100BD0000A490968B1FBF0F000F048FC48B9102C54
:100BE00007D200222146501E00F020F800206C6041
:100BF00070BD012070BD0000040000201000002026
:100C0000094808B5816941F001018161816901F0FC
:100C100001010091C16941F08051C161C06900F0DA
:100C20008050009008BD000000100240F0B40E4B50
:100C30001B680C46C3F30223C3F10705042D00D93A
:100C40000425191D072901D2002300E0DB1E01261F
:100C500006FA05F1491E214099409E40761E164035
:100C60003143F0BC01F0A9B90CED00E0064900F0F9
:100C7000070208684FF6FF03184040EA0220034AC3
:100C800010430860704700000CED00E00000FA051A
:100C90002DE9F0470F46050069D04A4E306800F054
:100CA0000700B84209D2306820F0070038433060AE
:100CB000306800F00700B84259D12878424C8007CC
:100CC00005D56068A96820F0F000084360602878C6
:100CD000C0073DD06968012001290DD0022923D029
:100CE0005FF0020393FAA3F2B2FA82F242F020021A
:100CF000520904D0226803E04FF40033F2E7626A3D
:100D000093FAA3F3B3FA83F303F01F03984002426C
:100D10002DD0606820F0030008436060FFF730FFCB
:100D2000804641F288390CE04FF00073DAE700BFEB
:100D3000FFF726FFA0EB0801494502D90320BDE8D3
:100D4000F0876068696800F00C00B0EB810FEFD1AC
:100D5000306800F00700B8420BD9306820F0070077
:100D600038433060306800F00700B84201D00120FD
:100D7000E5E72878400705D56068E96820F4E06079
:100D8000084360602878000706D56068296920F468
:100D9000605040EAC100606000F04EF86168F022E7
:100DA00092FAA2F201F0F001B2FA82F2D140074ABF
:100DB000515CC8400649086006480068FFF700FF1C
:100DC0000020BCE700200240001002404338000829
:100DD0001000002008000020084809490068496800
:100DE0004FF4E06292FAA2F201F4E061B2FA82F208
:100DF000D140044A515CC8407047000010000020F8
:100E00000010024053380008084809490068496842
:100E10004FF4605292FAA2F201F46051B2FA82F2F7
:100E2000D140044A515CC8407047000010000020C7
:100E30000010024053380008164A10B55168164891
:100E400001F00C03042B20D0082B1ED14FF470149A
:100E500094FAA4F401F47013B4FA84F4E3400F4C50
:100E6000D26AE45C0F2393FAA3F302F00F02B3FA01
:100E700083F3DA40094B1033C9039A5C06D500238B
:100E80001946FFF79DF9A0FB040110BD0448A4FB1F
:100E9000000110BD0010024000127A002338000843
:100EA00000093D002DE9F84F050071D02878FC4E6F
:100EB000C0074FF0010425D070686704C0F38100BB
:100EC000012807D07068C0F3810002281BD1706828
:100ED000C00318D597FAA7F0B0FA80F040F02000D0
:100EE000400901D0306800E0706A97FAA7F1B1FAC2
:100EF00081F101F01F0104FA01F1084265D0686830
:100F00000028D2D061E06868B0F5803F0BD010B106
:100F1000B0F5A02F17D0306820F4803030603068F2
:100F200020F4802002E0306840F480303060F06AC5
:100F3000A96820F00F000843F062686820B3FFF74B
:100F40001FFE80460AE0306840F480203060EAE707
:100F5000FFF716FEA0EB0800642871D897FAA7F0F7
:100F6000B0FA80F040F02000400901D0306800E085
:100F7000706A97FAA7F1B1FA81F101F01F0104FA42
:100F800001F10842E4D020E0FFF7FAFD804607E0D7
:100F9000C2E000BFFFF7F4FDA0EB08006428DCD836
:100FA00097FAA7F0B0FA80F040F02000400901D095
:100FB000306800E0706A97FAA7F1B1FA81F101F0A8
:100FC0001F0104FA01F10842E4D12878DFF8D48245
:100FD00080074FF0000A4FF0020730D570684FF0DD
:100FE000F80B10F00C0F07D07068C0F381000228D6
:100FF00027D17068C00324D497FAA7F0B0FA80F024
:1010000040F02000400901D0306800E0706A97FA93
:10101000A7F1B1FA81F101F01F0104FA01F10842D0
:1010200002D02869012877D130689BFAABF220F012
:10103000F8016869B2FA82F29040014331605AE0E7
:1010400064E1286988B394FAA4F0B0FA80F048F813
:101050002040FFF795FD814606E000BFFFF790FDB9
:10106000A0EB090002289AD897FAA7F0B0FA80F00E
:1010700040F02000400901D0306800E0706A97FA23
:10108000A7F1B1FA81F101F01F0104FA01F1084260
:10109000E4D030689BFAABF26969B2FA82F220F0D0
:1010A000F80091400843306025E0FFE794FAA4F08F
:1010B000B0FA80F048F820A0FFF762FD814605E015
:1010C000FFF75EFDA0EB09000228CCD897FAA7F045
:1010D000B0FA80F040F02000400901D0306800E014
:1010E000706A97FAA7F1B1FA81F101F01F0104FAD1
:1010F00001F10842E4D1287800076CD5A869A8B3AB
:1011000094FAA4F0B0FA80F008EB8000C0F88044B4
:10111000FFF736FD814607E0A4E100BFFFF730FD91
:10112000A0EB090002289ED897FAA7F0B0FA80F049
:1011300040F06000B4EB501F01D130680BE097FA2B
:10114000A7F0B0FA80F040F06000B7EB501F01D17B
:10115000306A00E0706A97FAA7F1B1FA81F101F004
:101160001F0104FA01F21042D8D034E0FFE794FAEC
:10117000A4F1B1FA81F108EB8101C1F880A4FFF775
:10118000FFFC814606E000BFFFF7FAFCA0EB090078
:1011900002289AD897FAA7F0B0FA80F040F06000E1
:1011A000B4EB501F01D130680BE097FAA7F0B0FA0A
:1011B00080F040F06000B7EB501F01D1306A00E0D2
:1011C000706A97FAA7F1B1FA81F101F01F0104FAF0
:1011D00001F21042D8D12878400768D5F0694FF065
:1011E0000009C00009D4F06940F08050F061F06956
:1011F0004FF0010900F0805000902B480168C905AC
:1012000012D4016841F480710160FFF7B9FC834694
:1012100006E000BFFFF7B4FCA0EB0B00642875D814
:1012200021480068C005F5D5E86801280AD008B152
:10123000052811D0306A20F001003062306A20F0B9
:10124000040002E0306A40F001003062E86868B3F0
:10125000FFF796FC83460DE0306A40F004003062F0
:10126000F0E700BFFFF78CFCA0EB0B0141F28830E8
:1012700081424BD897FAA7F0B0FA80F040F04000D6
:10128000B4EB501F01D1306813E097FAA7F0B0FA21
:1012900080F040F04000B7EB501F09D1306A08E001
:1012A0000010024000004242007000400CE040E0AC
:1012B000706A97FAA7F1B1FA81F101F01F0104FAFF
:1012C00001F21042CED02DE0FFF75AFC834607E032
:1012D000FFF756FCA0EB0B0141F28830814215D894
:1012E00097FAA7F0B0FA80F040F04000B4EB501F3E
:1012F00001D130680CE097FAA7F0B0FA80F040F026
:101300004000B7EB501F02D1306A01E083E0706A01
:1013100097FAA7F1B1FA81F101F01F0104FA01F285
:101320001042D5D1B9F1000F03D0F06920F0805000
:10133000F061E86980B37168C1F38101022977D057
:101340004FF080714F000228504609D091FAA1F168
:10135000B1FA81F148F82100FFF712FC05465DE083
:10136000894691FAA1F1B1FA81F1C24648F821000B
:10137000FFF706FC804605E0FFF702FCA0EB080043
:10138000022848D897FAA7F0B0FA80F040F0200081
:10139000400902D0306801E066E0706A97FAA7F170
:1013A000B1FA81F101F01F0104FA01F10842E3D121
:1013B000D5E908100843716821F47411084370607E
:1013C00099FAA9F0B0FA80F04AF82040FFF7D8FB6C
:1013D000054604E0FFF7D4FB401B02281BD897FA10
:1013E000A7F0B0FA80F040F02000400901D030684A
:1013F00000E0706A97FAA7F1B1FA81F101F01F01DC
:1014000004FA01F10842E5D02EE000BFFFF7B8FB77
:10141000401B022802D90320BDE8F88F97FAA7F0F5
:10142000B0FA80F040F02000400902D0306801E0BE
:101430000BE0706A97FAA7F1B1FA81F101F01F0190
:1014400004FA01F10842E1D10EE00128E4D070680D
:101450002A6A00F48031914204D1696A00F4701064
:10146000884201D00120D7E70020D5E710B5401E03
:10147000B0F1807F01D3012010BD4FF0E024606106
:101480000F21601700F099FD0020A0610720206166
:10149000002010BDF0B590F83C20012A29D001248D
:1014A00080F83C40022280F83D2003685A689D681D
:1014B000114EB34203D122F470074A683A4322F036
:1014C00070070A683A435A600268B24205D0B2F126
:1014D000804F02D0094B9A4204D1896825F08003DD
:1014E0001943916080F83D40002180F83C10084687
:1014F000F0BD0220F0BD0000002C01400040014082
:1015000010B5040003D094F83D0010B107E00120AD
:1015100010BD002084F83C00204600F023F8022093
:1015200084F83D00211D206800F0E0FA012084F8D5
:10153000480084F83E0084F83F0084F8400084F8B6
:10154000410084F8420084F8430084F8440084F8A1
:10155000450084F8460084F8470084F83D000020E8
:1015600010BD000008B500680649884208D1064849
:10157000C16941F01001C161C06900F01000009024
:1015800008BD0000001000400010024090F83D101F
:10159000012901D001207047022180F83D10006828
:1015A0000B49884205D0B0F1804F02D009498842EA
:1015B00007D18168084A1140062906D0B1F5803F5D
:1015C00003D0016841F00101016000207047000074
:1015D000002C0140004001400700010010B504004C
:1015E00002D0A06F10B107E0012010BD002084F8E8
:1015F0007400204600F026F82420A06720680168C7
:1016000021F001010160204600F03EFB0128ECD0F2
:10161000606A10B1204600F0A5FA2068416821F404
:10162000904141602068816821F02A018160206832
:10163000016841F0010101602046BDE8104000F062
:10164000F5BA000010B586B0044614216846FEF7CE
:1016500011FE1349206888421FD11248C16941F424
:101660008021C161C16901F480210591416941F482
:10167000802141614069694600F4802005904FF463
:1016800040700090022001900020029003200390FF
:10169000072004900448FFF797F906B010BD00003A
:1016A0000048004000100240000400482DE9F843C3
:1016B0000446806F1F4616460D4620284FD1CDB1F7
:1016C000C6B194F87400012849D0012084F8740050
:1016D0004FF00008C4F880802120A067FFF750FA7F
:1016E000A4F850608146A4F85260A068B0F5805F0D
:1016F00003D004E00120BDE8F883206928B12E461C
:101700005FF0000584F8748010E00026FAE780217D
:10171000204600F05BFBB8B9C6B116F8010B216892
:101720000885B4F85200401EA4F85200B4F85200E4
:101730004B464FF0000200970028E8D14FF04001DF
:10174000204600F043FB30B10320D4E735F8020B0C
:10175000C0F30800E3E72020A0670020CBE70220C9
:10176000C9E7FEE770B586B014216846FEF782FD32
:101770001D48416941F480014161416901F48001E2
:101780000591416941F400214161416901F4002161
:101790000591416941F4802141614069134E00F493
:1017A00080200590002202213046FFF7E4F9012253
:1017B00004213046FFF7DFF90220009000241120B9
:1017C00001250394CDE9010569463046FFF7FCF891
:1017D00004200090CDE90154694630460394FFF798
:1017E000F3F806B070BD0000001002400008004889
:1017F0000948084901604FF4E131416000218160EE
:101800000C22C160C0E904128161C16101624162C0
:10181000FFF7E4BE00480040F8030020FEE77047F1
:10182000704700002DE9F041144E00250421304698
:1018300000F07DF8002401270421304600F089F8EB
:10184000002204213046FFF796F9022001F0D2FF72
:101850000421304600F06BF804213046FFF786F98A
:1018600018B107FA04F02843C5B2502001F0C2FFB6
:10187000641C082CE0DB2846BDE8F0810008004825
:1018800010B500F079F8CC2000F0F4FA662000F0F2
:10189000F1FA032000F0EEFA222000F0EBFA00202B
:1018A00000F0E8FA342000F0E5FAFFF7BBFF074C40
:1018B00004F8530FFFF7B6FF6070AA2000F0DAFAC1
:1018C000BDE810404FF47A7001F094BF180000207A
:1018D00010B500F051F8CC2000F0CCFA662000F0F2
:1018E000C9FA042000F0C6FA332000F0C3FA002041
:1018F00000F0C0FA342000F0BDFA002000F0BAFA7F
:10190000642001F077FFFFF78DFF074C04F8450FC7
:10191000FFF788FF6070AA2000F0ACFABDE8104025
:10192000642001F067BF000018000020704730B548
:1019300085B00C46054614216846FEF79BFC002145
:10194000CDE90041029169462846FFF73DF805B010
:1019500030BD30B585B00C46054614216846FEF70B
:1019600089FC1120CDE900400020039069462846FB
:10197000FFF72AF805B030BD10B5124C04212046FF
:10198000FFF7E7FF002204212046FFF7F4F84FF4A9
:10199000F07001F02FFF04212046FFF7C8FF41201F
:1019A00001F028FF04212046FFF7E0F8064B38B18C
:1019B000022018704FF4C87001F01CFF187810BD99
:1019C0000120F6E7000800480000002070B5FFF78E
:1019D000D3FF134C6070CC2000F04CFA662000F06E
:1019E00049FA052000F046FA832000F043FA0B2064
:1019F00000F040FA032000F03DFAA52000F03AFA8A
:101A00000F2000F037FAFFF70DFF064D2870FFF7A3
:101A100009FF6870AA2000F02DFA607870BD000000
:101A2000000000201800002010B5FFF7A5FF1549A1
:101A30004870CC2000F01EFA662000F01BFA05204A
:101A400000F018FA832000F015FA0B2000F012FACB
:101A5000032000F00FFAA52000F00CFA0F2000F090
:101A600009FAFFF7DFFE084CA070FFF7DBFEE0701D
:101A7000AA2000F0FFF9BDE810404FF47A7001F0A1
:101A8000B9BE00000000002018000020FFF77EB85B
:101A900030B58FB028216846FEF7ECFB14210AA868
:101AA000FEF7E8FB0224012004900094102005902A
:101AB00000254FF4C010CDE9085007946846FFF7A1
:101AC000F1F90AA90F2081E831006002CDE90D0586
:101AD00001210AA8FFF7DCF80FB030BD0248016809
:101AE00041F470010160704788ED00E0F0B50268D4
:101AF000184B4FF08047984201D0B84203D122F0F2
:101B000070044A682243144C144D154E984207D075
:101B1000B84205D0A04203D0A84201D0B04203D1C0
:101B200022F44077CA683A434F6922F080023A4370
:101B300002608A68C2620A688262984205D0A04246
:101B400003D0A84201D0B04201D10969016301214B
:101B50004161F0BD002C01400040014000440140C3
:101B60000048014090F82410C90706D001684A686F
:101B7000836A22F400321A434A6090F824108907DD
:101B800006D501684A68C36A22F480321A434A6063
:101B900090F82410490706D501684A68036B22F4BF
:101BA00080221A434A6090F82410090706D501687C
:101BB0004A68436B22F400421A434A6090F82410AA
:101BC000C90606D501688A68836B22F480521A43DD
:101BD0008A6090F82410890606D501688A68C36B6C
:101BE00022F400521A438A6090F82410490611D555
:101BF00001684A68036C22F480121A434A60016C3F
:101C0000B1F5801F06D101684A68436C22F4C00216
:101C10001A434A6090F82410090606D501684A68FC
:101C2000806C22F4002202434A607047F8B5002617
:101C30000446C0F88060FEF7A3FF054620680068F0
:101C40006FF07E47000708D52B4600224FF40011A5
:101C50002046009700F0BAF860B920680068400795
:101C60000AD52B4600224FF480012046009700F051
:101C7000ADF808B10320F8BD2020A067E067266614
:101C800084F874600020F8BD70B50446806821694E
:101C9000E26908436169002511432268084311681D
:101CA000444B19400143116020684168E26821F407
:101CB000405111434160A169206A084321688A6844
:101CC00022F4306202438A603B492068884210D186
:101CD0003A48006B10F0030011D0012805D002280B
:101CE00005D003280DD102210CE004210AE00821CF
:101CF00008E03349884202D03249884201D10021AC
:101D000000E01021E3694FF400422F484FF6EF76D0
:101D1000934227D1092941D2DFE801F005080E409E
:101D20000B4040402200FFF757F804E0FFF76CF843
:101D300001E0FFF781F890B34100606801EB5001CA
:101D4000B1FBF0F080B2A0F11001B14226D84FF6FD
:101D5000F0710140C0F3420001432068C16023E0FC
:101D60001046E9E7092919D2DFE801F005080E1845
:101D70000B1818181A00FFF72FF804E0FFF744F8C3
:101D800001E0FFF759F850B1616800EB5100B0FB7A
:101D9000F1F080B2A0F11001B14203D9012503E0B6
:101DA0001046F1E72168C86000206066A0662846FA
:101DB00070BD0000F369FFEF0038014000100240E1
:101DC000004400400048004000127A002DE9F0472E
:101DD0009A4617460E4604464FF000094FF0200879
:101DE000089D39E0681C37D0FEF7CAFEA0EB0A0058
:101DF000A84222D80DB32068016849072CD5C069D4
:101E0000C043000528D421684FF4006008622068B0
:101E1000016821F4D07101602068816821F001011E
:101E20008160C4F87880C4F87C80C4F8808000BFEA
:101E300084F874900320BDE8F0872068016821F4DD
:101E4000D07101602068816821F001018160C4F8CF
:101E50007880C4F87C80EBE72068C06936EA00002F
:101E600004D00020B842BDD00020E4E70120F9E70B
:101E7000FEE700002DE9F041194D074604212846F0
:101E8000FFF767FD0024012606FA04F038424FF000
:101E90000401284611D0FFF75CFD002204212846EA
:101EA000FEF769FE012001F0A5FC04212846FFF79A
:101EB0003EFD3C2001F09EFC0DE0FFF74AFD0022B4
:101EC00004212846FEF757FE3C2001F093FC042134
:101ED0002846FFF72CFD641C082CD5DBBDE8F081FB
:101EE0000008004810B5FFF747FDCC20FFF7C2FF00
:101EF0006620FFF7BFFF0C20FFF7BCFF1120FFF7A4
:101F0000B9FF0020FFF7B6FF0020FFF7B3FFCC209A
:101F1000FFF7B0FFBB20FFF7ADFFCC20FFF7AAFF14
:101F20008020FFF7A7FFC020FFF7A4FF0020FFF7E6
:101F3000A1FF0220FFF79EFFFF20FFF79BFFFF207E
:101F4000FFF798FFFFF76EFC074C04F82C0FFFF724
:101F500069FC6070AA20FFF78DFFBDE810404FF4C8
:101F60007A7001F047BC0000180000200FB4084B45
:101F700010B504A902AA039800F010FF044602A9B4
:101F8000002001F0A2FA204610BC5DF814FB00000E
:101F9000CB3400084100080218BF04200A0E18BF05
:101FA00040F001004FF07F4232EA010108BF40F0EB
:101FB0000200012808BF052070470907090E002804
:101FC00004DB00F1E02080F80014704700F00F00FF
:101FD00000F1E02080F8141D7047000010EE101A88
:101FE00008B5444A6846B2EB410F28D94FF0E640A5
:101FF000B0EB410F94BF00204FF0FF3000900098ED
:10200000002861DB60EE000A10F0010F45D010F0EF
:10201000020FDFED391A9FED391A00EEE11ADFEDFC
:10202000381A40EE811A21EEA01AF0EE400A40EE76
:10203000010A08BFF1EE600AB0EE600A08BD314B3C
:1020400021F0004293423CD911F0004FDFED2E0AFF
:1020500020EE201ADFED2D0A19BF31EE601A71EE65
:10206000200A31EE201A71EE600ABDEEE01A11EE80
:10207000100A9FED271A00F0030000EEC10A9FED41
:10208000251A009000EEC10A9FED231A00EEC10A46
:102090009FED221A00EEC10AB1E79FED211A9FEDD4
:1020A000210A10F0020F00EE810A9FED1F1A00EEC8
:1020B000801AB7EE000A00EE810A18BFB1EE400A9E
:1020C00008BD00F0E9FC9AE710EE100A4000B0F1FC
:1020D0007F4F3CBFB7EE000A08BD07D14FF00100AB
:1020E00000F094FDBDE8084000F0BEBCBDE808402B
:1020F00000F0B4BCB61F927E336D4C39DA82083CD6
:10210000A0AA2ABE490E494683F9223F0000004B8F
:102110000000C93F00A0FD390020A2331A61342C11
:10212000B93AB2BACA9F2A3DDDFFFFBE10B52DED08
:10213000040B86B09DED060B10EE100A10EE901AFF
:102140008DED000B002818BF0120084320F000404F
:10215000C0F17F6000F1E040C00F21D19DED080B80
:1021600010EE101A10EE900A8DED000B002918BF2A
:102170000121084320F00040C0F17F6000F1E04001
:10218000C00F0DD129490798B1EB400F04BF069845
:10219000002842D00998400004BF089800283CD08D
:1021A0009DED080B53EC102B9DED060B51EC100B25
:1021B000FEF7EDFACDE902019DED020B40F2FF7151
:1021C00010EE900A8DED000B31EA105021D00798E7
:1021D000039900F0004001F00041884219D09DEDC4
:1021E000080B8DED040B9DED020B8DED000B10EE39
:1021F000900A059961F31E0005909DED041B9DED6D
:10220000020B51EC110B53EC102BFEF7E2F8CDE969
:1022100002019DED020B0AB010BD012000F0F6FC9A
:102220000AB0BDE8104000F0FFBB00000000E0FF76
:1022300010B510EE100A2DED068BB7EE001A10EE59
:10224000901AB0EE418A0022A0F5000CDFEDFE9A54
:102250004FF00073BCF1FE4F4FF07F4403EB410C95
:1022600080F0B481BCF1804FC0F02082F749014476
:102270009FEDF73AB1F5005F40F2D48200F580217E
:10228000CB0C03F00F0101EE901AC3F307137F3B51
:10229000A0EBC350B8EEE12A00EE100A1A44DFEDBD
:1022A000ED2AF0EE411A42EE221AF0EE613A70EE9B
:1022B000232A30EE632A12EE900A00F500606FF3D5
:1022C0000B0001EE900A73EEE13A33EE804AC1EE64
:1022D000223A22EE230A10EE100A00F500606FF396
:1022E0000B0000EE100A00EE612A00EE442A62EEB6
:1022F000232A70EE221A21EEA12ADFEDD73A02EE50
:10230000233A23EE023A20EE012A22EE811A03EE4E
:10231000211A32EE010A10EE100A00F500606FF388
:102320000B0000EE100A72EE401A31EE812A9FED8A
:10233000CB1A60EE011A9FEDCA1A20EE011A9FED2A
:10234000C90A02EE001A31EE810A10EE100A00F5F9
:1023500000606FF30B0000EE100AC34871EEC01A64
:1023600031EE812A784400EBC10090ED003AD0EDC7
:10237000011A100101EE100AF8EEC12A32EE211AFC
:1023800031EE001A31EE031A31EE221A11EE100A64
:1023900000F500606FF30B0009EE100A39EE621AC7
:1023A00031EE431A31EE400A30EE610A32EE40AAB5
:1023B00010EE900A002100F500606FF30B0008EEAC
:1023C000900A084670EEE8AAFEF754FA29EE280AA9
:1023D00000F00C01F0EEC00A10EE900AB0F18B4F45
:1023E0000DDD10EE900AB4EB400F08D310EE100A8A
:1023F0004FF08B4262F31E0008EE900A13E069EE84
:102400002A0A38EEAA1A4AEE010A30EE201A11EE14
:10241000100A00F500606FF30B0008EE900A30EE32
:10242000680A70EE209A0C20FEF724FA38EEA90A0A
:10243000B5EEC00AF1EE10FA34BFFEEE000AF6EE79
:10244000000A30EE800ABDEEC00A10EE100A01113B
:1024500000EE101AF8EEC00A00EE100AB8EEC00A3C
:1024600038EEC00A30EE290ADFED801A9FED801A9F
:1024700000EE211ADFED7F1A7F4900F00F0040EED9
:10248000011A21EE800A794401EB800191ED001AD6
:102490007A49794401EB8001D1ED001A784901EEC7
:1024A000801A794401EB8000764990ED000A31EE04
:1024B000001AB0EEE00A10EE100A884215DA10EEAB
:1024C000100AB4EB400F10D39FED6F0A30EE800A74
:1024D000DFED6E0A20EE200A68EE010ABDEC068BE5
:1024E000BCEEC00A20EE200A10BD10EE100A6849AA
:1024F000884243DA10EE100AB4EB400F3ED3BDEE33
:10250000E00A68EE010A10EE100A00EBD0725110DA
:10251000C90501F17E5100EE101AA0EB6200C00562
:1025200060EE200A00F17E5000EE100A60EE808A14
:1025300018EE900AB4EB400F0FD1022000F066FBBA
:1025400000F09AFA10EE101A18EE100ABDEC068B85
:1025500061F31E0000EE100A10BD18EE900A400054
:1025600011D018EE900AFFF715FD042808BF00F0FF
:102570008BFAB0EE680ABDEC068B10BDF5EEC00A12
:10258000F1EE10FA0FD2022000F040FB00F07CFACE
:1025900010EE101A18EE100ABDEC068B61F31E0047
:1025A00000EE100A10BD022000F030FB00F064FACB
:1025B00010EE101AB0EE480A10EE100ABDEC068BB1
:1025C00061F31E0000EE100A10BD00BFBCF1804F89
:1025D0006CD300BF00F1FF43B3F1FE4F24D200BF24
:1025E000B0EEC00A10EE100AC1F3C7537F2B0DDB0B
:1025F000972BBFF63BAEC3F196034FF0010C0CFADC
:1026000003F3A3F1010C1CEA010F08D0012000F034
:10261000FDFABDEC068BBDE8104000F025BA0B4278
:1026200018BFBFEE008A21E643001CBF4FF0807345
:10263000B3EB400F34D96FF01A02DFED161A20EE1B
:10264000210A10EE100A27E000000000001080C0F0
:10265000ABAAAA3E0000803D7EE24C3E00B038426C
:10266000D49AB8BB3BAA3842F4140000FC59633733
:10267000C9FF753A1872313D92140000C61400006B
:10268000361400000000FC420000FE420000004B37
:10269000000040430000004D10F0004FA0D1E5E5E0
:1026A000A0F50003B3F1FE4F21D2DFE503EB4103B8
:1026B000B3F1007F11D3F5EEC00AF1EE10FA05D1A7
:1026C000430018BFB4EB400F76D883E701F0004118
:1026D00041F0FC5100EE901A7CE7B3F1807F06D206
:1026E00010EE903AA3F5000300EE903A72E720F066
:1026F00000426FF0FF4C604C02EB0C03A34210D37E
:1027000021F000439C44A4450BD3B0F17E5F18BF79
:102710005FEA410C50D0B2F1FF4F98BFB3F1FF4FC9
:1027200005D9BDEC068BBDE8104000F09AB9B0F1B8
:10273000FF4F0FD0C1F3C7527F2A09DB972A11DA66
:10274000C2F19602012303FA02F2531E0B4205D096
:10275000002208E011F0004F55D128E00A4218BFCE
:10276000012200D1022210F5000F13D028B3B0F1DE
:10277000004F26D010F1814F4FD04FF0FE42B2EB08
:10278000400F94BF01200020012202EBE17188423A
:1027900039D10CE011F0004F02D0012A38D032E0DC
:1027A000012A02BF9FED350ABDEC068B10BD9FEDDF
:1027B000340ABDEC068B10BD2FE011F0004F0CD198
:1027C00021E0B1F1FF4F1ED011F5000F05D011F03F
:1027D000004F15D00AB1012A08D0022000F016FAE5
:1027E000BDEC068BBDE8104000F02EB9022000F0D1
:1027F0000DFA00F029F9BDEC068BB1EE400A10BDD0
:102800000AB1012A04D0B0EE690ABDEC068B10BDF6
:10281000BDEC068B9FED1B0A10BDBDEC068BB7EE21
:10282000000A10BD30EE410AB5EE001A9FED172ADE
:1028300000EE413AB6EE001A60EE001A00EE431ABE
:1028400061EEC11A9FED101A20EE011A20EE020A65
:102850009FED0F2A01EE820A71EE001A11EE900A26
:1028600000F500606FF30B0009EE100A31EE491A13
:1028700031EE00AA9CE50000FFFF3F00000080FF52
:102880000000807F0000008000B0B841D49A38BBBF
:102890003BAAB84100B510EE101A2DED028B81B0A5
:1028A000524A6846B2EB410F2ED94FF0E640B0EBEA
:1028B000410F94BF00204FF0FF3000900098B0EE21
:1028C000408A00286ADB10F0010F4BD068EE080A3E
:1028D0009FED471A9FED470A00EE810A9FED461AC9
:1028E00010F0020F00EE801AB7EE000A00EE810A27
:1028F00002BF01B0BDEC028B00BD00BF01B0B1EE64
:10290000400ABDEC028B00BD3C4B21F000429342DB
:1029100041D911F0004FDFED3A0A20EE201ADFED29
:10292000390A19BF31EE601A71EE200A31EE201A11
:1029300071EE600ABDEEE01A11EE100A9FED321A38
:1029400000F0030000EEC10A9FED301A009000EE87
:10295000C10A9FED2F1A00EEC10A9FED2E1A00EE5C
:10296000C10AABE728EE080A9FED2B1ADFED2B0A10
:1029700010F0020F40EE410A9FED291A00EE201AD6
:1029800061EE000AB0EE480A08EE200AB6D101B0A6
:10299000BDEC028B00BD00F07FF88FE718EE100A47
:1029A0004000B0F17F4F0DD218EE100AFFF7F2FA97
:1029B000042808BF00F068F8B0EE480A01B0BDEC8A
:1029C000028B00BD09D1012000F020F901B0BDEC5F
:1029D000028B5DF804EB00F047B801B0B0EE480A96
:1029E000BDEC028B5DF804EB00F038B8B61F927EA8
:1029F000B93AB2BACA9F2A3DDDFFFFBE490E494629
:102A000083F9223F0000004B0000C93F00A0FD39C0
:102A10000020A2331A61342C336D4C39DA82083C21
:102A2000A0AA2ABE000000009FED050B10B553ECD4
:102A3000102B51EC100BFDF7CFFC41EC100B10BD2F
:102A40000000000000000000DFED030AB7EE001AEE
:102A500081EE200A704700000000000030EE000AFE
:102A6000704730EE200A7047DFED020A80EEA00AC0
:102A700070470000000000009FED020A20EE000AEF
:102A800070470000000000709FED020A20EE000A6F
:102A900070470000000000102DE9F0014FF07F4268
:102AA000B2EB410F9FBF4FF0FF310160BDE8F00175
:102AB00070474FF0004242EA0123C1F3C752783A0F
:102AC000551112F01F0C434CCCF120067C44C1F38D
:102AD000C752A2F178024FEA621204EB820254F864
:102AE000254008BFD2E9015612D0556804FA0CF40B
:102AF00025FA06F73C43976805FA0CF527FA06F81D
:102B0000D26807FA0CFCF24045EA08054CEA0206D6
:102B1000A4FB034CA5FB0352A6FB03631D449D428B
:102B200034BF012600261319334416B1934202D94B
:102B300003E0934201D2012200E00022624402F14C
:102B4000200C9206DC0C42EA443200EE102A5B03B1
:102B5000DFED210AF8EEC01A00EE103A4FEA9C1C95
:102B600011F0004FB8EE400AC0F800C020EE201A65
:102B700000EE105ADFED190AB8EE400A20EE200AE6
:102B800071EE810A70EE800A10EE902A02F5006262
:102B90006FF30B0200EE902A70EEE11A31EEC11ACB
:102BA000DFED101A30EE411A9FED0D0A20EE800A7B
:102BB00001EE210A9FED0C1A00EE810A04BFBDE868
:102BC000F0017047CCF180510160BDE8F001B1EE39
:102BD000400A7047CC0E0000000000360000802C38
:102BE00022AAFD29DB0FC92F0000C92F02E008C867
:102BF000121F08C1002AFAD170477047002001E077
:102C000001C1121F002AFBD1704700000149086072
:102C100070470000140000202DE9FF5F82B0002102
:102C2000DDE90430020DDDF840B0034318D044F66E
:102C30001050A2F2FF3242431514119801281FD000
:102C4000A5EB0B00401C5FEA000A4FF000064E4F58
:102C5000DFF83891B046504615D5CAF1000413E0AC
:102C6000119801244AA3012801D16FEA0B010298AF
:102C7000119AC0E90031C0E9024206B0BDE8F09FF8
:102C8000CBF10000DFE704460021404A491842EB3F
:102C90000450CDE9001012E0E00707D032463B4671
:102CA00040464946FDF701FD8046894632463B468F
:102CB00010461946FDF7F9FC06460F466410002C35
:102CC000EAD1DDE90401DDE90023BAF1000F06DAFB
:102CD000FDF7EBFC42464B46FDF7E7FC05E0FDF750
:102CE0007BFB42464B46FDF777FB04460E4600222F
:102CF000284BFDF7A7FD03D84FF0FF30014607E052
:102D00000022254B20463146FDF7BFFAFDF782FD34
:102D1000102409E0002C0ADB0A220023FDF750FAF8
:102D2000039B30321A55641E50EA0102F2D1641C32
:102D3000039AC4F111031444119A012A03D0012209
:102D400008430DD10AE0084304D000204FF0110BD6
:102D5000119072E7A3EB0B056D1E0DE05B4504DDE2
:102D60004FF0000205F1010504E003DA4FF0000224
:102D7000A5F10105002AECD002981199C0E90231B1
:102D8000C0E9004579E70000000014400000F03F72
:102D9000300000000000F0430000E03F2DE9FF4F4D
:102DA00095B09B468946064600250FE2252877D137
:102DB00000242746F84A0121059400E0044316F850
:102DC000013F203B01FA03F01042F7D130782A2866
:102DD00011D06FF02F033078A0F13002092A16D8F5
:102DE000059A44F0020402EB820203EB4202104413
:102DF000761C0590EFE759F8042B0592002A03DAB8
:102E0000504244F40054059044F00204761C30789B
:102E10002E2816D116F8010F44F004042A280DD0EC
:102E20006FF02F023078A0F13003092B09D807EB9F
:102E3000870302EB4303C718761CF3E759F8047BBA
:102E4000761C30786C280FD006DC4C2817D0682808
:102E50000DD06A2814D104E0742810D07A280FD13C
:102E60000DE044F400140AE044F4801401E044F45A
:102E700040147278824202D104F58014761C761CCC
:102E8000307866280BD013DC582877D009DC00286E
:102E900075D04528F6D04628F4D047281AD19DE1B0
:102EA00018E0632835D0642879D0652812D195E1DF
:102EB000702873D008DC6728F1D069286FD06E289D
:102EC0000DD06F2806D1B5E073282CD0752875D0A9
:102ED000782874D05A46179990476D1C75E1C4F351
:102EE0000250022809D003280DD0D9F80010042878
:102EF0000DD00D6009F1040967E1D9F80010EA1757
:102F0000C1E90052F6E7D9F800100D80F2E70D7024
:102F1000F0E719F8041B8DF8001000208DF801006F
:102F2000EA46012003E059F804AB4FF0FF30610797
:102F30004FF0000102D40DE008F101018846B942CA
:102F40000FDA8045F8DB1AF808100029F4D108E000
:102F500008F1010188468142FADB1AF808100029BD
:102F6000F6D105985B46A0EB080721463846179A2C
:102F700000F094FA284400EB080507E04DE029E151
:102F80000DE01AF8010B5A4617999047B8F101085D
:102F9000F7D25B4621463846179A13E142E00A22EF
:102FA0000092C4F302524FF0000A022A08D059F8E6
:102FB00004CB032A4FEAEC710AD00DE029E02AE0A5
:102FC00009F1070121F00702F2E802C1914609E088
:102FD0000FFA8CFC4FEAEC71042A03D14FFA8CFCF7
:102FE0004FEAEC71002907DA0A460021DCF1000CF7
:102FF00061EB02012D2202E0220504D52B228DF87F
:103000000420012203E0E20701D02022F7E79046E6
:1030100059E00A2102E010220DE010214FF0000AD1
:1030200000910BE010224FF0000A44F0040408273E
:10303000009203E008224FF0000A0092C4F302520B
:10304000022A05D059F804CB0021032A08D009E050
:1030500009F1070121F00702F2E802C1914605E0FB
:103060001FFA8CFC042A01D10CF0FF0C4FF0000871
:10307000220728D5702806D0009B83F0100353EA5E
:103080000A0305D00EE040228DF80420012208E05A
:103090005CEA010206D030228DF804208DF805008C
:1030A00002229046009B83F0080353EA0A030AD1E8
:1030B0005CEA010201D1620705D530228DF80420B7
:1030C0004FF001087F1E582804D034A003900EA8AA
:1030D00002900DE036A0F9E753466046009AFDF7EE
:1030E0006FF884460398825C0298401E029002703A
:1030F0005CEA0100F0D1029806A9081A00F1200A42
:10310000600702D524F4803400E00127574502DD32
:10311000A7EB0A0000E0002000EB0A0100900598F0
:103120004144401A0590E00306D45B462146179AB5
:10313000059800F0B3F90544002706E001A85A46B7
:10314000C05D179990476D1C7F1C4745F6DBE00377
:103150000CD55B462146179A059800F09FF9054467
:1031600004E030205A46179990476D1C0099481E7C
:1031700000900029F5DC08E0029802995A46007890
:10318000491C0291179990476D1CBAF10001AAF1F0
:10319000010AF1DC65E10000092801003031323319
:1031A0003435363738396162636465660000000083
:1031B000303132333435363738394142434445466D
:1031C0000000000000F058F90544761C3078002813
:1031D0007FF4ECAD19B02846BDE8F08F620700D44B
:1031E000062709F1070222F0070CFCE80223E1465A
:1031F00003F000485FEA080C02D00FF2702C0DE0DB
:103200005FEA045C02D50FF2682C07E05FEAC47C39
:1032100002D00FF2602C01E0AFF2700C4FF0FF38DB
:1032200023F00043CDF850C065280CD006DC4528BB
:1032300009D046281DD047283DD13DE0662818D04A
:1032400067287ED138E00021112F01DB112000E03A
:10325000781CCDE9000106A90EA8FFF7DDFCDDE929
:103260000F010E9A03910021009207F1010A0491C7
:103270004DE04FF000400097CDE9011006A90EA8DF
:10328000FFF7CAFCDDE90F0203920E9B11990022A1
:10329000DDF80CA00093049211B9791C00EB010A2F
:1032A000B7EB0A0004D4C0F1FF3007F1010A049023
:1032B000AAEB0700019044E0012F00DA012700216A
:1032C000112F01DD112000E03846CDE9000106A9EB
:1032D0000EA8FFF7A1FCDDE90F010E9A0391002172
:1032E00004910092BA4621070CD40399514500DAA3
:1032F0008A46BAF1010F05DD009AAAF10101515C7D
:10330000302908D0B84202DA10F1040F06DA0121A0
:10331000CDE9011015E0AAF10101E9E7002805DC7B
:10332000049901440491AAEB000102E0411C5145BB
:1033300000DD8A460499401A401C01904FF000407D
:103340000290200704D40198504501DBCDF8048099
:1033500000208DF84F0002980DF14F07B0F1004F9B
:1033600025D02B200E9002984FF0020800280CDA8E
:10337000404202902D200E9007E00A210298FDF7AE
:10338000C9F83031029007F8011DB8F10001A8F129
:103390000108F2DC02980028EFD1791E0E9808701F
:1033A000307800F0200040F0450007F8020D12A828
:1033B000C01B00F107081498007800B1012000EB51
:1033C0000A01019801EBE07105984144401A401E42
:1033D0000590E00306D45B462146179A059800F055
:1033E0005DF805441498007818B15A46179990472B
:1033F0006D1CE00324D55B462146179A059800F022
:103400004DF805441CE00498002807DBDDE90301C2
:10341000884203DD0098405C179901E0179930203D
:103420005A469047049805F10105401C0490019804
:10343000401E019004D12E205A46179990476D1CCA
:10344000BAF10001AAF1010ADDDC05E017F8010B71
:103450005A46179990476D1CB8F10001A8F1010870
:10346000F4DC5B462146179A0598ABE62D00000078
:103470002B000000200000002DE9F041044600254B
:103480001E461746880404D405E039462020B0477C
:103490006D1C641EF9D52846BDE8F0812DE9F04188
:1034A000044600251E469046C80301D5302700E09B
:1034B0002027880404D505E041463846B0476D1CF6
:1034C000641EF9D52846BDE8F0810A68531C0B60DC
:1034D0001070704710B504462DED028BF0EE000A17
:1034E00090ED040AFEF7A4FEB0EE408A94ED050AC2
:1034F000F0EE000AFEF79CFE38EE000ABDEC028BEF
:1035000010BD0000B7EE001A00B5C1EE001A87B07A
:10351000DFED0B0A9FED0B1ACDED030A8DED000ACE
:1035200020EE010A18226946CDED011A8DED020A3E
:10353000CDED040ACDED050AFCF783FE07B000BD12
:1035400000000000DB0FC94010B5FEF73FFA012074
:10355000FDF7A6F9FEF768FA0220FDF7A1F9FDF7DD
:10356000FFF90820FDF79CF900F020F90020FDF795
:1035700097F9FEF7B7FCBDE810400620FDF790B9BB
:10358000F0B5124B002002464FF4C87403F5C87121
:103590000A541A54401CA042FADB01220A704A70F5
:1035A00000200B4D8A70134663262C5C4FF47A770B
:1035B00014FB07F4B4FBF6F42344CC18401C04F8C5
:1035C000012CCA5462700728EFDBF0BD8C0000208C
:1035D0001C38000886B0FDF7E1FAFEF759FAFEF74D
:1035E000C1F80024364800940194344902940160E3
:1035F0001F21C0E901144FF6FE718461C160FDF71F
:103600007FFF009469462E480294FDF743FFFEF7C2
:10361000EFF82B48FDF7BAFFFFF7B2FF01220221B6
:103620002848FDF7A8FAFFF78FFFFDF7BBF9B7EEC3
:10363000000A6846FFF766FF214818226946E03015
:10364000FCF7FFFDB7EE040A6846FFF75BFF1C4876
:1036500018226946F830FCF7F4FDFDF791FA0446AC
:103660004FF4FA6600F08CF800B2B042FADAFDF7D7
:1036700087FA0546001B00EE100A1148B8EE400A12
:10368000E03000F029F80E482C46E030FFF722FF2A
:1036900010EE100AFCF70FFF41EC100B084853EC3A
:1036A000102B09A1D030FEF761FC054982B2D03160
:1036B0001423A1F18400FDF7F9FFD3E700100040C7
:1036C000AC0300200008004866696C746572202015
:1036D0003D2025660A00000070B504462DED028BE2
:1036E00010EE100AFCF7E7FE9FED231B53EC112BA5
:1036F000FCF772FE41EC180BE068FCF7DCFE53ECC3
:10370000182BFCF7C2FDFCF7E9FE0546E060606897
:10371000FCF7D1FE41EC180B2846FCF7CCFE41EC3F
:10372000100BB0EE481AF0EE681AFEF7FFFC51ECF1
:10373000100BFCF7D3FE00EE100A84ED030AD4ED63
:10374000020A20EE200AFEF749FCD4ED040A30EE0E
:10375000200A84ED040A94ED030AD4ED020A20EE57
:10376000200AFFF797F8D4ED050A30EE200A84ED21
:10377000050ABDEC028B70BD0000000000408F40C8
:1037800010B5FEF77DF80520FDF78AF8FEF7A0F8E2
:103790004FF47A7000F02EF8034810F8261F407896
:1037A00040EA012000B210BD1800002010B5FEF75D
:1037B000E3F8CC20FEF75EFB6620FEF75BFB022001
:1037C000FEF758FB5520FEF755FB3820FEF752FB5D
:1037D000FEF728F8064CA071FEF724F8E071AA2045
:1037E000FEF748FBBDE810404FF47A7000F002B8D5
:1037F000180000200649074A0968B1FBF2F141436D
:1038000005480022426042688A42FCD370470000AB
:103810001000002040420F00001000E005050202E9
:10382000020A0A02030405060708090A0B0C0D0E1A
:103830000F10100102030405060708090A0B0C0DFE
:103840000E0F10000000000000000001020304063B
:103850000708090000000001020304000000000046
:10386000000000000000B33FB2BE7D3A00002E40D1
:10387000DFCF513800007E40BF51FABA00E0A440CB
:1038800019DAC3BA00E0C840C2ED8AB90040EB4083
:10389000CD1F2CBA001006412AFFFABA00C015410C
:1038A000DFCFD13700D024419A97703A005033418E
:1038B00089478E3600404141E75B9D3800B04E415C
:1038C000C00A98B900A05B41558F943A0030684116
:1038D000DA92C0BA0040744162B3C63A0000803F39
:1038E00000A0853F00908B3F00C0913F0030983F83
:1038F00000F09E3F00F0A53F0050AD3F0000B53FF7
:103900000000BD3F0060C53F0020CE3F0040D73FD4
:1039100000C0E03F00C0EA3F0020F53F000000008B
:103920007D36AC397D3C3839EBDCF438320A7E39EF
:10393000124C26399B6AED39A4EE83397F661E3915
:10394000F6398A392B426539A48211395B991F39BE
:10395000C3EECD39DDE7C637A5A22F390000803F81
:10396000C3AA853FC2958B3FD3C3913FF037983FA1
:1039700032F59E3FD7FEA53F3F58AD3FF304B53F1C
:10398000A408BD3F2A67C53F8C24CE3FFD44D73FE6
:10399000DFCCE03FC7C0EA3F7D25F53F00000000D7
:1039A0006E83F9A22915444ED15727FCC0DD34F5AA
:1039B000999562DB4190433CAB6351FEDC390008D2
:1039C0000000002018000000EC2B0008F43900086B
:1039D00018000020A8080000FC2B000800000000D0
:1039E00001000000100000000000000000127A003A
:0439F00000000000D3
:040000050800018965
:00000001FF
