:020000040800F2
:10000000E8050020010100085F28000833250008EA
:100010005D280008DF0800080B2C00080000000025
:10002000000000000000000000000000092A000895
:100030001709000800000000612800080B2A0008CA
:100040001B0100081B0100081B01000829290008EA
:100050001B0100081B0100081B0100081B01000810
:10006000190900081B0100081B010008E10800082D
:100070001B0100081B0100081B0100081B010008F0
:100080001B0100081B0100081B0100081B010008E0
:100090001B0100081B0100081B0100081B010008D0
:1000A0001B0100081B0100081B0100081B010008C0
:1000B000812A00081B0100081B0100081B01000821
:1000C0001B0100081B0100081B0100081B010008A0
:1000D0001B0100081B0100081B0100081B01000890
:1000E0001B0100081B0100081B010008DFF80CD0F1
:1000F00000F0A6FA00480047492E0008E805002055
:100100000648804706480047FEE7FEE7FEE7FEE7B1
:10011000FEE7FEE7FEE7FEE7FEE7FEE77D2A0008D2
:10012000ED000008202A04DB203A21FA02F0002129
:10013000704721FA02F3D040C2F1200291400843F7
:1001400019467047D2B201E000F8012B491EFBD2DC
:1001500070470022F6E710B513460A4604461946D2
:10016000FFF7F0FF204610BD2DE9FE4F804681EAE3
:100170000300C00F0C46009021F0004123F0004521
:10018000B8EB0200A94105D24046214690461C46E4
:100190000B46024623F00040104347D0270DC7F31B
:1001A0000A00C3F30A510290401A019040286BDA0A
:1001B000C3F3130040F4801B0098924620B1002343
:1001C000D2EB030A63EB0B0B01985946C0F14002D6
:1001D000504600F088F906460D4650465946019AA9
:1001E00000F090F910EB08006141002487EA1152F9
:1001F00084EAE7731A4340D0009A62B3019A012A55
:100200004FEA075215DC001B61EB02014FF0004280
:1002100002EA0752CDE90042001C41F58011324646
:100220002B4600F090F903B0BDE8F08F4046214620
:10023000F9E7001B61EB0201001C41F58013001877
:100240005B412018A2F5001747EB030140EAD57087
:10025000B6196D4111E06D084FEA360645EAC075E2
:100260004FEA0752001B61EB0201001C41F58011AF
:1002700049084FEA30000019514132462B4603B07D
:10028000BDE8F04F00F050B9009801224000002373
:10029000D0EB020263EBE073009821464FEAE07472
:1002A000B8EB000061EB0401E9E783F000435BE792
:1002B00081F0004158E72DE9FE4F81EA030404F084
:1002C000004421F0004100944FF0000B23F0004364
:1002D00050EA01045ED052EA03045BD0C3F30A542F
:1002E000C1F30A552C44A4F2F3340194A0FB025448
:1002F000C1F3130141F48011C3F3130343F48013DA
:1003000001FB024400FB034E840A970A44EA81542D
:1003100047EA8357A4FB076802958D0A05FB07850A
:100320004FEA932C04FB0C542705029D4FEA065814
:1003300047EA1637B5EB08056EEB070C870E920EF1
:1003400047EA811742EA8312A7FB0201B6EB0B01D1
:1003500064EB00042B0D43EA0C335E1844EB1C5095
:10036000DA465146E7FB0201C5F313044FEA0B33AB
:1003700043EA14534FEA0432019C43EA0603A4F112
:100380000C040294009CCDE900B400F0DCF803B04A
:10039000BDE8F08F00200146F9E72DE9F04D81EA34
:1003A000030404F0004B21F0004514464FF0000A0E
:1003B00023F0004150EA050220D054EA01021DD08A
:1003C000C5F30A570246C5F31303C1F31300C1F383
:1003D0000A5640F4801543F48013A7EB0608101B5F
:1003E000D64608F2FD3873EB050002D308F1010888
:1003F00001E092185B41B8F1000F03DA00200146DA
:10040000BDE8F08D00204FF48011064684460EE0D2
:10041000171B73EB050705D3121B63EB050306439C
:100420004CEA010C49084FEA300092185B4150EA4F
:100430000107EDD152EA030012D082EA040083EAF8
:100440000501084305D0101BAB4106D20122002351
:1004500006E000224FF0004302E06FF0010253106B
:100460001AEB06004CEB085110EB0A0041EB0B01B4
:10047000BDE8F04D00F058B80EB5C10F80EAE0704D
:100480000844CA07002140F233438DE80E000A46B3
:100490000B4600F058F803B000BD0EB540F23341F2
:1004A00002910021CDE900110A460B4600F04BF8FD
:1004B00003B000BDC1F30A5210B5C1F3130140F2FD
:1004C000FF3341F480119A4201DA002010BD40F25E
:1004D00033439A42A2F2334203DC5242FFF722FE38
:1004E00010BD904010BD202A04DB203A00FA02F132
:1004F000002070479140C2F1200320FA03F3194312
:1005000090407047202A06DBCB17203A41FA02F0D0
:1005100043EAE07306E041FA02F3D040C2F1200260
:10052000914008431946704710B5141E73F100043A
:1005300008DA401C41F1000192185B411A4301D1D5
:1005400020F0010010BD2DE9F04D92469B4611B1FF
:10055000B1FA81F202E0B0FA80F220329046FFF761
:10056000C2FF04460F4640EA0A0041EA0B01534627
:100570005A46084313D0114653EA010019D0C8F176
:1005800040025046FFF7CEFD05460E4650465946FE
:100590004246FFF7A8FF084305D0012004E02046AB
:1005A0003946BDE8F08D0020054346EAE0762C434D
:1005B00037430A986305E40AA0EB08000022FD0A0D
:1005C00044EA47540A3002D500200146E9E7010514
:1005D00010196941DDE9084500196941BDE8F04D90
:1005E000A2E770B521F0004303430CD0C1F30A55D4
:1005F0000024D5EB040564EB0403D617AD1AB34110
:1006000002DB0020014670BD201841EB025170BD95
:1006100030B5041E71F1000404DB4FF00044404289
:1006200064EB0101141E73F1000405DB1C464FF05E
:100630000043524263EB0403994208BF904230BD2D
:10064000064C074D06E0E06840F0010394E807001F
:1006500098471034AC42F6D3FFF74CFD003A00083F
:10066000203A00082DE9F04D00231A461B1A8A4152
:1006700003DB00200146BDE8F08DC1F30A52C1F34F
:10068000130141F480154FF0000BD10702D100187F
:100690006D41521E0027044640F2FF11384601EB1F
:1006A000620A3E468046024600204FF48011FFF762
:1006B00039FDC2197141BB1846EB0100B4EB030CC4
:1006C00075EB000C04D3E41A65EB000517460E46E3
:1006D000241908F101006D4180463428E3DDF91941
:1006E00046EB0600091BA84103D24FF0FF32134628
:1006F00001E0002213461BEB070046EB0A51BDE860
:10070000F04DFFF711BF00002DE9F0410746884684
:10071000214800F0E3FA214C04F138000FC802F040
:1007200009FCC4E9160105460E46E089FFF7B5FE4F
:100730002A463346FFF731FE226B636BFFF7BBFDA2
:1007400020656165D4E91223206D616DFFF725FEF8
:10075000FFF7B0FE2082218A00251148B94212DD40
:1007600000220421064600F035FD0120A071618AB7
:10077000414506D101220421304600F02BFDA57130
:100780006582BDE8F081218AB942FADA01220421AA
:1007900000F020FDA571F4E7D0000020000000204B
:1007A000000C014070B5044600688168C943C90760
:1007B0001CD1816821F00101816000F011FD054626
:1007C0000FE000BF00F00CFD401B022809D9A06A11
:1007D00040F01000A062E06A40F00100E0620120F9
:1007E00070BD20688068C043C007EBD0002070BD9A
:1007F00010B50146406A826A12F0500F05D0006AB7
:10080000026BBDE8104008461047816A41F4007150
:10081000816201688968C1F3424107290CD1017BDB
:1008200051B9816A21F480718162816AC90403D45B
:10083000816A41F00101816200F0F0F810BD10B54D
:10084000406A816A41F040018162C16A41F004015D
:10085000C16200F0E5F810BD10B5406A00F0DFF8A5
:1008600010BD0000F8B500260446009600688168B7
:10087000C943C90728D0816841F00101816013484C
:1008800013490068B0FBF1F000E0401E0090002822
:10089000FBD100F0A5FC054611E000BF00F0A0FC74
:1008A000401B02280BD9A06A40F01000A062E06A49
:1008B00040F00100E06284F824600120F8BD206867
:1008C0008068C043C007E9D10020F8BD6C0000205B
:1008D00040420F000246401A00D5881A7047FEE7D2
:1008E000014800F049BA0000A401002030B590F89A
:1008F00040500124AC40C56B6C6004686360436881
:10090000102B036803D099600068C26030BD9A6004
:100910000068C16030BD7047042000F05FBB7047C5
:10092000F8B50024009490F824202546012A12D01E
:10093000012280F824204A681F23072A0DD2066866
:10094000776B521E02EB820293409F430B689340E9
:100950001F43776319E00220F8BD06680D2A0AD20A
:10096000376BD21F02EB820293409F430B68934088
:100970001F43376309E0F76A0D3A02EB82029340A6
:100980009F430B6893401F43F7620A68072306687A
:100990000A2A0AD3F7680A3A02EB420293409F43BD
:1009A0008B6893401F43F76008E0376902EB42020F
:1009B00093409F438B6893401F4337610A68102A16
:1009C00001D0112A20D1124B02689A4217D19368A4
:1009D0001B0219D4936843F400039360096810293B
:1009E00012D10C490C4A0968B1FBF2F101EB81010B
:1009F000490000E0491E00910029FBD104E0816A12
:100A000041F020018162012480F824502046F8BD85
:100A1000002401406C00002040420F0070477047E6
:100A2000704700002DE9F0414FF0000704003D46FB
:100A30007ED0A06A002628B9E66284F824602046A9
:100A400000F07EF82046FFF7ADFEA16AC90600D48B
:100A500020B1A06A40F01000A06269E0A16A21F410
:100A6000885141F00201A1626268E169237B0A4377
:100A700047EA43010A43A1684FF48077B94209D09D
:100A8000012907D05FF0000194F814C0BCF1010FF8
:100A900002D00AE03946F7E7F3B1A36A43F0200336
:100AA000A362E36A43F00103E3622368D3F804C05E
:100AB0002CF4694C4CEA010CC3F804C021688B6823
:100AC000DFF870C003EA0C0313438B60A168B942DE
:100AD0000BD0012909D00CE0DFF85CC0A3690CEB56
:100AE00043330B4343F40061DFE7218A0D05A5F58D
:100AF00080152168CB6A23F470032B43CB622168F5
:100B000089680E4B1940914208D1E662A16A21F032
:100B1000020141F00101A162BDE8F081A06A20F06C
:100B2000020040F01000A062E06A40F00100E062C4
:100B30000120F1E7FDF7E1FF00E0FFFFFE0E1FFFE0
:100B400070B586B00025064600950195029503957F
:100B500000681A4988422ED11949886940F400700A
:100B60008861886900F400700490886940F004008E
:100B700088618869694600F004000490182000909C
:100B8000032001900F4800F035FA104C0E48C4E9DC
:100B900000058020C4E902504000206180006061AF
:100BA0002020C4E90605204600F090F908B1FFF7BF
:100BB000B6FE3462666206B070BD000000240140DB
:100BC000001002400008014008000240A40100207B
:100BD0002DE9F047894604463B4900683B4F0E1D0E
:100BE0009046884201D0B84207D1306810F4702F87
:100BF00003D001252846BDE8F08794F82400012899
:100C00000CD0012084F824002046FFF72BFE0500BD
:100C10004FF0000004D084F82400EBE70220EAE75C
:100C2000A16A40F60162914341F48071A16221689A
:100C3000B94218D1326812F4702F14D0A16A41F46D
:100C40008011A1623168490505D5A16A21F40051DE
:100C500041F48051A162A16AC9040AD5E16A21F078
:100C60000601E16206E0A26A22F48012A2624968EB
:100C7000E9E7E06284F82400216A15488862216A65
:100C80001448C862216A1448086321686FF00200A2
:100C900008602068816841F4807181602168434662
:100CA0004A464C31206A00F03FF920688168C1F360
:100CB00042410729816803D041F48011816099E79E
:100CC00041F4A001FAE7000000240140002801409F
:100CD000F1070008590800083F08000810B504464D
:100CE00090F82400012807D0012084F82400204631
:100CF000FFF758FD10B113E0022010BD21688A688B
:100D000022F480728A60216A91F82120022A07D198
:100D1000084600F00EF8A16A30B141F04001A1622E
:100D2000002184F8241010BD21F4885141F0010104
:100D3000F5E710B590F821100022022905D0042112
:100D4000816380F82020012010BD01680B6823F02A
:100D50000E030B6001680B6823F001030B6090F831
:100D60004030C46B012101FA03F3636080F8211065
:100D700080F82020104610BD2DE9F05FC16B0C6893
:100D800001680B68D0F840C0042202FA0CF2494D09
:100D9000DFF824A1494E4A4FDFF828B1DFF828E1F7
:100DA00022422CD05A072AD50A68920603D40A6830
:100DB00022F004020A600168A94201D1042219E06C
:100DC000514501D1402215E0B14202D14FF4806279
:100DD00010E0B94202D14FF480420BE0594502D1F4
:100DE0004FF4802206E0714502D14FF4800201E009
:100DF0004FF080622F4908394A60C16A3BE04FF0EA
:100E0000020808FA0CF818EA040F4FF000094FF036
:100E1000010235D05FEA837832D50B689B0605D492
:100E20000B6823F00A030B6080F821200168A942B7
:100E300001D1022219E0514501D1202215E0B14231
:100E400002D14FF4007210E0B94202D14FF40052C7
:100E50000BE0594502D14FF4003206E0714502D152
:100E60004FF4001201E04FF00072124908394A6055
:100E700080F82090816A00291AD0BDE8F05F084709
:100E8000082505FA0CF5254212D01B0710D50B6872
:100E900023F00E030B6090F84010C36B02FA01F1CF
:100EA0005960826380F8212080F82090016BE2E78E
:100EB000BDE8F09F080002401C00024030000240E4
:100EC00044000240580002406C00024030B528B394
:100ED00008C8134914221944B1FBF2F18900C16317
:100EE00010498163022141771A6843F6F0718A4301
:100EF000D0E900142143D0E902452C432143046981
:100F0000214344692143846921431143196000212D
:100F10004163012242770177084630BD012030BD90
:100F2000F8FFFDBF0000024070B5044690F82000B5
:100F3000002501280CD0012084F8200094F82160BD
:100F40000020012E06D084F820000225284670BD1E
:100F5000022070BD022684F82160A0632068066824
:100F600026F0010606602046FFF7C0FCE06A002874
:100F70002068016802D041F00E0106E021F0040172
:100F800001602068016841F00A0101602068016881
:100F900041F001010160D9E770B5044600F020F985
:100FA0000546601C02D004480078044400F018F99B
:100FB000401BA042FAD370BD60000020042805D178
:100FC00005484179012902D0012141717047002172
:100FD0004171C1827047000000000020044910B533
:100FE0000A68024202D00860FFF7E8FF10BD000067
:100FF000140401402DE9F84FDFF8B891002409F1FD
:10100000040A0AF1040B23460F270BF1040EC9E072
:101010000125A5402A40AA427DD1674ED1F804C0DF
:10102000ACEB0608B44532D014DCBCF1030F3AD067
:1010300009DCBCF1000F2AD0BCF1010F1CD0BCF1BF
:10104000020F31D11DE0BCF1110F17D0BCF1120F0E
:101050002AD119E0B8F5881F19D006DCB8F5803F11
:1010600015D0B8F5801F1FD111E0B8F5001F0ED0C4
:10107000B8F5041F18D10AE0CB6815E0CB681B1D3A
:1010800012E0CB6808330FE0CB680C330CE08B68C0
:101090002BB1012B4FF0080303D0456104E004237A
:1010A00002E0056100E00023FF2A01D8064601E0C6
:1010B00000F104064FEA840501D9A5F12005D6F810
:1010C000008007FA05FC28EA0C0803FA05F548EA4F
:1010D0000508C6F800804D68ED0062D5374DAE6951
:1010E00046F00106AE61AD6924F0030605F0010586
:1010F0000095334D06EB050CDCF80850A607360FBB
:1011000007FA06F825EA0805DFF8B880404503D15C
:101110004FF0000817E044E0DFF8AC80404502D112
:101120004FF001080FE0DFF8A480404502D14FF0F6
:10113000020808E0DFF89880404502D14FF003082C
:1011400001E04FF0040808FA06F848EA0508CCF870
:1011500008804D68D9F80060ED034D4601D516436F
:1011600000E096432E604D68DAF80060AD03554606
:1011700001D5164300E096432E604D68DBF8006011
:10118000ED025D4601D5164300E096432E604D68A2
:10119000DEF80060AD02754601D5164300E09643C7
:1011A0002E60641C0D682A46E5407FF431AFBDE82F
:1011B000F88F0000000401400000111000100240F0
:1011C0000000014000080140000C014000100140F7
:1011D000001401400AB1016170470904FBE70000F7
:1011E0000148806870470000600000200248816864
:1011F000027811448160704760000020074810B5F4
:10120000016841F010010160032000F075F8002032
:1012100000F006F800F024F8002010BD0020024085
:1012200070B50D4D04464FF47A712878B1FBF0F09B
:101230000A490968B1FBF0F000F021FE48B9102C12
:1012400007D200222146501E00F036F800206C60C4
:1012500070BD012070BD0000600000206C00002007
:101260000C4808B5816941F001018161816901F093
:1012700001010091C16941F08051C161C06900F074
:10128000805000900448416821F0E06141F0007115
:10129000416008BD0010024000000140002809DB49
:1012A00000F01F02012191404009800000F1E02080
:1012B000C0F8001170470000F0B40E4B1B680C46DC
:1012C000C3F30223C3F10705042D00D90425191D1A
:1012D000072901D2002300E0DB1E012606FA05F1F2
:1012E000491E214099409E40761E16403143F0BC75
:1012F00001F0A0BC0CED00E0064900F00702086810
:101300004FF6FF03184040EA0220034A10430860EA
:10131000704700000CED00E00000FA0501490120D3
:101320000862704700000E4210B529A401461DCC8A
:1013300086B08DE81D002AA02A4C00680490002089
:10134000012923D002293AD010291DD161682268D1
:10135000D20119D5C1F38342C9031DF8020009D592
:10136000616804AAC1F34041515C1F4AB2FBF1F12C
:10137000484301E01D4948436168490204D44000E4
:101380005FF00301B0FBF1F006B010BD226AC2F3BA
:101390000121012903D1920701D5C803F4E70229ED
:1013A00005D1626A920702D549F64040ECE703296D
:1013B000EAD121688903E7D54FF22440E4E700F041
:1013C00023F96168C1F38131491C4900DAE7000063
:1013D00002030405060708090A0B0C0D0E0F101076
:1013E000010200000010024000127A0000093D00D6
:1013F0002DE9F84305460078354CC00754D0E06924
:101400000026C00008D4E06940F08050E061E06947
:10141000012600F0805000902E480168C90512D4C2
:101420000168804641F480710160FFF7D9FE0746EC
:1014300005E000BFFFF7D4FEC01B642823D8D8F80E
:101440000000C005F6D5206A10F4407021D0A988AC
:1014500001F4407181421CD0206A1F49012220F40E
:1014600040700A6000220A602062C00711D0FFF7B6
:10147000B7FE074641F2883808E000BFFFF7B0FE2C
:10148000C11B414502D90320BDE8F883206A8007CB
:10149000F4D5206A696820F44070084320621EB1C8
:1014A000E06920F08050E0612878800705D5606809
:1014B000A96820F44040084360602878C00605D53C
:1014C0006068E96820F48000084360600020DBE782
:1014D0000010024000700040400442422DE9F047F5
:1014E0000F46050061D0434E306800F00700B84257
:1014F00009D2306820F0070038433060306800F0CF
:101500000700B84251D128683B4C810712D54007EB
:1015100003D5606840F4E06060602878000703D578
:10152000606840F4605060606068A96820F0F00076
:10153000084360602878C00728D06868012810D068
:101540002168022810D0890700292EDA616821F06D
:10155000030101436160FFF743FE804641F2883991
:101560000DE021688903EFE78901EDE7FFF738FE19
:10157000A0EB0801494502D90320BDE8F087606867
:10158000696800F00C00B0EB810FEFD1306800F01B
:101590000700B8420BD9306820F0070038433060AC
:1015A000306800F00700B84201D00120E5E7287854
:1015B000400705D56068E96820F4E0600843606092
:1015C0002878000706D56068296920F4605040EA51
:1015D000C100606000F028F86168084AC1F3031197
:1015E000515CC8400649086006480068FFF718FECD
:1015F0000020C2E7002002400010024058390008D5
:101600006C00002064000020044805490068496817
:10161000044AC1F3C221515CC84070476C000020ED
:10162000001002406839000812A185B00FC98DE88A
:101630000F0014A0144A006804905168134801F088
:101640000C03042B10D0082B0ED1C1F38343C90324
:101650001DF803000AD5516804AAC1F34041515C4A
:101660000A4A5043B0FBF1F005B0704708494843BF
:10167000FAE7000002030405060708090A0B0C0D2F
:101680000E0F1010010200000010024000127A003C
:1016900000093D002DE9F84F040070D02078C04DBE
:1016A000C00749D06868C0F38100012807D0686886
:1016B000C0F38100022809D16868C00306D52868F4
:1016C000800339D560680028E7D035E06068B0F560
:1016D000803F0BD010B1B0F5A02F11D0286820F4B6
:1016E00080302860286820F4802002E0286840F4D8
:1016F00080302860606890B1FFF772FD06460AE00E
:10170000286840F480202860F0E700BFFFF768FDFC
:10171000801B642873D828688003F7D50CE0FFF796
:101720005FFD064605E000BFFFF75AFD801B6428F9
:10173000F0D828688003F7D420789A4E80074FF0BD
:1017400001094FF0000839D5686810F00C0F07D078
:101750006868C0F38100022809D16868C00306D414
:101760002868800714D52069012808D110E0206975
:10177000B0B1C6F80090FFF733FD074605E00AE177
:10178000FFF72EFDC01B0228C4D828688007F7D5B4
:101790002868616920F0F80040EAC10028600DE087
:1017A000C6F80080FFF71CFD074604E0FFF718FDB0
:1017B000C01B022823D828688007F7D420780007A8
:1017C0002CD57948A169D9B1C0F80090FFF708FD80
:1017D000074604E0FFF704FDC01B02280FD8686A23
:1017E0008007F7D571484FF4FA510068B0FBF1F06B
:1017F000009000BF0098411E0091FAD20EE080E0F8
:10180000C0F80080FFF7ECFC074604E0FFF7E8FCB7
:10181000C01B022875D8686A8007F7D42078400773
:1018200060D5E8690027C00008D4E86940F080501E
:10183000E861E869012700F0805000905C48016889
:10184000C90513D40168834641F480710160FFF734
:10185000C7FC824606E000BFFFF7C2FCA0EB0A000F
:1018600064284ED8DBF80000C005F5D5E0680128F3
:101870000AD008B1052813D0286A20F00100286298
:10188000286A20F0040002E0286A40F00100286283
:10189000E06841F2883B98B1FFF7A2FC82460BE07A
:1018A000286A40F004002862EEE700BFFFF798FCCA
:1018B000A0EB0A0159455AD8286A8007F6D50CE0F2
:1018C000FFF78EFC824605E0FFF78AFCA0EB0A01D9
:1018D00059454CD8286A8007F6D41FB1E86920F032
:1018E0008050E861E06988B36968C1F38101022929
:1018F00044D00228C6F8608004D0FFF771FC04468B
:1019000038E034E0FFF76CFC074604E0FFF768FCC2
:10191000C01B02282BD828688001F7D4206AB0F5B4
:10192000803F05D16868A16820F4003008436860F2
:10193000D4E908010843696821F474110843686018
:10194000C6F86090FFF74CFC044606E025E000BFB7
:10195000FFF746FC001B022809D828688001F7D54C
:101960001BE000BFFFF73CFC001B022802D903204C
:10197000BDE8F88F28688001F4D40EE00128F7D084
:101980006868226A00F48031914204D1616A00F4EF
:101990007010884201D00120EAE70020E8E700004B
:1019A0000010024000004242800442426C000020CD
:1019B0000070004070B5704C608A401C6082A08A44
:1019C000401CA082E06A0025B0F5C37F26D22079B2
:1019D000012823D1E06AB0F5817F1FD9E06A6081D8
:1019E000A1896089FEF776FF012814DCA08A082807
:1019F000608901D0A08111E00521A0F5827090FBE3
:101A0000F1F0FEF739FD01F0B1F9FEF753FD20705A
:101A1000A582257102E06089A081A58260790128F4
:101A20000DD1E08A401CE082E08A782807D30022AA
:101A300004215248FFF7CEFBE08A6571E5822078E9
:101A40000C2820784BD80628207823D801280FD0DE
:101A5000207802280FD0207803280FD0207804287F
:101A60000FD0207805280FD0207806280FD02AE044
:101A70001E21502025E01E215A2022E01E21642034
:101A80001FE01E216E201CE01E21782019E01E217F
:101A9000822016E0072809D02078082809D020786D
:101AA000092809D020780A2809D00CE01E218C20B2
:101AB00007E01E21962004E01E21A02001E01E2147
:101AC000AA20FEF721FE20780B2805D020780C28CC
:101AD00051D11E213C203BE01E21322038E012284B
:101AE000207822D80D2811D020780E2811D0207807
:101AF0000F2811D02078102811D02078112811D06B
:101B00002078122837D11E21782021E01E2146207E
:101B10001EE01E2150201BE01E215A2018E01E212D
:101B2000642015E01E216E2012E0132814D02078C6
:101B3000142814D02078152814D02078162814D012
:101B40002078172814D02078182814D11E21B4200A
:101B5000BDE8704000F086BE1E218220F8E71E21FD
:101B60008C20F5E71E219620F2E71E21A020EFE74A
:101B70001E21AA20ECE770BD00000020000C0140EF
:101B8000704710B5044600680168C90716D041685F
:101B9000C90713D040684007204607D5FFF7F0FF7C
:101BA00021686FF004004860042002E0FFF702FFA4
:101BB0000120607421686FF00100486010BD80B1A1
:101BC000017C01290FD001210174022242740268B4
:101BD000136843F001031360417400210174084647
:101BE00070470120704702207047000070B5040064
:101BF00003D0607C002610B105E0012070BD267482
:101C0000204600F043F802206074204600F01AF9E4
:101C1000042578BB204600F050FE58BB2068416880
:101C200021F007014160A06820B11748016821F048
:101C3000010101601448001F0168A26821F460716D
:101C4000114301606068411C04D10120FFF76CFB67
:101C500080B1401E21688A6822F00F0242EA1042D9
:101C60008A602168CA6860F30F02CA60204600F0EB
:101C70003FFE08B16574C0E7E67301206073A0738E
:101C80006074002070BD0000306C004008B5006832
:101C90000D49884217D1FFF741FB0C48C16941F05B
:101CA0000061C161C0690A4900F000600090012034
:101CB0000860002211460320FFF7FEFABDE8084045
:101CC0000320FFF7EBBA08BD0028004000100240D7
:101CD0003C0442422DE9F0410D4604003BD0C5B31F
:101CE000207C01283AD04FF0010884F810800220AF
:101CF0006074E87872B300F0D7FDE073687800F0A4
:101D0000D3FD6073A87800F0CFFDA073C2B2617BF1
:101D1000E07B00F026FE20732870204600F011FEC4
:101D20004FF46161B0FBF1F1002518292DD918227B
:101D3000B1FBF2F1A1EB011101EB4101C1EB01118A
:101D400000EBC1163146204600F04AFE0427C8B910
:101D50000BE000E004E00120BDE8F0810220FBE799
:101D6000E07368786073A878CFE7204600F0E2FD62
:101D7000411C0AD0B04208D206490144204600F076
:101D80001BFE10B167742574E5E784F81180257493
:101D90000020E1E7805101002DE9F0410D460400EB
:101DA00024D01DB3207C012823D04FF0010884F8F3
:101DB0001080022060742878EAB100F075FD4FF4BD
:101DC000616100FB01F6687800F06EFDC0EB001069
:101DD00006EB8006A87800F067FD351829462046F6
:101DE00000F0FEFD0026042710BB0FE00120BDE837
:101DF000F0810220FBE74FF4616148436978C1EB51
:101E0000011100EB8100A9784518E7E720684168D7
:101E100021F005014160204600F08CFD411C0AD0F4
:101E2000A84208D206490144204600F0C5FD10B181
:101E300067742674DAE784F8118026740020D6E7E8
:101E40008051010070B504000AD02068416821F07B
:101E500008014160FFF7C4F905464FF47A7608E0BF
:101E6000012070BDFFF7BCF9401BB04201D903202F
:101E700070BD206840680007F4D5002070BD10B523
:101E8000401EB0F1807F01D3012010BD4FF0E0244F
:101E900060610F21601700F0CDFE0020A0610720D7
:101EA0002061002010BD70477047000070B590F8A9
:101EB0003C20012A26D0012480F83C40022280F8F0
:101EC0003D2003685A689D6822F070060A68324314
:101ED0005A600D4B02689A4208D0B2F1804F05D08B
:101EE0000A4B9A4202D00A4B9A4204D1496825F023
:101EF00080031943916080F83D40002180F83C1038
:101F0000084670BD022070BD002C01400004004056
:101F10000008004010B5040003D094F83D0010B153
:101F200007E0012010BD002084F83C00204600F0AE
:101F30001FF8022084F83D00211D206800F0A6FD56
:101F4000012084F8460084F83E0084F83F0084F8BD
:101F5000400084F8410084F8420084F8430084F88B
:101F6000440084F8450084F83D00002010BD0000C6
:101F700000B585B0002100910191029103910168A3
:101F80001748B1F1804F0CD0164A914207D1C16970
:101F900041F00401C161C06900F00400049005B083
:101FA00000BDC16941F00101C161C16901F00101D8
:101FB0000491816941F0040181618069694600F002
:101FC00004000490012000900748FFF713F8002256
:101FD00011461C20FFF770F91C20FFF75FF9DEE7C0
:101FE00000100240000800400008014090F83D1039
:101FF000012901D001207047022180F83D100068BE
:102000000B49884208D0B0F1804F05D00949884279
:1020100002D00949884204D1816801F007010629EC
:1020200003D0016841F00101016000207047000009
:10203000002C0140000400400008004070B5044638
:1020400090F83C00012817D0012584F83C5002206C
:1020500084F83D002068826822F0770222F47F42F3
:1020600082600868502830D00DDC20284DD005DC77
:1020700098B310283BD148E0022070BD302844D0EE
:10208000402834D139E0602828D0702806D0B0F537
:10209000805F2CD0B0F5005F29D10AE0CB68D1E990
:1020A0000121206800F035FD2068816841F077014A
:1020B00009E0CB68D1E90121206800F02AFD206801
:1020C000816841F48041816011E0CA6849682068F4
:1020D00000F031FD5021206807E016E0CA68496829
:1020E000206800F065FD6021206800F01CFD84F888
:1020F0003D50002084F83C0070BDCA6849682068E3
:1021000000F019FD40212068EFE7226801461046E3
:10211000EBE7000012488178002920D04FF0804280
:102120000021516343781BB14378012B05D013E0A4
:10213000526B0262018101210DE0526B4262426AE0
:10214000036AD21A8262826A4FF434735A43054B8F
:10215000B3FBF2F2C26241708178491E8170704710
:102160000000002000A24A042DE9F041054690F845
:102170003C000C46012836D0012085F83C008AB38B
:10218000042A42D02868082A51D0D4E90023E16803
:10219000066A26F480560662C669076A26F4407607
:1021A00046EA03234FF6FF7606EA013123F4704333
:1021B00019434FF4005627F4005306EA02321A433B
:1021C000C16102622868C16921F44061C161286867
:1021D000C169A26841EA0221C161002085F83C0082
:1021E000BDE8F08101E00220FAE7D4E90012E368DB
:1021F000286800F0B1FC2868816921F00C01816138
:1022000028688169A26811430FE0D4E90012E368ED
:10221000286800F0DFFC2868816921F44061816151
:1022200028688169A26841EA02218161D5E7D4E981
:102230000027267B016A21F480710162C169036A6B
:1022400021F00301394321F0F00731074FF4007604
:1022500047EA116123F4007306EA02221A43C161BE
:1022600002622868C16921F00C01C1612868C16956
:10227000A2681143B0E710B5040003D094F83D0004
:1022800010B107E0012010BD002084F83C0020467A
:1022900000F01EF8022084F83D00211D206800F0A7
:1022A000F5FB012084F8460084F83E0084F83F00E6
:1022B00084F8400084F8410084F8420084F8430028
:1022C00084F8440084F8450084F83D00002010BDE7
:1022D0007047000010B5044651B104290DD00829FB
:1022E00010D094F8410094F84520012811D10EE057
:1022F00094F83E0094F84220F7E794F83F0094F8F1
:102300004320F2E794F8400094F84420EDE7012AD6
:1023100001D0012010BD022051B1042911D008299B
:1023200018D084F8410084F845000C291BD136E010
:1023300084F83E0084F842002068C26842F002023D
:1023400010E084F83F0084F843002068C26842F03F
:10235000040207E084F8400084F844002068C26862
:1023600042F00802C2600122206800F0C5FB0E495D
:102370002068884208D0B0F1804F05D00B498842D0
:1023800002D00B49884204D1816801F00701062977
:1023900003D0016841F001010160002010BD2068F8
:1023A000C26842F01002DDE7002C0140000400404A
:1023B0000008004070B50446006801694FF0000550
:1023C000C943890715D4C168C943890711D4E91ED7
:1023D000016101202077206880698007204602D0B3
:1023E000FFF798FE04E000F098F8204600F096F819
:1023F000257720680169C943490717D4C168C943D3
:10240000490713D46FF0040101610220207720688E
:10241000806910F4407F204602D0FFF77BFE04E085
:1024200000F07BF8204600F079F8257720680169F4
:10243000C943090716D4C168C943090712D46FF00C
:1024400008010161042020772068C06980072046C8
:1024500002D0FFF75FFE04E000F05FF8204600F0D6
:102460005DF8257720680169C943C90617D4C1689A
:10247000C943C90613D46FF0100101610820207709
:102480002068C06910F4407F204602D0FFF742FE6A
:1024900004E000F042F8204600F040F8257720687C
:1024A0000169C943C90708D1C168C943C90704D133
:1024B000891E0161204600F033F820680169C94394
:1024C000090609D4C168C943090605D46FF0800123
:1024D00001612046FFF7E7FC20680169C94349060E
:1024E00009D4C168C943490605D46FF040010161B0
:1024F000204600F01DF820680169C94389060BD405
:10250000C168C943890607D46FF0200101612046E4
:10251000BDE87040FFF7C8BC70BD70477047000051
:1025200002480189491C0181704700000000002019
:102530007047FEE730B587B000216A4640FA01F3E4
:1025400003F0010342F82130491C0629F6DB354C23
:1025500000984FF4805520B9012229462046FEF705
:1025600039FE0098012804D1002229462046FEF7B2
:1025700031FE01984FF4005520B90122294620462A
:10258000FEF728FE0198012804D1002229462046A2
:10259000FEF720FE02984FF4804520B9012229461B
:1025A0002046FEF717FE0298012804D10022294692
:1025B0002046FEF70FFE03984FF4004520B9012294
:1025C00029462046FEF706FE0398012804D1002282
:1025D00029462046FEF7FEFD134C04984FF4807503
:1025E00020B9012229462046FEF7F4FD049801286F
:1025F00004D1002229462046FEF7ECFD05984FF451
:10260000007520B9012229462046FEF7E3FD059812
:10261000012804D1002229462046FEF7DBFD07B041
:1026200030BD0000000C0140000801403EB5002410
:102630000D480094019402940A49846001600125C8
:102640000573047505614FF460214460C161FEF7B4
:10265000E9F90320CDE90005694602940248FEF736
:102660005FF93EBD00240140D00000202DE9F04379
:1026700085B000242E48009401940294039481694B
:1026800041F010018161816901F0100104918169BB
:1026900041F020018161816901F02001049181698B
:1026A00041F004018161816901F0040104918169B3
:1026B00041F0080181618069DFF8788000F008004E
:1026C0004FF204460490002231464046FEF782FD58
:1026D000DFF864904FF44077002239464846FEF711
:1026E00079FD0420009015480125CDE901056946D2
:1026F0004846FEF77FFCCDE900650226CDE902469B
:1027000069464046FEF776FC00970396CDE90154F2
:1027100069464846FEF76EFC002211460820FEF787
:10272000CBFD0820FEF7BAFD05B0BDE8F083000040
:1027300000100240000C0140000801400000211080
:102740001CB5002412480194104900940160611ED8
:10275000C0E90114FFF74AFA8DF804408DF80540EE
:102760008DF80640002201A90948FFF715FB01205A
:102770008DF800008DF801008DF802008DF80340FF
:10278000002269460248FFF7A5FA1CBD0028004058
:102790000001002010B58AB000241A480494059462
:1027A00006940794089409940094019402944FF0BD
:1027B0008041039401604FF43471C0E901144CF27C
:1027C0005031C0E903148461FFF7A4FB4FF480503B
:1027D000049004A90B48FFF731FC0A48FFF74BFDB2
:1027E000089408A907480994FFF760FB0120CDE988
:1027F000004002940022694602480394FFF7B4FCAB
:102800000AB010BD1401002010B586B00024124893
:10281000009401940294039404940E490594016079
:102820004FF4E151C0E901144EF66021C0E90314F0
:102830008461FFF76FFB4FF48050009069460648B3
:10284000FFF7FCFB049404A903480594FFF72EFB53
:1028500006B010BD000800405C010020FEE7704794
:102860007047000030B40E4A04460023D5790D4865
:10287000012D0BD02144548AA1420EDA538201214A
:10288000D171002230BC0421FEF7A4BC548A8C42D2
:1028900003DD5382D3710122F4E730BC704700009E
:1028A00000000020000C0140010901EB810100F053
:1028B0000F0000EB4100C0B2704770B50446FEF750
:1028C0008FFC05464FF47A7606E0FEF789FC401B44
:1028D000B04201D9032070BD206840688006F4D55D
:1028E0002068416841F010014160002070BD000087
:1028F00070B504460068416821F010014160FEF7A0
:102900006FFC05464FF47A7607E000BFFEF768FCDF
:10291000401BB04201D9032070BD2068406880068A
:10292000F4D5002070BD00000148FFF72AB900006F
:10293000000100200168086A496A89B241EA004042
:102940007047006881698AB2C1698BB2816989B2B6
:102950008A4203D0C06961F31F40704743EA0240D6
:102960007047F0B56424C1EBC1030927A500072611
:1029700003EB01130329B3FBF7F100F5FA601144EF
:1029800001440AD2401EB0FBF4F201EB9001B0FB0F
:10299000F5F0891A0844001D08E0B0FBF4F201EBE1
:1029A0009001B0FBF5F0891A0844801CB0FBF6F1E9
:1029B00006FB1100C0B2F0BD70B50D4606460024FE
:1029C000FFF77BFF48B93168280C08623168A8B26C
:1029D00048623046FFF78CFF00B10124204670BDED
:1029E00070B50D4606460024FFF767FF48B9316809
:1029F000280C88613168A8B2C8613046FFF778FFBB
:102A000000B10124204670BD7047FEF7EFBB30B522
:102A100093B028216846FDF79CFB14210AA8FDF716
:102A200098FB002401210F9411940520129400902A
:102A3000CDE9024110944FF48030019002250491B9
:102A4000CDE907504FF4E01009906846FEF722FEEA
:102A50000F20CDE90A056802CDE90C4002210AA841
:102A60000E94FEF73BFD03200F90E8011090C0018B
:102A700011900FA8FEF7BCFC13B030BD70470000EA
:102A80000148FFF797BC000014010020F0B5026870
:102A9000164B174C174D4FF08047984205D0B8425F
:102AA00003D0A04201D0A84203D122F070064A68A8
:102AB0003243984205D0B84203D0A04201D0A84288
:102AC00003D122F44074CA6822434C6922F0800288
:102AD000224302608A68C2620A688262984201D117
:102AE0000969016301214161F0BD0000002C014032
:102AF000000400400008004010B501F01F03012150
:102B0000046A99408C430462016A9A40114301624D
:102B100010BD10B5846842EA032224F47F440A43BE
:102B20002243826010BD826822F070020A4342F0A4
:102B300007018160704710B5036A046A24F001043C
:102B40000462846924F0F00444EA021423F00A02C7
:102B50000A438461026210BD70B5046A24F0010466
:102B600004628469056A0F4EB04208D0B0F1804F0C
:102B700005D00D4EB04202D00C4EB04203D124F02D
:102B80000304144301E044F001041A0724F0F004A4
:102B900044EA126225F00A0301F00A011943826136
:102BA000016270BD002C014000040040000800409C
:102BB00010B5036A23F0100303628369046A23F4E7
:102BC000704343EA023224F0A00343EA0111826118
:102BD000016210BD30B5046A24F0100404628469F7
:102BE000056A24F4407444EA022222F470444FF649
:102BF000FF7202EA03322243A02425F0A00304EA74
:102C0000011119438261016230BDFEE7490050EABB
:102C1000C12018BF04204A0D18BF40F0010040F247
:102C2000FF72B2EB515F08BF40F00200012808BFFD
:102C3000052070470907090E002804DB00F1E02099
:102C400080F80014704700F00F0000F1E02080F8D9
:102C5000141D70472DE9F0414F1E00EBC7010446DB
:102C6000D1E9000115461E4637F006020DD02A466E
:102C70003346FDF720FB7F1E04EBC703D3E9002397
:102C8000FDF772FA37F00602F1D1022F25D0042F9A
:102C900013D0062F18BFBDE8F0812A463346FDF752
:102CA0000AFBD4E90A23FDF75FFA2A463346FDF70B
:102CB00002FBD4E90823FDF757FA2A463346FDF70D
:102CC000FAFAD4E90623FDF74FFA2A463346FDF710
:102CD000F2FAD4E90423FDF747FA2A463346FDF712
:102CE000EAFAD4E90223FDF73FFA2A463346FDF714
:102CF000E2FAD4E90023BDE8F041FDF735BA00005F
:102D00000022134610460149FDF747BB0000F03F83
:102D1000FDF72ABA0022134610461146FDF73DBBC7
:102D200040F2013200204FF0E041FDF75ABC0000B4
:102D3000024A00201107FDF754BC000001FDFFFF0F
:102D400002E008C8121F08C1002AFAD17047704774
:102D5000002001E001C1121F002AFBD170470000D2
:102D60000149086070470000700000202DE9F04123
:102D7000C1F30A52A2F2FF362F4A304B0D460446E9
:102D8000142E2FDA002E12DAFDF7EEF90022134688
:102D9000FDF73EFC4CD2002DBCBF4FF00045002497
:102DA00046DB55EA040018BF254D19D140E0DFF895
:102DB00094C02CFA06F705EA070C5CEA040C08BF7D
:102DC000BDE8F081FDF7D0F900221346FDF720FCA5
:102DD0002ED2002D03DD4FF48010F0400544BD439A
:102DE000002425E0332EC8BFBDE8F081A6F1140C05
:102DF0004FF0FF3727FA0CF73C4208BFBDE8F081DF
:102E0000FDF756FA00221346FDF702FC10D2002D02
:102E10000DDD142E08BF6D1C09D0C6F13400012150
:102E200001FA00F02044A04238BF6D1C0446BC43A8
:102E300029462046BDE8F0819C7500883CE4377E39
:102E40000000F03FFFFF0F0008B5FEF7D7F9FFF7CE
:102E5000DEFDFFF70BFC3448416941F0010141619F
:102E60004069002200F00100009011460B20FEF79F
:102E700023FA0B20FEF712FAFFF7C6FCFFF78AFCD5
:102E8000FFF7D4FBFFF75CFC00212848FFF722FA8C
:102E900026484830FFF7AAF824481438FEF78FFE7A
:102EA0000720FEF7FBF9224C02264FF4C3774FF0C0
:102EB00000094FF001084FF4C875A6702846FEF7C8
:102EC0006BF8E06AB84203D984F80480A4F814903F
:102ED000E06AB8420ED8E06AC8280BD984F802909C
:102EE00084F8038084F8068084F807802846FEF77B
:102EF00053F8E2E70020FFF71DFB2846FEF74CF8E9
:102F000020780028D9D020780B2807D20849074814
:102F100001220E314438FDF75BFECEE7034814383A
:102F2000FEF74DFEC9E7000000100240140100202A
:102F3000000000202DE9F04D1D460C4698B01746C4
:102F400021F0004123F00043002814BF4FF0010C92
:102F50004FF0000C0CEB440CFE4A0CEB02064FEA5F
:102F6000620C66452BD33E0018BF012606EB4506D2
:102F70001644F94A964222D3F84A53EA070C02D083
:102F8000944205D148B918B000201146BDE8F08D33
:102F9000002808BF4FF0000C01D04FF0010C0CEBE3
:102FA000440212F5001F0AD8002F14BF4FF0010C85
:102FB0004FF0000C0CEB450212F5001F07D918B0BA
:102FC0003A462B462146BDE8F04DFFF7A1BE002250
:102FD000DFF88CA3002CB8BF534526DADFF884C392
:102FE0006345A8BF022220DADFF870C39C451CDCD1
:102FF000DFF874C30CEB235CBCF1140F08DDCCF1DB
:10300000340627FA06FC0CFA06F6BE420DD108E09B
:103010005FB9CCF1140623FA06FC0CFA06F69E42C0
:1030200003D10CF00102C2F1020251EA000C19D1E5
:10303000002D17DA002C18BF022A01D0012A07D070
:103040000220FFF78DFE18B0BDE8F04DFFF758BE27
:103050000220FFF785FEFFF753FE18B081F0004114
:10306000BDE8F08DB7F1000C6CD1534525D104F1CA
:10307000804212F5801201BF00280020B74918B025
:1030800008BFBDE8F08DB548884207DC002DA1BF20
:103090006046294618B0BDE8F08D07E0281E05DA25
:1030A00080F0004118B06046BDE8F08DAF4979442A
:1030B000D1E9000118B0BDE8F08DDFF8A0C263458A
:1030C00025D1002D1FDA19B1514512D1D8B909E027
:1030D000002840F0EC82A24A214618B062F31E019B
:1030E000BDE8F08D0020214618B060F31E01BDE858
:1030F000F08D08DA18B02346BDE8F04D02460020F6
:103100006146FDF74AB918B02146BDE8F08D51453A
:1031100018DAB5F1804F0DD0A5F1005CBCF1FF5C71
:1031200010D1B4F1000C0DDB18B06146BDE8F04DD4
:1031300000F0ECBB234618B00246BDE8F04D19463E
:10314000FDF7B9B8060024F0004C3BD1D9B1514588
:1031500033D1002C06DD002DA1BF0020514618B050
:10316000BDE8F08D002C01DD002D1BDB002C13DAF7
:10317000002D11DB012A4FF0000014BF78497C4973
:1031800018B0BDE8F08D022A18BF002C0AD0012A21
:1031900008D1002C06DA0AE0002CB8BF002D11DAA5
:1031A000012A04D0002018B00146BDE8F08D18B007
:1031B00000204FF00041BDE8F08DA1F14050B0F18A
:1031C0007F601AD0012000EBE47050EA020421D0A5
:1031D000624C521E4FF0000B104304BF4FF0000B27
:1031E000644C654883427CDD644A654893421FDD38
:1031F000884217DB002D25DB37E0002C00DA4AB1CE
:10320000022A0CBF01204FF0FF3018B0BDE8F04D8E
:10321000FDF732B90120FFF7A3FD18B0BDE8F04D6E
:10322000FFF778BD4D4A8A4202DC002D0ADC1CE023
:10323000814202DA002D18DA04E0484B994220DD81
:10324000002D12DD0220FFF78BFDFFF769FD05461B
:103250000E460022534658462146FDF72CF818B07A
:1032600066F31E012846BDE8F08D0220FFF778FDC9
:10327000FFF75EFD0A46214618B062F31E01BDE865
:10328000F08D002230466146FDF70FF880460E466D
:103290006FF00102FDF7A5F94FF05532394BFDF7FC
:1032A00007F842463346FDF706F80022364BFCF796
:1032B000FFFF824642463346049110461946FCF70A
:1032C000FAFF5246049BFCF7F6FF8A4600904FF047
:1032D000C0422E4B40463146FCF7EDFF2C4A2B4BAB
:1032E00000E027E0CDE9060151460098FCF7E3FF36
:1032F00082460191274A284B40463146FCF7DBFFC6
:103300005246019BFCF7D1FF82460B4602460591CF
:10331000DDE90601FCF728FFDDE9062300268846E3
:103320003046FCF7C2FF5246059BFCF7C1FF024640
:1033300000F07EB90020B1F5801F07DA3522304653
:103340006146FDF74EF906466FF0340000EB215060
:1033500024E00000FFFF1F00FFFF0F000000F03F10
:103360000000F07F0000404301FCFFFF4609000021
:103370000000F0FF0000F0BF0000E0410000F0435B
:10338000FFFFEF3F5555D53F0000E03F4715F73FA2
:10339000FE822B6544DF5DF80BAE543EA0F2FF3099
:1033A0000190C1F3130040F07F6141F04051029160
:1033B000FE498842D8BF002004DDFD498142C8BFD4
:1033C000012001DD0D9008E000200D900198401CC7
:1033D00001900298A0F5801002900299F548784477
:1033E0000B910D9900EBC100D0E900230F933046FB
:1033F0000A920B99FCF759FFCDE90601DDE90A2194
:1034000030460F9BFCF7B0FE02460B460020EA490F
:10341000FCF7C3FF059102460B460090DDE906016B
:10342000FCF749FF1490E5488A464FF000087844BD
:103430000299006812904FF0005040EA61010D9827
:103440000F9B01EB804000F5002109910A9A129828
:10345000FCF72BFF32460B9BFCF72AFF42465346F4
:10346000FCF729FF0646029140465146099B129AF5
:10347000FCF721FFDDE90623FCF71AFF3246029B29
:10348000FCF713FF059B009AFCF715FF0091149AB7
:103490000490534610461946FCF70DFF06460246B7
:1034A000C7480B46029106217844FFF7D3FBCDE9CC
:1034B0000510029B324610461946FCF7FCFEDDE97A
:1034C0000532FCF7F8FE059106465346404619467C
:1034D000149AFCF749FE009B049AFCF7ECFE324676
:1034E000059BFCF741FECDE90510424653461046C8
:1034F0001946FCF7E0FE0022B24B02910A90FCF75D
:1035000033FEDDE90532FCF72FFE0E464246AD4B99
:103510004046FCF7CAFE029B0A9AFCF7C6FEDDE9AC
:103520000532FCF7C5FE424602910A90334610462A
:103530005146FCF7C0FECDE906015346149A0299A4
:103540000A98FCF7B8FE8A46029033464246009934
:103550000498FCF7B0FE5346029AFCF705FE82463B
:103560000B4602460591DDE90601FCF7FDFDDDE9AC
:103570000623002088460646FCF797FE5246059B28
:10358000FCF796FE824609914FF060428E4B304622
:103590004146FCF790FE049006918C4A8A4B5046B7
:1035A0000999FCF788FE82460291894A894B304688
:1035B0004146FCF780FE5246029BFCF7D5FD864B48
:1035C0007B440D9A03EBC203D3E90023FCF7CCFD47
:1035D0000E9007910198FCF74FFF0591DDE9061366
:1035E00082460E9A0498FCF7BFFD7C4A7A440D9BF4
:1035F00002EBC303D3E9002300930292FCF7B4FD6E
:103600005246059BFCF7B0FD0026884652463046E0
:10361000059BFCF74AFE009B029AFCF746FE069BC0
:10362000049AFCF742FE079B0E9AFCF741FE024605
:1036300000200B46029038462946FCF73CFE8246A5
:1036400001912B4638461946029AFCF72EFE324667
:103650004346FCF730FE5246019BFCF785FD0746CA
:103660008A463246434629460298FCF724FE054620
:103670000E463A465346FCF777FD594A8846914232
:1036800021DBA8EB020353EA000210D12A4633469D
:10369000FCF70BFECDE90401524A534B3846514624
:1036A000FCF762FDDDE90423FCF7B2FF21D2022022
:1036B000FFF756FBFFF734FB0A46214618B062F3CA
:1036C0001E01BDE8F08D494B28F000429A4210D30C
:1036D000474A08EB020353EA00027FF4C6AD2A46CC
:1036E0003346FCF7E2FD3A465346FCF791FF7FF67E
:1036F000BCAD0022019228F000403E493E4A01EB59
:103700002051824223DA481C4FF4801121FA00F044
:1037100040443A4AC0F30A517A44394BA1F2FF318E
:10372000CB4020EA0303C0F3130040F48010C1F142
:103730001401C84012680190B8F1000FBCBF4042AC
:10374000019028463146FCF7B0FD05460E462A4654
:10375000334638465146FCF707FD4FF00008424615
:10376000284B40460591FCF7A6FDCDE90601264A07
:10377000264B40460599FCF79EFD009102902A4693
:10378000334640460599FCF790FD3A465346FCF710
:103790008FFD1F4A1F4BFCF78EFD009B029AFCF722
:1037A000E3FC0746884602460B4635E08E98030048
:1037B0007AB60B008E0500000000F03FC605000041
:1037C000F40400000000084009C7EE3FFD033ADCA6
:1037D000F5015B14E02F3EBECC0300009003000017
:1037E00000009040FE822B654715973C00CC90402E
:1037F00000346F3F01FCFFFF0000E03FDC020000EF
:10380000FFFF0F00432EE63F396CA80C615C20BE21
:10381000EF39FAFE422EE63FDDE90601FCF7A4FC93
:10382000DDE9062305460E46FCF73FFD3A464346D2
:10383000FCF73EFD0F462A463346009010461946D7
:10384000FCF739FD824602462E4888460B46052184
:103850007844FFF7FFF952464346FCF72CFD2A4611
:103860003346FCF725FD80468A463B4628463146CE
:10387000009AFCF720FD3B46009AFCF775FC069188
:10388000009000224FF0804340465146FCF70DFD6A
:103890000F460C904246534628463146FCF70BFD36
:1038A0003B460C9AFCF779FD069B009AFCF7FDFC61
:1038B0002A463346FCF7F9FC0022134BFCF7F8FCD0
:1038C000054601980E4601EB00510815002810DC52
:1038D00028463146019AFCF784FEFFF797F9042841
:1038E00008BFFFF725FA28463146019AFCF779FE12
:1038F00005460B4618B02A4658462146BDE8F04D0D
:10390000FCF7D9BC7C0100000000F03F2DE9F0413C
:1039100006460F46FCF7A6FE041E0D4618BF012002
:10392000284320F00040C0F17F6000F1E040C00F6C
:103930000ED0301C18BF0120384320F00040C0F1E9
:103940007F6000F1E040C00F04BF0120FFF708FADC
:1039500020462946BDE8F08100000000000000007C
:103960000102030406070809000000000102030425
:10397000000000000000F03F000000000000F83FE1
:1039800000000000000000000000004003B8E23F1B
:10399000000000000000000006D0CF43EBFD4C3ECD
:1039A000033333333333E33FFFAB6FDBB66DDB3FC2
:1039B0004D268F515555D53F01411DA96074D13F0A
:1039C00065DBC9934A86CD3FEF4E454A287ECA3F04
:1039D0003E5555555555C53F93BDBE166CC166BF86
:1039E0002CDE25AF6A56113FF16BD2C541BDBBBE7F
:1039F000D0A4BE726937663E0000000000000000DF
:103A0000203A00080000002074000000402D00084B
:103A1000943A00087400002074050000502D00083E
:103A20000000000001000000000000000000000095
:103A30000000000000000000000000000000000086
:103A40000000000000000000000000000000000076
:103A5000BA490C022B870A40000000000000004019
:103A600000000000000028407B14AE47E17A743F5C
:103A70000000000000000000000000000000000046
:103A80000100000010000000000000000024F4000D
:043A90000000000032
:04000005080000ED02
:00000001FF
