:020000040800F2
:10000000B80900204D0200085502000857020008F8
:10001000590200085B0200085D02000800000000B1
:100020000000000000000000000000005F02000867
:10003000610200080000000063020008054E00088D
:1000400067020008670200086702000867020008EC
:1000500067020008670200086702000875190008B7
:100060007B190008670200086702000867020008A1
:1000700067020008670200086702000867020008BC
:1000800067020008670200080D15000867020008F3
:10009000670200086702000867020008670200089C
:1000A000014F0008670200086702000867020008A5
:1000B000670200080000000000000000670200085E
:1000C00067020008670200086702000800000000DD
:1000D000670200086702000867020008D956000896
:1000E00067020008670200086702000800000000BD
:1000F0000000000000000000000000000000000000
:10010000000000000000000000000000670200087E
:100110000000000000000000054F00080000000083
:1001200000000000000000000000000000000000CF
:1001300000000000000000000000000000000000BF
:1001400067020008670200080000000000000000CD
:10015000000000000000000000000000000000009F
:1001600067020008670200086702000867020008CB
:10017000670200080000000000000000000000000E
:10018000000000006702000800F002F800F04FF8DD
:100190000AA090E8000C82448344AAF10107DA45E2
:1001A00001D100F044F8AFF2090EBAE80F0013F0E5
:1001B000010F18BFFB1A43F001031847E872000053
:1001C00008730000103A24BF78C878C1FAD85207E3
:1001D00024BF30C830C144BF04680C6070470000C1
:1001E0000023002400250026103A28BF78C1FBD840
:1001F000520728BF30C148BF0B607047662907F01F
:100200003880642900F01681752900F013810020E0
:1002100070471FB507F023F800F036FC04000020FB
:10022000002106F071FBE0601FBD10B510BD00F0AD
:100230002FFD1146FFF7EDFF06F05AF900F04DFDD6
:1002400003B4FFF7F2FF03BC00F090FD09488047BC
:1002500009480047FEE7FEE7FEE7FEE7FEE7FEE7A8
:10026000FEE7FEE7FEE7FEE704480549054A064BC0
:1002700070470000994E000889010008B80300206B
:10028000B8090020B8050020B805002053EA020C88
:1002900000F069802DE9F04B4FF00006002B1FBFE6
:1002A000B3FA83F503FA05F424FA05F65E4012BFAB
:1002B0001643B2FA82F502FA05F4C5F120051EBF15
:1002C00022FA05FC44EA0C04203556EA044C4FEAB5
:1002D000144418BF641C4FF000084FF0000990420E
:1002E00071EB030C39D3002919BFB1FA81F701FA78
:1002F00007F6B0FA80F700FA07F6C7F120071EBF2D
:1003000020FA07FC46EA0C062037B6FBF4FCA7EB04
:100310000507103F07F01F0BCBF120060CFA0BFB73
:100320002CFA06F644BFB3460026202FA4BF5E4633
:100330004FF0000B5BEA060C08BF4FF0010B19EB06
:100340000B09ABFB027C48EB0608C01B06FB02CC8A
:100350000BFB03CC71EB0C01C1E70B460246414697
:100360004846BDE8F08B13B54FF000004FF0000198
:10037000AFF30080BDE81C407047B2F120030AD5FE
:10038000C2F1200301FA02F120FA03F300FA02F0AD
:1003900041EA0301704700FA03F14FF00000704793
:1003A0000FB41CB5084B06AA7B446946009005981B
:1003B00000F051FB04460020694600F05FFB204638
:1003C0001CBC5DF814FB0000D10600002DE9F041D3
:1003D0000E460446002020622046E168884730B37C
:1003E000252805D0D4E901219047206A401CF2E776
:1003F000E168204600278847050018D0A5F1410094
:10040000192802D820354FF4006732462946204685
:100410002760FFF7F3FE40B1012804D0F61D26F057
:1004200007060836D8E7361DD6E72846DAE7206AF9
:10043000BDE8F0812DE9F0410646002410687529D9
:10044000314616A510D0AFF30080002802DA4042F2
:1004500013A507E031688A0701D512A502E0490714
:1004600004D511A5012401E0AFF3008000210A2288
:1004700006F1240709E0B0FBF2FCB0FBF2F302FB4B
:100480001C00303078541846491C0028F3D123460C
:100490002A463046BDE8F04100F06FB80000000089
:1004A0002D0000002B0000002000000010B5203AB5
:1004B000C0F00B80B1E81850203AA0E81850B1E81D
:1004C0001850A0E81850BFF4F5AF5FEA027C24BFD3
:1004D000B1E81850A0E8185044BF18C918C0BDE8CA
:1004E00010405FEA827C24BF51F8043B40F8043B93
:1004F00008BF7047D20728BF31F8023B48BF11F848
:10050000012B28BF20F8023B48BF00F8012B7047A1
:100510004FF0000200B5134694469646203922BF9C
:10052000A0E80C50A0E80C50B1F12001BFF4F7AFE7
:10053000090728BFA0E80C5048BF0CC05DF804EBC9
:10054000890028BF40F8042B08BF704748BF20F837
:10055000022B11F0804F18BF00F8012B7047704735
:100560007047704710B500F093FA006810BD10B5E1
:10057000044600F08DFA046010BD2DE9F0470D46E9
:1005800099469246044600F124080168880604D57D
:10059000E06921F01001216000E00120A84201DDA6
:1005A000471B00E00027A1697A1902EB0900081A2D
:1005B000A0612078C00602D42046AFF30080002658
:1005C00008E0D4E901211AF806009047206A401C8F
:1005D000761C20624E45F4DB2078C0060AD5204602
:1005E000AFF3008006E0D4E9012130209047206A73
:1005F000401C2062381EA7F10107F4DC07E0D4E9B3
:10060000012118F805009047206A401C2062281E2E
:10061000A5F10105F3DC2046AFF300802078000649
:1006200002D50220BDE8F0870120FBE770472DE9E5
:10063000FF4F0C461E464FF0FF378BB0D2E900014A
:10064000DDF860800A908A46C1F30A5505B93D4637
:10065000002108464FF00000BAF1000F00F44000FE
:1006600005DA00EB80004FF4400101EA50004FEA48
:100670009059B9F1010F00DDB9460A9850EA4A00D5
:100680000ED044F61050A5F2FF3545432F14B8F1B3
:10069000000F1ED07542291E1EDDC9F100021CE0AC
:1006A000B8F1010F4FF0000001D0302103E0F24318
:1006B00005E02154401CB042FBDB30460022002103
:1006C00021540B99C1F80880C1E900200FB0BDE8A2
:1006D000F08FBD1B6D1CDEE74A4600DA694206A8B2
:1006E00000F060FA06AB93E8070003AB83E807006D
:1006F00050460A9900F041FB8DE80700A0F5005034
:100700001F3800900398002D0ADD42F21F014A466F
:100710000844002303A90390684600F0AAFD09E0FD
:10072000A0F500504A461F38002303A903906846ED
:1007300000F0B4FD8DE807000004000C03D04FF07A
:10074000FF30410800E01046B8F1000F03D000224E
:10075000009215461EE0751E05D400F09DF930325A
:1007600062556D1EF9D5B3460122084302D000221E
:100770007F1C04E02078302801D100227F1E002A4F
:10078000099784D01DE0112D07DA00F085F9303289
:1007900062556D1C50EA0102F5D1084302D0009861
:1007A000C8B10EE00021681E05E0235C625C635462
:1007B0002254401E491C8142F7DBAB46A81B401E59
:1007C0000990002004F80B000B98099AC0F80880E3
:1007D000C0E9002B7AE711264FF0000857E72DE912
:1007E000F04F88460446D21D22F0070191B0D1E9AE
:1007F0000001CDE90A0104F0F1FF02460B98C00F99
:1008000001D02D2007E02068810701D52B2002E0D0
:10081000202101EAC000032A099001D0072A05DB44
:1008200003464146204600F07DF90BE12078800622
:1008300001D5E06900E00620B8F1650F814606D0D9
:10084000B8F1660F18D0B8F1670F70D131E0002011
:10085000B9F1110F009001DB112301E009F101034F
:100860000AAA01A90CA8FFF7E2FEDDE90C70002638
:1008700009F10105834647E001204B4600904FF007
:1008800000470AAA01A90CA8FFF7D1FEDDE90DB0C7
:100890000C995D46002610B909F101000D18B9EB5D
:1008A000050003D4C0F1FF3609F10105A5EB0900ED
:1008B0002BE0B9F1010F01DA4FF001090020B9F185
:1008C000110F0090484601DD112300E003460AAAFB
:1008D00001A90CA8FFF7ABFEDDE90C704D46002620
:1008E0008346207800070AD4AB4500DA5D4601A8AC
:1008F000012D04DD411911F8011C302907D04F45A5
:1009000002DA17F1040F04DA012082460FE06D1EAF
:10091000EEE7002F02DCED1B3E4403E0781CA8420A
:1009200000DD7D1CB81B00F1010A4FF00047207864
:10093000000703D4AA4501DB4FF0FF3A0021B7F1CD
:10094000004F0DF143088DF8431024D002202B23D3
:10095000002F01DA7F422D230A21021EA0F101009F
:1009600000DC5FB197FBF1FC97FBF1F201FB1C7C13
:1009700017460CF1300C08F801CDEEE7A8F10100A4
:1009800003702188090501D5452100E06521A0F10A
:10099000010800F8011C09980FA9A1EB0807FF1D29
:1009A00000B10120411901EBEA70A1693844081A2D
:1009B000401EA0612078C00602D42046AFF300801C
:1009C000099828B1D4E901219047206A401C20628F
:1009D0002078C00622D52046AFF300801EE0002E0E
:1009E00004DBB34502DD01A8805D00E03020D4E9DE
:1009F00001219047206A401C2062761CAAF1010068
:100A00005FEA000A0AD100F03FF8C0680168405C64
:100A1000D4E901219047206A401C2062281EA5F1DC
:100A20000105DCDC07E0D4E9012118F8010B90474F
:100A3000206A401C2062381EA7F10107F3DC204623
:100A4000AFF30080032011B041E6000001694A1CA9
:100A500002610878704700B58FB0CDE901310021FF
:100A6000059105497944CDE9031011466846FFF721
:100A7000ADFC0FB000BD0000E5FFFFFF0A6802F803
:100A8000010B0A60704700000048704774030020A3
:100A9000004870475403002030B5B0F10A024FEA15
:100AA000900E71F100034EEA817EB0EB0E0061EB17
:100AB00091014FEA101E4EEA017E10EB0E0041EB51
:100AC00011114FEA102E4EEA016E10EB0E0041EBB1
:100AD00011214FEA104E4EEA014E10EB0E0041EB91
:100AE0001141401841F100014FEAD00040EA417045
:100AF0004FEAD10110EB80054FEA810444EA90747B
:100B000044EB01046D1944EB0404521BA3414FF064
:100B1000000348BF0A3200D530BD401C41F100013E
:100B200030BD00002DE9F0411F4604460326016850
:100B3000072A01F4006004DB08B116A505E016A53C
:100B400003E008B115A500E015A521F01000206014
:100B5000A069C01EA0610FB1401EA0612046AFF386
:100B600000804FB1D4E9012138469047206A401CEB
:100B70002062C01C206206E0206AFAE7D4E9012165
:100B800015F8010B9047761EF8D22046AFF300808F
:100B9000BDE8F0814E414E006E616E00494E460048
:100BA000696E66002DE9F047814616468AB03548E1
:100BB00078440DC88DE80D0032487844801C03ACA1
:100BC0000DC884E80D0041F69B300844372190FBA6
:100BD000F1F290FBF1F5A5F1800501FB12041B3C3D
:100BE00002D56442012000E00020DFF898A0804692
:100BF0000027FA44AAF1BE0A0EE0E0070AD0324606
:100C0000684607EB470101230AEB810100F046FB30
:100C10008DE8070064107F1C002CEED1194F7F4433
:100C2000AE3F19E0E80715D007EB04100DF1180AE4
:100C300090E80E008AE80E00C068F04201D19819D1
:100C400008903246012306A903A800F027FB03AB56
:100C500083E807006D10641C002DE3D14FF0010301
:100C600032466946B8F1000F03A802D000F001FB3C
:100C700001E000F013FBC9E90001C9F808200AB03F
:100C8000BDE8F087D8680000004870475403002092
:100C90007546FFF7F9FFAE4605006946534620F05A
:100CA0000700854618B020B5FFF7DEFABDE8204002
:100CB0004FF000064FF000074FF000084FF0000B18
:100CC00021F00701AC46ACE8C009ACE8C009ACE8CB
:100CD000C009ACE8C0098D46704710B50446AFF3B3
:100CE00000802046BDE81040FFF7AABA4FF0013C53
:100CF00050F8042B51F8043B9A4221D1A2EB0C038B
:100D0000934313EACC1317D150F8042B51F8043B4A
:100D10009A4215D1A2EB0C03934313EACC130BD1E7
:100D200050F8042B51F8043B9A4209D1A2EB0C0372
:100D3000934313EACC13DBD04FF00000704700BFA1
:100D4000D01A01BAB1FA81F101F0180122FA01F0CA
:100D5000CB40C1F12001DBB2C0B2C01A2CFA01F3C2
:100D6000D11A914311EAC311E6D170470149182005
:100D7000ABBEFEE72600020070475FEA400C08BFEA
:100D800091F0000F4FEA8C234FEAC12243EA515100
:100D90004FEA1C5018BF00F5F0404FEA300018BF72
:100DA00041F000415FEA6C5C00F02980BCF1FF3F3C
:100DB00008BF40F080407047130C06BF12044FF08C
:100DC000100C4FF0000C130E04BF12020CF1080CB3
:100DD000130F04BF12010CF1040C930F04BF920017
:100DE0000CF1020CD30F04BF52000CF1010C1146A0
:100DF0004FF00002A0F11F00A0EB0C00704711F0B3
:100E0000004F08BF704731F000413FF4D5AF0B0CE5
:100E100006BF09044FF0100C4FF0000C0B0E04BF7E
:100E200009020CF1080C0B0F04BF09010CF1040CB2
:100E30008B0F04BF89000CF1020CCB0F04BF4900DB
:100E40000CF1010CCCF12003A0EB0C0022FA03F30F
:100E500002FA0CF241EA030100F10100704720F0B0
:100E60007F4C80EA030023F07F47ACEB070303F5D8
:100E70007C5300F0004003F1FF032DE980494FEA65
:100E8000154B09B44FEA144325EA0B4E24EA0348F4
:100E90000FF2042606EB132749083E785FEA320278
:100EA00003FB0667C7F5000707FB06F64FEA543752
:100EB0004FEAD64606F1020607FB066CCCF1005C51
:100EC0004FEA1C472CEA074C07FB06F40CFB06F51F
:100ED00004EB15464FEA961634BF00204FF0004051
:100EE0004FEAD13706FB07FC4FEA1C4C0CFB0BF713
:100EF000D21B03FB0CF761EB07010CFB0EF7B0EB09
:100F0000074072EB17420CFB08F734BFA2EB074215
:100F1000B2EB074261EB17414FEA0C444FEA9107ED
:100F200006FB07FC4FEA1C4C0CFB0BF7B0EBC74071
:100F300072EB573203FB0CF734BFA2EBC742B2EBA4
:100F4000C74261EB57310CFB0EF7B0EBC70072EBF9
:100F500057720CFB08F734BFA2EBC702B2EBC70213
:100F600061EB5771039F4FEA816141EA921104EBF3
:100F7000CC044FEAD1374FEA826206FB07FC42EA13
:100F800090124FEA80604FEA1C4C0CFB0BF7D21B0F
:100F900003FB0CF761EB07010CFB0EF7B0EB07400E
:100FA00072EB17420CFB08F734BFA2EB0742B2EB1F
:100FB000074261EB17414FEA8C554FEA910704EB6A
:100FC0009C2406FB07FC4FEA1C4C0CFB0BF7B0EB18
:100FD000C74072EB573203FB0CF734BFA2EBC7429A
:100FE000B2EBC74261EB57310CFB0EF7B0EBC70019
:100FF00072EB57720CFB08F734BFA2EBC702B2EBDF
:10100000C70261EB577115EB4C254FEA816141EA4C
:1010100092114FEA82624FEAD13742EA901206FB00
:1010200007FC44F100044FEA80604FEA1C4C0CFBC3
:101030000BF7D21B03FB0CF761EB07010CFB0EF760
:10104000B0EB074072EB17420CFB08F734BFA2EB82
:101050000742B2EB074261EB174115EB1C154FEA53
:10106000813141EA92414FEA823242EA90424FEAAC
:1010700080304FEA0C7644F1000448EA03434EEA1C
:101080000B484FF0000EB2EB080C71EB030724BFC6
:10109000624639464EEB0E0E4FF0000B00185241DF
:1010A00049414BEB0B0BB2EB080C71EB03077BF1E7
:1010B000000B24BF624639464EEB0E0E4FF0000B7C
:1010C0000018524149414BEB0B0BB2EB080C71EB92
:1010D00003077BF1000B24BF624639464EEB0E0E30
:1010E00051EA020718BF46F0010616EB0E7655F1DD
:1010F000000254F1000103D5BDE88901BDE8008874
:10110000BDE88901BDE80048B619524141EB010133
:10111000A3F10103704780807F7E7D7C7B7A7978A4
:10112000777676757473727171706F6E6E6D6C6CAC
:101130006B6A6A696868676666656464636362614E
:101140006160605F5F5E5E5D5D5C5C5B5B5A5A59CF
:10115000595858575756565555555454535352523B
:101160005251515050504F4F4F4E4E4D4D4D4C4C93
:101170004C4B4B4B4A4A4A494949484848474747DC
:101180004746464645454544444444434343434219
:10119000424242414141002B9C4630D477002BD043
:1011A0001CB54FEA370703B44FF010004FF01001A1
:1011B000BAF1000F06D0BCF1000FDCBF40F0080010
:1011C00040F008014FF000000FBCBDE810400BF1EB
:1011D000010BBBF1010F08BF5FEA170722BF12F135
:1011E000010211F101014FF0004143F1000300F051
:1011F000004043EA00007047F9D35708D0E746EAB9
:10120000064613F1400F4FEA16461FDD13F1200F7B
:10121000DFBF16430A46002120335B42BED0C3F134
:10122000200746EA064602FA07F74FEA164646EA5C
:101230000706C3F1200722FA03F201FA07F721FAA1
:1012400003F14FF0000342EA0702A7E746EA02066D
:1012500046EA06464FEA164646EA0106BCBF46EA9B
:101260000646360C4FF000034FF000024FF000012D
:1012700094E72DE9804C9A46934670B491E8380083
:1012800007C831EA400C48BF34EA430C03D5FFF7E6
:10129000E6FDFFF780FFF0BCBDE8008C2DE9804C37
:1012A0009A46934670B491E8380007C810F0804F12
:1012B00008BF13F0804F03D100F005F8FFF76BFF74
:1012C000F0BCBDE8008C20F07F4780EA030023F0EB
:1012D0007F4C07EB0C03A3F57C5300F00040A3F117
:1012E000FE0392F0000F00F0B38095F0000F00F0C5
:1012F00077802DE901494FEA11404FEA144621EA6F
:10130000004800FB06FC24EA064708FB06F607FB3C
:1013100008F800FB07F718EB06484CEB164C4FEAB1
:10132000124B18EB07484FEA15464CEB174022EAE0
:101330000B4E0BFB06FC25EA06470EFB06F607FBE9
:101340000EFE0BFB07F71EEB064E4CEB164C4FF058
:1013500000061EEB074E4CEB174B18EB0B0840F149
:10136000000018EB0E0B58EB000840F100008F1A3C
:101370004FF000013CBFC943661B14BFB5EB040C22
:1013800000213CBFC943F61B4FEA17444EEA8E0EBC
:1013900027EA04454FEA1C4704FB07622CEA074C86
:1013A00005FB07F70CFB05F604FB0CFC16EB0746E8
:1013B00042EB174216EB0C4642EB1C421BEB0606B7
:1013C00058EB0202414146EA9E0601D5BDE801897B
:1013D000B619524141EB0101A3F10103BDE80189B6
:1013E0004FEA14454FEA114724EA054621EA074C23
:1013F00005FB07F406FB07F70CFB06F105FB0CFCED
:1014000011EB074144EB17444FEA124711EB0C4133
:1014100044EB1C4422EA074C05FB07F206FB07F7E6
:101420000CFB06F605FB0CFC16EB074642EB1742DD
:1014300016EB0C4642EB1C456A1854F1000148BFFC
:101440007047B619524141EB0101A3F10103704706
:1014500095F0000F37D04FEA11424FEA144721EAC6
:10146000024624EA074C02FB07F106FB07F70CFBD8
:1014700006F402FB0CFC14EB074441EB17414FEA66
:10148000154714EB0C4441EB1C4125EA074C02FBC9
:1014900007F506FB07F70CFB06F602FB0CFC16EB48
:1014A000074645EB174516EB0C4645EB1C42121957
:1014B00051F1000148BF7047B619524141EB01019B
:1014C000A3F1010370474FEA14454FEA114724EA9C
:1014D000054621EA074C05FB07F106FB07F70CFB65
:1014E00006F24FF0000605FB0CFC12EB074241EB45
:1014F000174112EB0C4251EB1C4148BF7047921848
:1015000041EB0101A3F1010370470000014800F025
:10151000D7BB00007800002070B5044600680022A8
:10152000836813F00C0F50D0C3689B0105D5E369A5
:10153000012B02D1A369012B22D060290CD0206895
:101540008268520706D58268920703D4826842F007
:10155000100282600C290ED020688268120706D51E
:101560008268920703D4826842F020028260602978
:1015700015D06C2911D0042500F08AFF064620E022
:101580000C21134B02E09A4211D2521C0568ED4324
:101590006D06F8D440220260D1E70C25ECE708255F
:1015A000EAE700BF00F074FF801B0B2809D9606CCC
:1015B00040F010006064A06C40F00100A0640120C5
:1015C00070BD206880682842ECD1002070BD00000A
:1015D0000094090070B504460068816801F00301B9
:1015E000012926D10168C90723D0816801F00D01C6
:1015F000012910D1816841F0020181602168032036
:10160000086000F045FF05460FE000BF00F040FF16
:10161000401B022809D9606C40F010006064A06C87
:1016200040F00100A064012070BD20688068C00700
:10163000ECD1002070BD000070B5044600688168E0
:1016400001F00301012902D10168C90720D1816895
:10165000104A11420DD1816841F00101816000F012
:1016600017FF05460FE000BF00F012FF401B0228E5
:1016700009D9606C40F010006064A06C40F001007B
:10168000A064012070BD20680068C043C007EBD192
:10169000002070BD3F0000802DE9F04F7248022706
:1016A0000326B0F9001071480425052406230722FB
:1016B0000029B0F976006D494FF0010C4FF0080990
:1016C0004FF0090A4FF00A0B4FF00B0E77DBA0F535
:1016D0001C58A8F11108B8F5FA6F03D2A1F872C02E
:1016E000BDE8F08FA0F5F05CACF1790C40F69708FE
:1016F000C44502D8A1F87270F2E76FF4C8570744E6
:10170000B7F5AF6F03D200BFA1F87260E8E7A0F5AC
:10171000A856193EB6F57A7F03D200BFA1F87250E1
:10172000DEE7A0F590552B3D40F2ED26B54202D8FC
:10173000A1F87240D4E7A0F58054053C40F225257D
:10174000AC4202D8A1F87230CAE7A0F64363B3F501
:10175000E17F02D2A1F87220C2E7A0F6E542B2F51D
:10176000AF7F02D2A1F87290BAE7A0F62922B2F5B3
:101770002F7F02D2A1F872A0B2E7A0F20972B2F5EF
:10178000487F02D2A1F872B0AAE7A0F2DD524FF46E
:1017900096739A4203D200BFA1F872E0A0E7A0F2CC
:1017A0001552C72A51D9A0F2E9329A4253D3A0F276
:1017B000F51054E003E000BFA1F8720090E742F694
:1017C000E0688044B8F5FA6F88D342F2107C844414
:1017D00040F69808C4458DD341F678670744B7F5BD
:1017E000AF6F91D300F5C856B6F57A7F96D341F224
:1017F0001855054440F2EE26B54299D341F22A2409
:10180000044440F22625AC429CD341F20403034435
:10181000B3F5E17F9ED300F64262B2F5AF7FA1D36C
:1018200000F6E44240F28A239A42A3D300F628222B
:10183000B2F5487FA6D300F5E1624FF496739A4261
:10184000AAD300F2DC52C82A01D20C20B4E700F27D
:1018500014529A4201D20D20AEE700F57A70B0F52D
:10186000FA7F89D20E20A7E73403002070020020FF
:1018700070B52E4C012818D002281ED0032824D081
:1018800004282AD0052830D0062836D007283CD096
:10189000082842D0002807D15FF0530503F07EF9F5
:1018A00060556D1C572DF9DD70BD082503F076F9E4
:1018B00060556D1C0C2DF9DD70BD0D2503F06EF922
:1018C00060556D1C112DF9DD70BD122503F066F910
:1018D00060556D1C162DF9DD70BD172503F05EF9FE
:1018E00060556D1C1B2DF9DD70BD1C2503F056F9EC
:1018F00060556D1C2B2DF9DD70BD2E2503F04EF9C2
:1019000060556D1C322DF9DD70BD332503F046F9AD
:1019100060556D1C442DF9DD70BD492503F03EF97D
:1019200060556D1C522DF9DD70BD00000C020020C9
:1019300010B503F0DDF9CC2003F0D4FE662003F0EF
:10194000D1FE012003F0CEFE7A2003F0CBFE03F09F
:1019500025F9074C04F8550F03F020F96070AA2010
:1019600003F0C0FEBDE810404FF47A7004F0AABF47
:101970000C020020022000F0B1BC042000F0AEBC3C
:101980007047704770477047F0B595B000250095D7
:1019900090F840202E46012A19D0012780F8407087
:1019A00003689A6852077DD44A681F24052A11D219
:1019B000D3F830C002EB4202520094402CEA040CEF
:1019C0000C6894404CEA040CC3F830C035E00220A7
:1019D00015B0F0BD0A2A0FD2D3F834C0521F02EB63
:1019E0004202520094402CEA040C0C6894404CEAE9
:1019F000040CC3F834C020E00F2A0FD2D3F838C04B
:101A00000A3A02EB4202520094402CEA040C0C68A1
:101A100094404CEA040CC3F838C00EE0D3F83CC044
:101A20000F3A02EB4202520094402CEA040C0C687C
:101A300094404CEA040CC3F83CC00268936813F06D
:101A40000C0F4FF0070373D10C680A2C11D3D2F896
:101A500018C00A3C04EB440403FA04FE2CEA0E0C02
:101A6000D1F808E00EFA04FE4CEA0E0CC2F818C0D9
:101A70000FE0D2F814C004EB440403FA04FE2CEA8D
:101A80000E0CD1F808E00EFA04FE4CEA0E0CC2F877
:101A900014C002684C69D2F80CC0CCF3C10C4FEAF8
:101AA0004C0C00E0CDE004FA0CF4D1F810E0DFF8C3
:101AB000F4C1BEF1010F42D0BEF1020F4DD0BEF114
:101AC000030F58D0BEF1040F63D0146E91F800C01C
:101AD00004F0F844B4EB8C6F03D1146E24F000448E
:101AE00014660268546E91F800C004F0F844B4EB38
:101AF0008C6F03D1546E24F0004454660268946ED7
:101B000091F800C004F0F844B4EB8C6F03D1946EEC
:101B100024F0004494660268D46E91F800C004F08A
:101B2000F844B4EB8C6F03D1D46E24F00044D46637
:101B30000268946804F00304012C3AD136E0D2F82C
:101B400060E00EEA0C0E91F800C044EA8C644EEAA4
:101B5000040E4EF000441466EAE7D2F864E00EEAA0
:101B60000C0E91F800C044EA8C644EEA040E4EF06C
:101B700000445466DCE7D2F868E00EEA0C0E91F8F7
:101B800000C044EA8C644EEA040E4EF000449466B1
:101B9000CEE7D2F86CE00EEA0C0E91F800C044EAF1
:101BA0008C644EEA040E4EF00044C0E71468E4076B
:101BB0004CD1CC68012C06D052F8B03F0C78A7402D
:101BC000BB43136020E052F8B04F91F800C007FA11
:101BD0000CF73C4314600A6804680A2A0AD3A76910
:101BE000093A02EB420293409F438B6893401F43A4
:101BF000A76109E06769521C02EB420293409F43D0
:101C00008B6893401F4367610968274A102904D0F5
:101C1000112905D0122906D018E093681B0204E0B0
:101C20009368DB0101E093685B02002B0EDB0096FA
:101C300003689C6804F00304012C0BD11C68E407C2
:101C400008D0416C41F020014164012580F84060DA
:101C50002846BDE64FF0A044102908D011291AD01B
:101C60001229F3D1916841F480019160EEE7A3421B
:101C7000ECD1916841F4000191600C490C4A09686B
:101C8000B1FBF2F101EB8101490000E0491E009136
:101C90000029FBD1DAE7A342D8D1916841F08071E5
:101CA000E3E7000000F0FF83000300507000002015
:101CB00040420F0001F09CBF70470068006C704705
:101CC00010B5044600680168490702D54168490714
:101CD00005D40168090734D54168090731D5616C1D
:101CE000C90603D4616C41F400716164C168C268C3
:101CF00012F4406F1FD189041DD4016809071AD559
:101D0000816849070FD4416821F00C014160606C83
:101D100020F480706064606CC0040CD4606C40F08F
:101D20000100606407E0606C40F010006064A06C2B
:101D300040F00100A0642046FFF7BCFF21680C20A2
:101D4000086020680168890602D54168890605D4C3
:101D5000016849063AD54168490637D5616C41F4B6
:101D600000516164C168C26C12F0C00F07D08A01D3
:101D700026D4C26812F4406F22D1890420D40168AD
:101D800049061DD5C16889021AD4816809070FD494
:101D9000416821F060014160606C20F48050606413
:101DA000606CC0050CD4606C40F00100606407E01A
:101DB000606C40F010006064A06C40F00100A06412
:101DC0002046FFF7DDFD216860200860206801687B
:101DD00009060CD54068000609D5606C40F48030D7
:101DE0006064204600F040F9216880200860206887
:101DF0000168C9050DD54068C0050AD5606C40F47E
:101E0000003060642046FFF7BDFD21684FF480700C
:101E100008602068016889050DD5406880050AD5ED
:101E2000606C40F4802060642046FFF7ACFD2168C0
:101E30004FF40070086021680868C0061BD5486828
:101E4000C00618D5A06B012807D017488268D206B3
:101E500027D0806800F4404050B1606C40F480604E
:101E60006064A06C40F00200A0642046FFF724FFED
:101E700021681020086020680168490510D5416874
:101E800049050DD5616C41F480416164A16C41F05C
:101E90000801A1644FF4806101602046FFF771FDE5
:101EA00010BDC868C007D7E700030050F0B54FF079
:101EB000000695B0040037463546009605D0606CA4
:101EC000C00648D4606C18B133E0012015B0F0BDF5
:101ED000A5642565E56484F84050204600F0C6F806
:101EE00020688068C00024D42046FFF773FB0646B4
:101EF000606CC0061DD4E6B9606C20F4885040F0D8
:101F0000020060642068816821F04051816020688F
:101F1000816841F0805181604E484F490068B0FBB4
:101F2000F1F000EB8000400000E0401E009000282F
:101F3000FBD120688168C90002D5806880000AD57D
:101F4000606C20F0020040F010006064A06C40F073
:101F50000100A0640126606CC00671D4002E6FD110
:101F60002168886840076BD4606C20F4807040F072
:101F700002006064009539488A6802F00302012A71
:101F800002D10968C90705D18168626821F440312E
:101F900011438160D4E902100843A16B012902D0EA
:101FA0004FF4805200E00022E16942EA41321043DE
:101FB000626A3843012A0AD1A9B1616C21F0020199
:101FC00041F020016164A16C41F00101A164E16A6A
:101FD000012902D0226B1143084321688A6812F05C
:101FE0000C0F08D012E0218D1D4A02EB4141014344
:101FF00041F48030EBE7CA6844F202039A43CA60B6
:10200000A169626B890341EA420108432168CA68F9
:10201000144B1A400243CA60206901282068016BF2
:1020200021F00F0102D1226A521E11430163A564FF
:10203000606C20F0020040F00100606407E0FFE700
:10204000606C20F0020040F0100060640126304611
:102050003CE700007000002040420F0000030050E9
:102060000000FEFF07C0F0FF7047000030B50068B9
:1020700087B0B0F1A04F28D11548416941F0805197
:1020800041614069032400F0805005900A2000253A
:102090008DE8310069460F4800F02CF982208DE868
:1020A000310069464FF0904000F024F901208DE89E
:1020B00031006946084800F01DF90022114612203F
:1020C00000F066FA122000F057FA07B030BD0000A9
:1020D00000100240000800480004004810B5044603
:1020E0000068806840074ED494F8400001284AD028
:1020F000012084F840002046FFF79EFA002110B12D
:1021000084F8401010BD626C40F601639A4342F4BB
:1021100080726264626C22F4801262642268D36806
:102120009B0105D5636C23F4005343F4805363642F
:10213000636CDB0404D5A36C23F00603A36400E006
:10214000A16484F840101C2111606169082921688C
:102150004A6802D042F00C0206E022F004024A6013
:1021600021684A6842F008024A60A16B012904D143
:1021700021684A6822F010024A6021688A6842F0A9
:1021800004028A6010BD022010BD10B5044690F80C
:102190004000012808D0012084F840006C2120462E
:1021A000FFF7BAF910B110E0022010BD20684168B5
:1021B00021F01C0141602046FFF70CFA28B9616C40
:1021C00021F4885141F001016164002184F840103C
:1021D00010BD10B590F821100024022903D004216D
:1021E0008163012418E001680A6822F00E020A6087
:1021F00001680A6822F001020A6090F84020C36B6F
:10220000012101FA02F25A6080F82110002180F8C1
:102210002010416B01B18847204610BD31B500F058
:1022200037F9044600F034F90099001B8842F9D3CD
:1022300038BD00002DE9F04100251B4CDFF86C8013
:102240004FF4FA764FF4807702281ED0042829D163
:1022500017A11C48FEF7A4F81A4982B2C823A1F1BD
:10226000700001F030FC02202070A57002F05EFAD0
:10227000E5703046FFF7D2FF00223946404600F0B5
:1022800002F9BDE8F04104F017B90FA10D48FEF7BF
:1022900087F80C4982B2C823A1F1700001F013FC49
:1022A0000120E1E7BDE8F0810000002000080048BF
:1022B00053746F70204D6F746F7220706F73203283
:1022C0000A000000BC01002053746F70204D6F7431
:1022D0006F7220706F7320310A000000044910B53E
:1022E0000A68024202D00860FFF7A4FF10BD000098
:1022F000140401402DE9F84FDFF860B100234FF0DE
:10230000010C4FF0030A4FF00F090BF1040E9DE092
:102310000CFA03F6344022007ED04C68022C01D027
:10232000122C0ED1DC0800EB8408D8F820405D07A1
:10233000EF0E09FA07F5AC430D69BD402543C8F817
:10234000205007685D0091F804800AFA05F408F04F
:102350000308A74308FA05F848EA0708C0F8008010
:102360004F68012F05D0022F03D0112F01D0122F5B
:1023700011D18768D1F80C80A74308FA05F848EA1C
:102380000708C0F808804768B7430E79C6F30016FF
:102390009E403E434660C668A6438C68AC403443CA
:1023A000C4604C68E40050D52D4CA56945F001058A
:1023B000A561A46923F0030504F001040094294CED
:1023C0002E19B4689D072F0F09FA07F5AC43B0F139
:1023D000904F04D0244DA84203D101250CE00025E4
:1023E0000AE0224DA84201D1022505E0204DA84275
:1023F00001D1032500E00525BD402543B560DBF88C
:1024000000405D464E689443F60300D514432C60AB
:102410007546DEF8004000E017E04E689443B603CE
:1024200000D514432C600D4D08352C684E6894433C
:10243000F60200D514432C60084D0C352C684E680C
:102440009443B60200D514432C605B1C0A68144602
:10245000DA407FF45DAFBDE8F88F00000004014072
:10246000001002400000014000040048000800483D
:10247000000C00480069084000D001207047426904
:102480004A40426170470AB181617047816270477A
:10249000014800687047000074000020024801688D
:1024A000491C01607047000074000020074810B507
:1024B000016841F010010160032000F089F802205A
:1024C00000F006F800F018F8002010BD00200240CF
:1024D00010B5044607484FF47A710068B0FBF1F07C
:1024E00000F092FD00222146501E00F051F800201D
:1024F00010BD0000700000201E4808B5816941F041
:1025000001018161816901F001010091C16941F01E
:102510008051C161C06900F080500090032000F03C
:1025200057F8002211466FF00B0000F031F800223E
:1025300011466FF00A0000F02BF8002211466FF0F0
:10254000090000F025F800221146501F00F020F885
:1025500000221146101F00F01BF800221146901EA9
:1025600000F016F800220221BDE80840C81E00F065
:102570000FB800000010024000F01F02012191403E
:102580004009800000F1E020C0F800117047000011
:10259000F0B40E4B1B680C46C3F30223C3F10705CE
:1025A000042D00D90425191D072901D2002300E0BC
:1025B000DB1E012606FA05F1491E214099409E4086
:1025C000761E16403143F0BC02F0D8BA0CED00E0A4
:1025D000064900F0070208684FF6FF03184040EA7A
:1025E0000220034A10430860704700000CED00E031
:1025F0000000FA052DE9F84F05460068774CC00346
:102600006FD5E0690026C00008D4E06940F0805032
:10261000E061E069012600F0805000907048016898
:10262000C90512D40168804641F480710160FFF74A
:102630002FFF074605E000BFFFF72AFFC01B6428F5
:1026400035D8D8F80000C005F6D5206A10F44070DF
:1026500053D0A98801F4407181424ED0206A4FF4D2
:10266000803191FAA1F2B2FA82F297005D4A4FF0FE
:102670000108174420F44070C7F8008491FAA1F1D2
:10268000B1FA81F102EB81010023C1F8003420622C
:10269000C00732D0FFF7FCFE074641F2883A4FF000
:1026A000020907E0FFF7F4FEC11B514502D90320E0
:1026B000BDE8F88F99FAA9F1B1FA81F141F0400132
:1026C0004846B8EB511F01D121680CE090FAA0F107
:1026D000B1FA81F141F04001B0EB511F02D1216A02
:1026E00001E015E0616A99FAA9F0B0FA80F000F013
:1026F0001F0008FA00F21142D4D0206A696820F461
:102700004070084320621EB1E06920F08050E06113
:102710002878C00705D0206BA96820F00300084383
:1027200020632878800605D5206BE96820F010002A
:10273000084320632868800305D56068296B20F46E
:102740008000084360602878400605D5206B296921
:1027500020F02000084320632888000405D5206B62
:10276000696920F04000084320632888800505D56A
:102770006068E96920F4000008436060287800067A
:1027800005D5E06AA96920F4F8700843E06228885A
:10279000C00405D5206B296A20F4807008432063AB
:1027A0002868400305D5206B696A20F480600843DF
:1027B00020632868000305D5206BA96A20F4006017
:1027C000084320632868C00205D5206BE96A20F41D
:1027D00000500843206300206AE700000010024018
:1027E00000700040000042422DE9F047DFF87081A0
:1027F00005460E46D8F8000000F00700B0420CD2A3
:10280000D8F8001021F007013143C8F80010D8F8BB
:10281000000000F00700B04277D12878514C8007C3
:1028200005D56068A96820F0F0000843606028784A
:10283000C00759D06968012001290DD0022929D08B
:102840005FF0020393FAA3F2B2FA82F242F020029E
:10285000520904D0226803E04FF40033F2E7626AC1
:1028600093FAA3F3B3FA83F303F01F0398400242F1
:102870004BD0606820F0030008436060FFF708FE5B
:102880006968074641F2883001290DD00229814646
:1028900017D025E04FF00073D4E700BFFFF7F8FD35
:1028A000C11B494501D918E081466068C0F3810029
:1028B0000128F3D118E000BFFFF7EAFDC11B49452D
:1028C0000BD86068C0F381000228F5D10CE000BF8E
:1028D000FFF7DEFDC11B494502D90320BDE8F087A3
:1028E000606810F00C0FF3D1D8F80010404601F0EA
:1028F0000701B1420BD9016821F0070131430160A2
:10290000006800F00700B04201D00120E6E7287817
:10291000400705D56068E96820F4E060084360601E
:102920002878000706D56068296920F4605040EADD
:10293000C100606000F052F86168F02292FAA2F2E1
:1029400001F0F001B2FA82F2D140074A515CC8406E
:10295000064908600220FFF7BBFD0020BEE700002B
:102960000020024000100240767200087000002033
:1029700001480068704700007000002008480949BD
:10298000006849684FF4E06292FAA2F201F4E06153
:10299000B2FA82F2D140044A515CC840704700004C
:1029A00070000020001002408672000808480949A3
:1029B000006849684FF4605292FAA2F201F4605143
:1029C000B2FA82F2D140044A515CC840704700001C
:1029D000700000200010024086720008144B10B5F1
:1029E0005A68144802F00C0104291DD008291BD193
:1029F0004FF4701494FAA4F402F47011B4FA84F44D
:102A0000E1400D4CDB6A615C0F2494FAA4F403F0FE
:102A10000F03B4FA84F4E340074C1034D203E35CB0
:102A200003D5B0FBF3F0484310BD0448484310BD44
:102A30000010024000127A008E72000800093D006A
:102A40002DE9F84F05460078F74EC0074FF0010416
:102A500025D070686704C0F38100012807D0706832
:102A6000C0F3810002281BD17068C00318D597FA03
:102A7000A7F0B0FA80F040F02000400901D03068A3
:102A800000E0706A97FAA7F1B1FA81F101F01F0135
:102A900004FA01F1084264D0686800287DD060E043
:102AA0006868B0F5803F0BD010B1B0F5A02F17D0FB
:102AB000306820F480303060306820F4802002E0FC
:102AC000306840F480303060F06AA96820F00F0070
:102AD0000843F062686828B3FFF7DAFC80460BE031
:102AE000306840F480203060EAE700BFFFF7D0FC98
:102AF000A0EB0800642871D897FAA7F0B0FA80F02C
:102B000040F02000400901D0306800E0706A97FA78
:102B1000A7F1B1FA81F101F01F0104FA01F10842B5
:102B2000E4D01EE0FFF7B4FC804605E0FFF7B0FC00
:102B3000A0EB08006428DED897FAA7F0B0FA80F07E
:102B400040F02000400901D0306800E0706A97FA38
:102B5000A7F1B1FA81F101F01F0104FA01F1084275
:102B6000E4D12878DFF8C48280074FF0000A4FF0E4
:102B7000020732D570684FF0F80B10F00C0F07D039
:102B80007068C0F38100022829D17068C00326D480
:102B900097FAA7F0B0FA80F000E08BE040F0200058
:102BA000400901D0306800E0706A97FAA7F1B1FAE5
:102BB00081F101F01F0104FA01F1084202D02869F5
:102BC000012877D130689BFAABF26969B2FA82F2D8
:102BD00020F0F8009140084330605AE064E1286931
:102BE00088B394FAA4F0B0FA80F048F82040FFF7D8
:102BF0004FFC814606E000BFFFF74AFCA0EB09004E
:102C0000022898D897FAA7F0B0FA80F040F0200098
:102C1000400901D0306800E0706A97FAA7F1B1FA74
:102C200081F101F01F0104FA01F10842E4D030689B
:102C30009BFAABF220F0F8016869B2FA82F2904098
:102C40000143316025E0FFE794FAA4F1B1FA81F184
:102C500048F821A0FFF71CFC814605E0FFF718FCAF
:102C6000A0EB09000228CCD897FAA7F0B0FA80F0C0
:102C700040F02000400901D0306800E0706A97FA07
:102C8000A7F1B1FA81F101F01F0104FA01F1084244
:102C9000E4D1287800076CD5A869A8B394FAA4F009
:102CA000B0FA80F008EB8000C0F88044FFF7F0FB3A
:102CB000814607E08AE100BFFFF7EAFBA0EB0900CD
:102CC00002289ED897FAA7F0B0FA80F040F0600092
:102CD000B4EB501F01D130680BE097FAA7F0B0FABF
:102CE00080F040F06000B7EB501F01D1306A00E087
:102CF000706A97FAA7F1B1FA81F101F01F0104FAA5
:102D000001F21042D8D034E0FFE794FAA4F1B1FA0E
:102D100081F108EB8101C1F880A4FFF7B9FB81467E
:102D200006E000BFFFF7B4FBA0EB090002289AD829
:102D300097FAA7F0B0FA80F040F06000B4EB501FB3
:102D400001D130680BE097FAA7F0B0FA80F040F0BC
:102D50006000B7EB501F01D1306A00E0706A97FA4B
:102D6000A7F1B1FA81F101F01F0104FA01F210425A
:102D7000D8D12878400774D5F0694FF00009C00019
:102D800009D4F06940F08050F061F0694FF001091A
:102D900000F08050009026480168C90512D40168EF
:102DA00041F480710160FFF773FB834606E000BFCA
:102DB000FFF76EFBA0EB0B00642875D81C48006879
:102DC000C005F5D5E86801280AD008B1052811D05A
:102DD000306A20F001003062306A20F0040002E026
:102DE000306A40F001003062E868E0B1FFF750FB64
:102DF00083460DE0306A40F004003062F0E700BF27
:102E0000FFF746FBA0EB0B0141F2883081424BD823
:102E100097FAA7F0B0FA80F040F04000B4EB501FF2
:102E200008D1306812E01DE000100240000042426C
:102E30000070004097FAA7F0B0FA80F040F0400030
:102E4000B7EB501F01D1306A00E0706A97FAA7F122
:102E5000B1FA81F101F01F0104FA01F21042CFD062
:102E60002EE034E0FFF714FB834607E0FFF710FB8A
:102E7000A0EB0B0141F28830814215D897FAA7F0F8
:102E8000B0FA80F040F04000B4EB501F01D1306840
:102E90000CE097FAA7F0B0FA80F040F04000B7EBF2
:102EA000501F02D1306A01E083E0706A97FAA7F1FF
:102EB000B1FA81F101F01F0104FA01F21042D5D1FB
:102EC000B9F1000F03D0F06920F08050F061E8699B
:102ED00080B37168C1F38101022977D04FF080710E
:102EE0004F00022809D091FAA1F0B0FA80F048F81A
:102EF00020A0FFF7CDFA05465EE0894691FAA1F1E0
:102F00005046B1FA81F1C24648F82100FFF7C0FAF5
:102F1000804605E0FFF7BCFAA0EB0800022848D87D
:102F200097FAA7F0B0FA80F040F02000400902D0F4
:102F3000306801E056E0706A97FAA7F1B1FA81F1C2
:102F400001F01F0104FA01F10842E3D1D5E90810AC
:102F50000843716821F474110843706099FAA9F06C
:102F6000B0FA80F04AF82040FFF792FA054604E0F4
:102F7000FFF78EFA401B02281BD897FAA7F0B0FA89
:102F800080F040F02000400901D0306800E0706A15
:102F900097FAA7F1B1FA81F101F01F0104FA01F1EA
:102FA0000842E5D01EE000BFFFF772FA401B02287E
:102FB00002D90320BDE8F88F97FAA7F0B0FA80F0A5
:102FC00040F02000400902D0306801E00CE0706A57
:102FD00097FAA7F1B1FA81F101F01F0104FA01F1AA
:102FE0000842E1D10020E5E70120E3E74FF0E021CE
:102FF0000428086903D020F004000861704740F0FD
:103000000400FAE701F0C2BB10B5401EB0F1807FAA
:1030100001D3012010BD4FF0E02460610F21601743
:1030200001F0ACFD0020A06107202061002010BD50
:1030300010B5FFF7E7FF10BD7047704730B590F847
:103040003C20012A3AD0012280F83C20CA688C68D2
:1030500022F4407222434C6822F4806222430C68BE
:1030600022F4006222430C6922F4805222434C690C
:1030700022F4005222438C6A22F48042224322F43A
:10308000004222430C8B22F4702242EA04420C4D8F
:1030900004680023AC420CD18D8C22F4700242EA09
:1030A0000552CD6922F080722A43096A22F000722B
:1030B0000A43626480F83C30002030BD022030BDFD
:1030C000002C014030B590F83C20012A1CD0012290
:1030D00080F83C2003685A689C680C4DAB4203D1D1
:1030E00022F470054A682A4322F070050A6889684C
:1030F0002A4324F0800421435A6002689160002131
:1031000080F83C10084630BD022030BD002C014044
:1031100010B504460068042201F041FF2068416CAC
:1031200041F4004141642068016841F001010160FF
:10313000002010BD10B504460068002201F02FFFEA
:103140002068036A41F211110B4240F2444206D159
:10315000036A134203D1436C23F4004343642068A1
:10316000036A0B4206D1016A114203D1016821F0C2
:1031700001010160002010BD10B5040003D094F8D7
:103180003D0010B107E0012010BD002084F83C0094
:10319000204600F00DF8022084F83D00211D206833
:1031A00001F0B6FE012084F83D00002010BD0000B3
:1031B00000B52B4A01682B4887B0914217D181692D
:1031C00041F4006181618069694600F40060059006
:1031D00040200090022001900020029003900620E1
:1031E00004904FF09040FFF785F807B000BD1E4AED
:1031F00091420ED1C16941F01001C161C069002244
:1032000000F01000059001213620FFF7C1F93620AB
:1032100010E0164A914210D1816941F40031816178
:103220008069002200F40030059011461820FFF755
:10323000AFF91820FFF7A0F9D7E70D4A9142D4D192
:10324000816941F4003181618069002200F400301D
:10325000059011461920FFF79BF91920EAE70000B5
:10326000002C0140001002400010004000400140CE
:10327000004401400168CA6842F00102CA60006867
:10328000016841F001010160002070470168CA68CF
:1032900022F00102CA600068016A41F21112114273
:1032A00007D1016A9210114203D1016821F0010196
:1032B000016000207047000070B5044690F83C00A3
:1032C000012817D0012584F83C50022084F83D00E5
:1032D00022689068364E304020F47F409060086845
:1032E000502839D00DDC20285BD005DC98B310289D
:1032F00043D153E0022070BD302855D040283CD146
:1033000041E0602830D070280CD0B0F5805F03D049
:10331000B0F5005F31D112E020688168244A703234
:10332000114016E0CB68D1E90121206801F042FE8E
:1033300021688868304040F0770088601DE0CB68E5
:10334000D1E90121206801F035FE2068816841F44F
:103350008041816011E01EE0CA684968206801F080
:103360009BFF5021206806E0CA684968206801F088
:10337000A4FF6021206801F027FE84F83D50002062
:1033800084F83C0070BDCA684968206801F084FF79
:1033900040212068EFE700212068ECE71021206839
:1033A000E9E720212068E6E730212068E3E7000014
:1033B00088FFFEFF2DE9F041044690F83C001746D7
:1033C0000D4601280CD0012684F83C60022084F8C8
:1033D0003D00686838B101281AD002280FD109E0F1
:1033E0000220BDE8F0812068816821F0080121F405
:1033F0007F4103E02068816821F0080181600C2F83
:1034000038D010DCA7B1042F1DD0082F54D126E0EE
:10341000D5E902212B69206801F0CCFD2068816884
:1034200041F00801EAE7102F30D0142F44D138E0E2
:10343000286800282068816902D041F080010CE0F2
:1034400021F0800109E0286800282068816902D005
:1034500041F4004101E021F4004181612CE0286841
:1034600000282068C16902D041F080010CE021F001
:10347000800109E0286800282068C16902D041F471
:10348000004101E021F40041C16115E028680028F5
:103490002068416D02D041F080010CE021F08001F4
:1034A00009E0286800282068416D02D041F40041FD
:1034B00001E021F40041416584F83D60002084F87A
:1034C0003C008EE7704770B50446006801694FF014
:1034D0000005C943890715D4C168C943890711D4B8
:1034E000E91E01610120207720688069800720465D
:1034F00002D0FFF7E7FF04E000F0C2F8204600F03A
:1035000070F9257720680169C943490717D4C16854
:10351000C943490713D46FF00401016102202077E9
:103520002068806910F4407F204602D0FFF7CAFF70
:1035300004E000F0A5F8204600F053F92577206854
:103540000169C943090716D4C168C943090712D4E0
:103550006FF008010161042020772068C0698007AE
:10356000204602D0FFF7AEFF04E000F089F82046C5
:1035700000F037F9257720680169C943C90617D4D7
:10358000C168C943C90613D46FF010010161082056
:1035900020772068C06910F4407F204602D0FFF7F2
:1035A00091FF04E000F06CF8204600F01AF925774E
:1035B00020680169C943C90708D1C168C943C9075F
:1035C00004D1891E0161204600F06AF92068016972
:1035D000C943090609D4C168C943090605D46FF077
:1035E000800101612046FFF727FD20680169C9437A
:1035F000490609D4C168C943490605D46FF04001A2
:103600000161204600F056F920680169C943890626
:103610000BD4C168C943890607D46FF0200101614A
:103620002046BDE87040FFF708BD70BDF0B50068EA
:10363000114985B088421DD14FF4E0600224012574
:10364000002606278DE8F10069464FF09040FEF70E
:1036500051FE38038DE8F100084F69463846FEF701
:1036600049FEA0038DE871000420049069463846A5
:10367000FEF740FE05B0F0BD002C014000040048FC
:10368000704770B5044690F83C000D4601280ED0F6
:10369000012684F83C60022084F83D000C2A45D0C5
:1036A00007DC5AB1042A1BD0082A78D12CE002206A
:1036B00070BD102A4ED0142A71D15DE0206801F04F
:1036C0008BFC2068816941F0080181612068816973
:1036D00021F004018161206881692A69114311E0A8
:1036E000206801F0BDFC2068816941F400618161BE
:1036F0002068816921F480618161206881692A697B
:1037000041EA022181614AE0206801F0E9FC206879
:10371000C16941F00801C1612068C16921F004015B
:10372000C1612068C1692A69114311E0206801F074
:1037300017FD2068C16941F40061C1612068C16959
:1037400021F48061C1612068C1692A6941EA0221CE
:10375000C16124E0206801F039FD2068416D41F02D
:10376000080141652068416D21F004014165206830
:10377000416D2A69114311E0206801F059FD20686C
:10378000416D41F4006141652068416D21F4806123
:1037900041652068416D2A6941EA0221416584F84A
:1037A0003D60002084F83C0070BD10B5040003D0DB
:1037B00094F83D0010B107E0012010BD002084F80E
:1037C0003C00204600F00CF8022084F83D00211D4A
:1037D000206801F09DFB012084F83D00002010BD11
:1037E0007047704710B504460068012201F0CCFB19
:1037F0000B482168814208D00A48814205D00A4816
:10380000814202D00948814203D1486C40F4004013
:1038100048642068016841F001010160002010BD8A
:10382000002C01400040014000440140004801409C
:1038300010B504460068002201F0A6FB144841F2CE
:10384000111221689310814208D01248814205D09C
:103850001148814202D01148814209D1086A1042C0
:1038600006D1086A184203D1486C20F4004048642D
:103870002068016A114206D1016A194203D1016828
:1038800021F001010160012084F83D00002010BDFD
:10389000002C01400040014000440140004801402C
:1038A00000680349884201D100F0C2BF70470000A0
:1038B00000100040704770477047000070B5036803
:1038C0000446D869196810F00F0508D1820606D59C
:1038D0008A0604D52046BDE8704001F0B7BD9A685D
:1038E000002D66D002F0010501F490762E4360D0E1
:1038F000C60707D0CE0505D501261E62E36E43F04C
:103900000103E366830708D5D30706D026680223A0
:103910003362E36E43F00403E366430708D5D2073E
:1039200006D0236804221A62E26E42F00202E266C6
:1039300002070AD501F020022A4306D02368082294
:103940001A62E26E42F00802E266E26E002A29D0B4
:10395000800604D5880602D5204601F077FDE06E8A
:10396000000703D42068806840061CD5204601F07B
:1039700052FD20688168490611D5816821F0400117
:103980008160606E58B11C494163606EFEF721FC96
:10399000002807D0606E416BBDE8704008472046A4
:1039A000FFF78AFF70BD2046FFF786FF0020E06624
:1039B00070BDC5020ED552020CD54FF480101862AE
:1039C000202084F8690084F86A002046BDE8704031
:1039D000FFF771BF020606D50A0604D52046BDE8EA
:1039E000704001F015BE4006E2D54806E0D52046FD
:1039F000BDE8704001F01DBD0354000810B504007F
:103A000003D094F8690010B107E0012010BD002038
:103A100084F86800204600F027F8242084F8690024
:103A20002068016821F001010160204601F04AFD93
:103A30000128EBD0606A10B1204601F050FC2068EC
:103A4000416821F4904141602068816821F02A0199
:103A500081602068016841F0010101602046BDE8F5
:103A6000104001F0A0BC000000B50068124987B00A
:103A700088421FD11148C16941F48021C161C069E8
:103A8000694600F4802005904FF4407000900220B9
:103A90000190012002900320039007200490084821
:103AA000FEF728FC002211462720FEF771FD272093
:103AB000FEF762FD07B000BD004800400010024064
:103AC0000004004870472DE9F843044690F8690067
:103AD0001F4616460D4620284DD1CDB1C6B194F8EB
:103AE0006800012847D0012084F868004FF00008E2
:103AF000C4F86C80212084F869005034FEF7C8FCBB
:103B000024F8026B814624F852694FF4805618E07D
:103B10000120BDE8F883B4F85200401EA4F852001A
:103B20004B46002280212046009701F0A3FDA0B95A
:103B3000A068B04201D1206988B115F8010B216855
:103B40000885B4F852000028E5D14B4600224021F8
:103B50002046009701F08EFD30B10320D9E735F8FB
:103B6000020BC0F30800EAE7202084F8690084F81B
:103B700068800020CDE70220CBE770472DE9F047B1
:103B800080461A4889460027828A4FF4001016465C
:103B90003946FCF7F2FBB0EB080071EB0901324645
:103BA00001D3802001E04FF400500021FCF7E5FB39
:103BB00004460D46761E22462B4640464946FCF7F3
:103BC00065FB0019694149084FEA300080EA0402A8
:103BD00081EA05031A4307D07F1CFFB204460D4655
:103BE000B742E8DBBDE8F087F7B2F9E7080000204C
:103BF0002DE9F0413E48006800683E4C3E4FC0064B
:103C00004FF0000562D5607D04282FD006282DD006
:103C10002046237DB0F87220B0F8700004F1C4068D
:103C2000411C89B2072B21D2DFE803F02045332560
:103C30003A2C0400904217D33048FEF73EF8E06378
:103C400034E000BFB4F86C1088420FD9012000F0B6
:103C500021F984F8B35009E0B4F86E10884205D217
:103C6000002000F017F901E0A4F87010388904EB87
:103C70008000806C38E09042F6D32048FEF71DF8B3
:103C8000E0631EE09042EFD31C48FEF716F8206474
:103C900017E09042E8D31948FEF70FF8206405E0DA
:103CA0009042E1D31548FEF708F86064B6F90010B9
:103CB0000029D1DBC6E79042D6D31048FDF7FDFFBF
:103CC0006064B6F900100029C6DABBE70B48FDF7BF
:103CD000F4FF398904EB8102491C906588B2388170
:103CE000012800D93D81E06ABDE8F04100F0B6B896
:103CF000CC00002070020020080000207800002086
:103D000010480168CA6A1048A2F57F43FF3B0DD0F6
:103D10008A6A0E4B92B2C96AD3F8A430B3FBF2F2AE
:103D200001EB41014900B2FBF1F100E000214164E7
:103D30000649406CC431B1F90010002900DA404254
:103D4000704700000C0100200800002070020020D5
:103D500000B5FFF7D5FF0449C0EB00108000CA8B07
:103D600090FBF2F0086400BD08000020014890F8C4
:103D7000920070477002002030B5B0F90020B0F911
:103D80000440531AB0F9022022495A4394B35C43C9
:103D9000D1F8803023441C46C1F88030B0F9083097
:103DA000B4EB033F02DD1B03C1F88030B0F90830EB
:103DB000D1F880405D42B4EB053F03DA1B035B4260
:103DC000C1F88030D317D1F8801002EB1352CB1713
:103DD000121301EB135102EB2131B0F90020002A3C
:103DE000B0F9082009DD8A420ADBB0F906008842F2
:103DF0000DDC0DE0FFE70023CDE752428A4201DDF2
:103E0000114605E0B0F906004042884200DA01465A
:103E100008B230BD700200200A4A0B4992F8C03047
:103E2000498A03B14942018032F8BC1F4180518860
:103E300081807821C1804FF4FA6101810021817273
:103E4000C17270477002002008000020002801D0D5
:103E50000149088070470000340300200C490A68BB
:103E6000936843F0100393600A689368DB06FCD400
:103E7000136B23F4F86313630A68136B43EA80102F
:103E800010630868816841F0040181607047000098
:103E90007800002070B5204C0646A07D217D884228
:103EA0002FD094F896001D4D01281BD141021C48CB
:103EB000FEF7E5FAE88A0121642800D9A9700022FA
:103EC000012E1FD094F8B130012B01D0401CE882A4
:103ED000A86C042806D394F8B100012802D084F815
:103EE000B110AA64207DA07594F89500012808D12E
:103EF0000C490868426AAA65EB6B02EB5302C26286
:103F0000CA6070BD94F8B1000128E1D0A86C401CD3
:103F1000A864EA82DCE700007002002008000020AC
:103F2000000800480C0100202DE9F047214C012633
:103F300094F8860008B984F8866094F88500012812
:103F40001BD11C481C4FC4301C4DB0F90010C438A4
:103F50004FF0090990F895004FF44878012820D0D7
:103F6000667500F037FAA18EE889814207D9618B26
:103F7000F9603A68D162401CE881BDE8F08794F8A6
:103F800094000028F9D1EE81D4F8B8004008C4F8B4
:103F9000B80040450AD300BF00F0C8FB84F8159074
:103FA000EBE784F894602E82EE81E6E7C4F8B880EF
:103FB000F2E70000700200200C0100200800002041
:103FC00070B5104D0620104C2875698BE160226891
:103FD000D1620E4E687540F2DD51308B401C80B2CC
:103FE000308388420CD3012085F8850068753082C3
:103FF00000F0F0F9286B606021688862002030834F
:1040000070BD0000700200200C010020080000209C
:104010000648074A017931B1012903D10021017114
:1040200082F8C01070470121F9E700000800002065
:104030007002002010B500210648FFF77BF804212C
:104040000448FFF777F8BDE8104008210148FFF762
:1040500071B80000CC00002001490968486370472E
:10406000CC0000200149096888637047CC0000201B
:1040700001490968C8637047CC00002010B500F002
:10408000B3F80C480068416B0B4B1961C16AD960E9
:10409000806A986009480068C16A5960806A18603F
:1040A00000F00EF8012083F8B000BDE8104000F0E9
:1040B000E5B80000CC000020700200200C010020B8
:1040C0000A484FF47A610422A0F87C10A0F8B620C8
:1040D00042F21072C0F8B820A0F8BC107821A0F805
:1040E000BE10002180F8C010704700007002002050
:1040F0002DE9F041384C002794F88400012801D1C3
:1041000084F88470DFF8D480D8F80000C06A344E98
:104110000125F06394F88500012829D1FFF718FEE6
:10412000A4F87400A4F87050A17D207D814200D0D5
:10413000B7642949C431B1F9001000290CDB401CD7
:10414000C0B2207594F8B210012901D184F89550BD
:1041500006280DD925750BE0401EC0B2207594F8D5
:10416000B210012901D184F8955008B906202075B4
:1041700094F89500012810D194F8B300401CC0B207
:1041800084F8B3000A2801D9F57006E0D8F80020B9
:104190004FF6FF71D162C8F80C10207D00F0B2F923
:1041A000104800680068C00614D5207D072806D294
:1041B000DFE800F0050A0C0E0A0C0E00E062E06A6F
:1041C000BDE8F041FFF74ABEA06AF7E7606AF5E78D
:1041D000206AF3E7BDE8F081700200200C010020A6
:1041E00008000020CC00002030B58BB00125002451
:1041F0000695CDE907540994224606A91C480A945D
:10420000FFF7D8F8042206A91948FFF7D3F80822C7
:1042100006A91748FFF7CEF81648C16841F001011A
:10422000C16013480068C16841F08001C160039417
:1042300004946946104801950594FDF7A5FB0920F3
:1042400005240090694602940B48FDF79DFB0B2066
:104250000090694602940848FDF796FB0F200090F5
:10426000694602940448FDF78FFB0BB030BD000097
:10427000CC000020002004E0780000202DE9F0416F
:104280004F4D012740F6B83085F88470A886C820C5
:10429000A5F86C00A5F86E004FF47A60A5F87C00D4
:1042A0000220A5F88E00288A28834FF496680024FF
:1042B000A5F8988085F88640A5F890406420A5F878
:1042C0007200EC62AC753F482C7529684160026849
:1042D00091626968C1600068C1623B48A968416039
:1042E00002689162E968C1600268D1620068296968
:1042F0004163364EB5F8B600F083FEF76FFBC5F8A4
:10430000A4000020FFF7A8FE0020FFF7ABFE00206E
:10431000FFF7AEFE092028620B2068620F20A8621A
:104320002C75A5F8704085F8854085F8954085F88E
:104330009440A5F87640C5F88040A5F87A40A5F8E5
:104340009C40A5F89240A5F8744085F8B14085F8E6
:10435000B2401F4885F8964085F8B34004607481E8
:10436000B78134637463B463B462F46234647464B4
:10437000348134627462F463F7807770F781B464D7
:10438000F482B470F4703783F46434657783B48353
:1043900074650020B465C6E9180005F1C4003470E6
:1043A000B0F90000002800DA2F750548A6F8128041
:1043B000C430FFF731FD3782BDE8F04100F00AB8A4
:1043C000700200200C010020CC000020080000201A
:1043D000740000202DE9F047364C374D4FF00009AE
:1043E000268A4FF6FF78012E2CD040F6B830864250
:1043F00042D2606AA6FB0001FFF7C0FB2F4B0022F0
:10440000A0FB036701FB037100FB02112C4A002390
:104410003046FBF73BFFA062E16A401AA063228AA4
:104420004FF47A71012A41F68A0200FB02F090FBF8
:10443000F1F01DD02063616BC0EB0040B0FBF1F0E8
:10444000688326E0E18BD5F8B8001E4A48433C213A
:10445000B0FBF1F05D212062C4E9182100EB4002BD
:104460004F4600231748FBF711FFE7626062C0E781
:104470006063A5F81A8001E0012020820F49D5F879
:10448000A400B0FBF1F0616B4843B0FBF8F0401EB4
:104490002863687D062806D0042804D0208A401CA2
:1044A0002082A06A02E04846C4F82890E062BDE895
:1044B000F0870000080000207002002040420F003A
:1044C00087A6090000A0DB2110B500210C48FEF7EB
:1044D00031FE04210A48FEF72DFE08210848FEF7A8
:1044E00029FE00210648FFF7A3F904210448FFF73D
:1044F0009FF9BDE8104008210148FFF799B9000075
:10450000CC00002010B5524C07287DD2DFE800F027
:104510009F04172A3D5D7F0000214E48FFF762F996
:1045200004214C48FFF75EF908214A48FFF780F95B
:10453000208BFFF791FD0020FFF794FD37E000216D
:104540004448FFF74FF904214248FFF771F9082169
:104550004048FFF747F9208BFFF77EFD0020FFF76B
:1045600087FD44E000213B48FFF762F90421394808
:10457000FFF738F908213748FFF734F9208BFFF7A8
:1045800071FD0020FFF774FD53E000213148FFF773
:1045900029F904212F48FFF725F908212D48FFF7B5
:1045A00047F9208BFFF75EFD0020FFF755FD002146
:1045B0002848FEF7ADFD04212648FEF7A9FD082195
:1045C0002448FEF7B7FDA06A40E000212148FFF72C
:1045D00009F904211F48FFF72BF908211D48FFF7AF
:1045E00001F9208BFFF744FD0020FFF735FD002186
:1045F0001848FEF78DFD04211648FEF79BFD0821A3
:104600001448FEF785FD00E021E0606A1EE000210D
:104610001048FFF70DF904210E48FFF7E3F80821D1
:104620000C48FFF7DFF8208BFFF722FD0020FFF793
:1046300019FD00210748FEF77DFD04210548FEF71E
:1046400067FD08210348FEF763FD206AE06210BDA4
:1046500070020020CC000020F0B52148214D014619
:1046600090F800C0CA880126511C8CB20021B5F90F
:10467000747005F1D003BCF1000F17D0C4800A2C70
:1046800000D3C680C164C28823F812705FF00102B3
:1046900033F91240521C92B221440A2AF8D3C16461
:1046A000092091FBF0F0A5F87600F0BD23F8127018
:1046B0000127C16405E000BF33F917C07F1C6144C6
:1046C000BFB294469742F7D9C16491FBFCF1A5F8BB
:1046D0007610C4800A2CE8D3C6800670F0BD0000B6
:1046E00008000020700200200B4910B5002008606F
:1046F0000A4C042060750A48FEF7BCFD0948FDF726
:10470000EDFC0120A4F892000246BDE8104004210F
:104710000548FDF7B8BE00007400002070020020BC
:104720000C010020780000200004004810B511485A
:1047300000240460104803214175A0F89240FFF75F
:10474000C3FE0E4801680A6822F001020A60006890
:104750004462FFF76FFC0A48FEF798FD0948FDF731
:1047600014FD002204210848FDF78DFEBDE810402D
:10477000FFF784BD7400002070020020CC000020F0
:104780000C01002078000020000400482DE9F041D1
:10479000244D95F88600012804D195F8850008B9C4
:1047A000FFF70EFC204800680127204CB0F57A7F07
:1047B00003D16078012800D06770B5F88E10606D65
:1047C000002681420FD8687D072801D000F040F80C
:1047D000A5F8A07095F89500012802D10020FFF7F8
:1047E00035FB666501E0401C6065A07801280FD1AB
:1047F000D5F8B8004FF448714008C5F8B8008842B1
:1048000001D2C5F8B810FFF791FFE6820A2068755B
:10481000E078012803D1FFF789FF07206875BDE81C
:10482000F0810000700200207400002008000020C9
:1048300010B5FFF75DFC054890F8940008B9FFF744
:1048400073FBBDE81040FFF707BF000070020020B7
:1048500010B51F481D4C0122438A2046B4F976103A
:1048600090F89500994202DC5B42994206DA0128F1
:1048700004D00223637584F8962003E094F8963000
:10488000012B09D194F8B130012B05D194F8B23045
:10489000012B01D084F8B220012812D105206075C7
:1048A0000A48C430B0F900000028084800F1C400EC
:1048B00002DBFFF761FA02E0FFF75EFA4042A4F87C
:1048C0007A00BDE81040FCF7E7BE0000700200204F
:1048D0000800002030B5174887B04FF0A0410024F1
:1048E000C0E9001484600461C4614FF480614462D3
:1048F00001630125C46005624FF410714463C16215
:104900000421C0E905148463FDF7D0FA00B1FEE785
:104910000C20CDE900050320CDE90204049469468A
:1049200004480594FDF730F8002800D0FEE707B0F2
:1049300030BD00007800002070B52C4886B0416979
:1049400041F400214161416901F40021059141696F
:1049500041F480014161416901F48001059141699F
:1049600041F400314161416901F40031059141692F
:1049700041F48021416140691D4E00F48020059082
:1049800000224FF404713046FDF77DFD4FF40070B6
:10499000012400258DE83100694630460395FDF776
:1049A000A9FC2002CDE9000469463046CDE9024564
:1049B000FDF7A0FC062000900E48CDE901046946F1
:1049C0000D48FDF797FC042211460720FDF7E0FD96
:1049D0000720FDF7D1FD042211460820FDF7D8FD80
:1049E0000820FDF7C9FD06B070BD000000100240B0
:1049F00000080048000021100004004830B53F487E
:104A00003D499FB00024202580E8320040F2CF21AC
:104A1000C0E9031444618461FEF7AEFB00B1FEE718
:104A20004FF480501A901AA93448FEF745FC00B1A3
:104A3000FEE73248FEF7B9FE00B1FEE70120129012
:104A4000CDE913041594002212A92C481694FEF700
:104A5000B1FC00B1FEE7042212A92848FEF7AAFC27
:104A600000B1FEE7082212A92448FEF7A3FC00B11A
:104A7000FEE78020CDE9184017A917951F48FEF7DB
:104A800021FB00B1FEE76020009040F23F20CDE91D
:104A900001044FF48070CDE9044040000690039477
:104AA000002269461548FEF7ECFD00B1FEE704223E
:104AB00069461248FEF7E5FD00B1FEE708226946A7
:104AC0000E48FEF7DEFD00B1FEE707940894099456
:104AD0000A940B940C940D940E940F94109407A9BF
:104AE00006481194FEF7AAFA00B1FEE70348FEF764
:104AF0009DFD1FB030BD0000002C0140CC00002007
:104B00003EB50D480B49002401600B21C0E901149A
:104B100045F6C0518461C160FEF72EFB00B1FEE78F
:104B20000094694604480294FEF7CCFA002800D0AD
:104B3000FEE73EBD001000400C0100200E4810B5FD
:104B40000C4901604FF4E13141604FF480518160C4
:104B500000214FF4C062C0E903120C22C0E9052114
:104B6000C16101624162FEF749FF002800D0FEE703
:104B700010BD0000004800404C0100200907090E4C
:104B8000002806DA00F00F0000F1E02080F8141D84
:104B9000704700F1E02080F8001470472DE9F041E3
:104BA000144E00250421304600F07CF80024012733
:104BB0000421304600F088F8002204213046FDF739
:104BC00062FC022001F07EFE0421304600F06AF80B
:104BD00004213046FDF74EFC18B107FA04F02843D3
:104BE000C5B2502001F06EFE641C082CE0DB2846A4
:104BF000BDE8F0810008004810B500F079F8CC203D
:104C000000F070FD662000F06DFD032000F06AFDED
:104C1000222000F067FD002000F064FD342000F049
:104C200061FDFFF7BBFF074C04F8530FFFF7B6FF1A
:104C30006070AA2000F056FDBDE810404FF47A7075
:104C400001F040BE0C02002010B500F051F8CC205D
:104C500000F048FD662000F045FD042000F042FD14
:104C6000332000F03FFD002000F03CFD342000F038
:104C700039FD002000F036FD642001F023FEFFF72F
:104C80008DFF074C04F8450FFFF788FF6070AA20DE
:104C900000F028FDBDE81040642001F013BE0000C4
:104CA0000C02002030B585B00C460546142168463C
:104CB000FBF72EFC0021CDE9004102916946284610
:104CC000FDF718FB05B030BD30B585B00C46054684
:104CD00014216846FBF71CFC1120CDE900400020A0
:104CE000039069462846FDF705FB05B030BD00007E
:104CF00010B5124C04212046FFF7E6FF00220421E4
:104D00002046FDF7C0FB4FF4F07001F0DBFD0421FD
:104D10002046FFF7C7FF412001F0D4FD04212046C3
:104D2000FDF7A8FB064B38B1022018704FF4C8708D
:104D300001F0C8FD187810BD0120F6E70008004812
:104D40000400002070B5FFF7D3FF134C6070CC2037
:104D500000F0C8FC662000F0C5FC052000F0C2FC95
:104D6000832000F0BFFC0B2000F0BCFC032000F00F
:104D7000B9FCA52000F0B6FC0F2000F0B3FCFFF753
:104D80000DFF064D2870FFF709FF6870AA2000F09C
:104D9000A9FC607870BD0000040000200C02002017
:104DA00010B5FFF7A5FF15494870CC2000F09AFC1C
:104DB000662000F097FC052000F094FC832000F0B2
:104DC00091FC0B2000F08EFC032000F08BFCA52052
:104DD00000F088FC0F2000F085FCFFF7DFFE084C98
:104DE000A070FFF7DBFEE070AA2000F07BFCBDE8BE
:104DF00010404FF47A7001F065BD000004000020FF
:104E00000C02002010B5FDF749FBBDE81040FEF78D
:104E10000FB9000030B59DB001210804CDE90010A4
:104E20000024029402250491CDE907504FF4E010CC
:104E300009906846FDF704FE00B1FEE70F20CDE9BA
:104E400017054FF48060CDE91940022117A81B9483
:104E5000FDF7CAFC00B1FEE70E4814940A904FF427
:104E60008070109012940AA8FDF7C4FB00B1FEE711
:104E7000FDF77EFD4FF47A71B0FBF1F0FEF7C4F858
:104E80000420FEF7B3F802210022C81EFDF780FBC4
:104E90001DB030BD801008001448016841F4700155
:104EA00001601348016841F0010101604168114A45
:104EB000114041600168104A11400160016821F40D
:104EC00080210160416821F4FE014160C16A21F046
:104ED0000F01C162016B094A114001630021816029
:104EE0000249C003803908607047000088ED00E087
:104EF000001002400CC07FF8FFFFF6FECCFC00FF64
:104F0000704700000148FEF7DEBA00000C010020E7
:104F1000F0B50268184B4FF08047984201D0B84274
:104F200003D122F070044A682243144C144D154EEC
:104F3000984207D0B84205D0A04203D0A84201D081
:104F4000B04203D122F44077CA683A434F6922F055
:104F500080023A4302608A68C2620A6882629842AA
:104F600005D0A04203D0A84201D0B04201D10969C6
:104F7000016301214161F0BD002C0140004001406E
:104F8000004401400048014010B50123046A8B40F1
:104F90009C430462036A8A401343036210BD10B548
:104FA0000423046A8B409C430462036A8A401343CF
:104FB000036210BD10B5846842EA032224F47F44E2
:104FC0000A432243826010BD826822F070020A43C5
:104FD00042F0070181607047F0B5026A22F00102D9
:104FE0000262056A43688269184C25F00205224076
:104FF0000C6822F0030214438A68164E2A43144DAB
:10500000154FDFF858C0A84205D0B04203D0B842CF
:1050100001D0604506D122F0080ECA6842EA0E02AD
:1050200022F00402A84205D0B04203D0B84201D019
:10503000604505D14D6923F440731D438B692B43B3
:1050400043608461496841630262F0BD8FFFFEFFE7
:10505000002C014000400140004401400048014054
:1050600030B5026A22F010020262046A4268836963
:10507000164D2B400D6823F4407343EA052524F0B8
:1050800020038C6843EA0413114CA04207D1CC687A
:1050900023F0800343EA041323F0400308E00D4C9F
:1050A000A04205D00C4CA04202D00C4CA04207D12B
:1050B0004C6922F4406242EA84028C6942EA84022A
:1050C0004260856149688163036230BDFF8FFFFEE6
:1050D000002C0140004001400044014000480140D4
:1050E00030B5026A22F480720262046A4268C369BF
:1050F000164D2B400D6823F003031D4324F4007369
:105100008C6843EA0423124CA04207D1CC6823F4F4
:10511000006343EA042323F4806308E00D4CA042BB
:1051200005D00D4CA04202D00C4CA04207D14C69D6
:1051300022F4405242EA04128C6942EA04124260AC
:10514000C5614968C163036230BD00008FFFFEFF87
:10515000002C014000400140004401400048014053
:1051600030B5026A22F480520262046A4268C3695E
:10517000114D24F400542B400D6823F4407343EA8E
:1051800005238D6844EA05340C4DA84208D00C4D27
:10519000A84205D00B4DA84202D00B4DA84204D125
:1051A0004D6922F4804242EA85124260C361496837
:1051B0000164046230BD0000FF8FFFFE002C01403F
:1051C00000400140004401400048014030B5026AFF
:1051D00022F480320262046A4268436D0F4D2B4014
:1051E0000D681D4324F400330C8943EA04430C4C3E
:1051F000A04208D00B4CA04205D00B4CA04202D0DC
:105200000A4CA04204D14C6922F4803242EA0422C2
:105210004260456549688165036230BD8FFFFEFFCE
:10522000002C014000400140004401400048014082
:1052300030B5026A22F480120262046A4268436D49
:10524000104D24F400142B400D6843EA05230D890A
:1052500044EA05540C4DA84208D00C4DA84205D094
:105260000B4DA84202D00B4DA84204D14D6922F447
:10527000802242EA8522426043654968C165046232
:1052800030BD0000FF8FFFFE002C014000400140B8
:10529000004401400048014010B5036A046A24F04C
:1052A00001040462846924F0F00444EA021423F047
:1052B0000A020A438461026210BD10B5036A23F03A
:1052C000100303628369046A23F4704343EA0232E1
:1052D00024F0A00343EA01118261016210BD90F83D
:1052E0002410C90706D001684A68836A22F4003294
:1052F0001A434A6090F82410890706D501684A6865
:10530000C36A22F480321A434A6090F82410490795
:1053100006D501684A68036B22F480221A434A606A
:1053200090F82410090706D501684A68436B22F4F7
:1053300000421A434A6090F82410C90606D5016855
:105340008A68836B22F480521A438A6090F8241092
:10535000890606D501688A68C36B22F400521A4395
:105360008A6090F82410490611D501684A68036CD8
:1053700022F480121A434A60016CB1F5801F06D1F5
:1053800001684A68436C22F4C0021A434A6090F8EC
:105390002410090606D501684A68806C22F40022B0
:1053A00002434A607047F8B500260446C666FDF71A
:1053B0006FF80546206800686FF07E47000708D543
:1053C0002B4600224FF400112046009700F052F9BE
:1053D00060B92068006840070AD52B4600224FF4C8
:1053E00080012046009700F045F908B10320F8BD80
:1053F000202084F8690084F86A0084F8686000203E
:10540000F8BD10B5406A0021A0F85A10A0F852105B
:10541000FEF752FA10BD01680A6822F490720A6021
:1054200001688A6822F001028A60202180F86A10EF
:10543000704710B501680A6822F040020A60202116
:1054400080F86910FEF799FB002010BD10B5B0F888
:105450005C2090F86A300168222B05D0886940F002
:1054600008008861022010BD898C8368B3F5805FD5
:1054700001D103696BB11140426D531C436511703A
:10548000B0F85A10491E0904090CA0F85A1007D0A8
:1054900015E0436D11401980416D891C4165EFE7AE
:1054A00001680A6822F490720A6001688A6822F032
:1054B00001028A60202180F86A10FEF703FB0020B9
:1054C00010BD00002DE9F041044610202369A268B8
:1054D000E6691A436369002133431A4323680D4682
:1054E0001E68444F3E4016431E6022685368E668BB
:1054F00023F4405333435360236AA2691A43236859
:105500009E6826F4306616439E603B4B22689A42A2
:1055100010D13A4B1B6B13F0030311D0012B05D0B4
:10552000022B05D0032B0CD102200AE0042008E056
:10553000082006E0324B9A4202D0324B9A4200D108
:105540000020E6694FF400439E4226D109281DD26F
:10555000DFE800F00508121C151C1C1C1800FDF7E4
:105560000DFA01E0FDF722FA4100606801EB5001FD
:10557000B1FBF0F081B20AE023496068F6E7FDF77D
:105580002DFAF1E74FF480316068EFE7012521F053
:105590000F00C1F3420108431CE0092825D2DFE8CF
:1055A00000F005080B24102424241C00FDF7E6F964
:1055B00009E0FDF7FBF906E01449606801EB5001D2
:1055C0000EE0FDF70BFA0146606801EB5001B1FBFC
:1055D000F0F080B22168C86008E0606803EB500119
:1055E000B1FBF0F080B2D06000E001252846BDE8B4
:1055F000F0810000F369FFEF003801400010024025
:1056000000440040004800400024F40000127A00EA
:1056100090F86910212901D002207047B0F852108B
:1056200021B18168B1F5805F0BD00CE001680A6898
:1056300022F080020A600068016841F040010160C8
:105640000CE0016961B1C16C4A1CC264026809784E
:10565000A2F8281030F8521F491E01800020704720
:10566000C16C02680988C1F308011185C16C891CED
:10567000C164EFE72DE9F041984617460E4604460F
:10568000069D1DE0681C1BD02DB1FCF701FFA0EBAF
:105690000800A84214D92068016821F4D071016083
:1056A0002068816821F001018160202084F8690070
:1056B00084F86A00002084F868000320BDE8F081C7
:1056C0002068C06936EA000004D00020B842D9D072
:1056D0000020F3E70120F9E70148FEF7EFB80000EA
:1056E0004C0100202DE9F041194D074604212846C0
:1056F000FFF7EAFA0024012606FA04F038424FF0D8
:105700000401284611D0FFF7DFFA002204212846C1
:10571000FCF7B9FE012001F0D5F804212846FFF777
:10572000C1FA3C2001F0CEF80DE0FFF7CDFA0022DF
:1057300004212846FCF7A7FE3C2001F0C3F8042111
:105740002846FFF7AFFA641C082CD5DBBDE8F081D2
:105750000008004810B5FFF7CBFACC20FFF7C2FFD6
:105760006620FFF7BFFF0C20FFF7BCFF1120FFF7FB
:10577000B9FF0020FFF7B6FF0020FFF7B3FFCC20F2
:10578000FFF7B0FFBB20FFF7ADFFCC20FFF7AAFF6C
:105790008020FFF7A7FFC020FFF7A4FF0020FFF73E
:1057A000A1FF0220FFF79EFFFF20FFF79BFFFF20D6
:1057B000FFF798FFFFF7F2F9074C04F82C0FFFF7FB
:1057C000EDF96070AA20FFF78DFFBDE810404FF49F
:1057D0007A7001F077B800000C02002003B4019841
:1057E0004100009850EAC12018BF04204A0D18BF9C
:1057F00040F0010040F2FF72B2EB515F08BF40F091
:105800000200012808BF052002B0704741000802CD
:1058100018BF04200A0E18BF40F001004FF07F426D
:1058200032EA010108BF40F00200012808BF05204C
:105830007047000010EE101A08B5444A6846B2EBF3
:10584000410F28D94FF0E640B0EB410F94BF002044
:105850004FF0FF3000900098002861DB60EE000AF6
:1058600010F0010F45D010F0020FDFED391A9FED57
:10587000391A00EEE11ADFED381A40EE811A21EEF6
:10588000A01AF0EE400A40EE010A08BFF1EE600AED
:10589000B0EE600A08BD314B21F0004293423CD982
:1058A00011F0004FDFED2E0A20EE201ADFED2D0A59
:1058B00019BF31EE601A71EE200A31EE201A71EE36
:1058C000600ABDEEE01A11EE100A9FED271A00F0F3
:1058D000030000EEC10A9FED251A009000EEC10AF8
:1058E0009FED231A00EEC10A9FED221A00EEC10AB5
:1058F000B1E79FED211A9FED210A10F0020F00EE93
:10590000810A9FED1F1A00EE801AB7EE000A00EE22
:10591000810A18BFB1EE400A08BD00F0E9FC9AE721
:1059200010EE100A4000B0F17F4F3CBFB7EE000A06
:1059300008BD07D14FF00100FAF719FEBDE8084095
:1059400000F0BEBCBDE8084000F0B4BCB61F927EBB
:10595000336D4C39DA82083CA0AA2ABE490E49466A
:1059600083F9223F0000004B0000C93F00A0FD3931
:105970000020A2331A61342CB93AB2BACA9F2A3D28
:10598000DDFFFFBE10B52DED040B86B09DED060BBF
:1059900010EE100A10EE901A8DED000B002818BFC3
:1059A0000120084320F00040C0F17F6000F1E0409A
:1059B000C00F21D19DED080B10EE101A10EE900AC9
:1059C0008DED000B002918BF0121084320F0004095
:1059D000C0F17F6000F1E040C00F0DD12949079868
:1059E000B1EB400F04BF0698002842D00998400050
:1059F00004BF089800283CD09DED080B53EC102BF9
:105A00009DED060B51EC100B01F014FACDE90201EB
:105A10009DED020B40F2FF7110EE900A8DED000B30
:105A200031EA105021D00798039900F0004001F0AE
:105A30000041884219D09DED080B8DED040B9DEDC2
:105A4000020B8DED000B10EE900A059961F31E001C
:105A500005909DED041B9DED020B51EC110B53ECD9
:105A6000102B01F095FACDE902019DED020B0AB071
:105A700010BD0120FAF77BFD0AB0BDE8104000F030
:105A8000FFBB00000000E0FF10B510EE100A2DED86
:105A9000068BB7EE001A10EE901AB0EE418A002283
:105AA000A0F5000CDFEDFE9A4FF00073BCF1FE4F45
:105AB0004FF07F4403EB410C80F0B481BCF1804F88
:105AC000C0F02082F74901449FEDF73AB1F5005F3D
:105AD00040F2D48200F58021CB0C03F00F0101EEDF
